{
  "_format": "hh-sol-artifact-1",
  "contractName": "superadmin",
  "sourceName": "contracts/medic.sol",
  "abi": [
    {
      "inputs": [],
      "stateMutability": "nonpayable",
      "type": "constructor"
    },
    {
      "inputs": [],
      "name": "admin",
      "outputs": [
        {
          "internalType": "address",
          "name": "",
          "type": "address"
        }
      ],
      "stateMutability": "view",
      "type": "function"
    },
    {
      "inputs": [
        {
          "internalType": "address",
          "name": "add",
          "type": "address"
        }
      ],
      "name": "checkAdmin",
      "outputs": [
        {
          "internalType": "bool",
          "name": "",
          "type": "bool"
        }
      ],
      "stateMutability": "view",
      "type": "function"
    },
    {
      "inputs": [
        {
          "internalType": "address",
          "name": "add",
          "type": "address"
        }
      ],
      "name": "checkPatient",
      "outputs": [
        {
          "internalType": "bool",
          "name": "",
          "type": "bool"
        }
      ],
      "stateMutability": "view",
      "type": "function"
    },
    {
      "inputs": [
        {
          "internalType": "address",
          "name": "add",
          "type": "address"
        }
      ],
      "name": "getHosDetails",
      "outputs": [
        {
          "internalType": "string",
          "name": "",
          "type": "string"
        }
      ],
      "stateMutability": "view",
      "type": "function"
    },
    {
      "inputs": [
        {
          "internalType": "address",
          "name": "add",
          "type": "address"
        }
      ],
      "name": "getPatientDetails",
      "outputs": [
        {
          "internalType": "string",
          "name": "",
          "type": "string"
        },
        {
          "internalType": "string",
          "name": "",
          "type": "string"
        },
        {
          "internalType": "string",
          "name": "",
          "type": "string"
        },
        {
          "internalType": "string",
          "name": "",
          "type": "string"
        },
        {
          "internalType": "string[]",
          "name": "",
          "type": "string[]"
        },
        {
          "internalType": "string[]",
          "name": "",
          "type": "string[]"
        }
      ],
      "stateMutability": "view",
      "type": "function"
    },
    {
      "inputs": [],
      "name": "getPatients",
      "outputs": [
        {
          "internalType": "address[]",
          "name": "",
          "type": "address[]"
        },
        {
          "internalType": "string[]",
          "name": "",
          "type": "string[]"
        }
      ],
      "stateMutability": "view",
      "type": "function"
    },
    {
      "inputs": [
        {
          "internalType": "address",
          "name": "",
          "type": "address"
        }
      ],
      "name": "hosAdmin",
      "outputs": [
        {
          "internalType": "bool",
          "name": "",
          "type": "bool"
        }
      ],
      "stateMutability": "view",
      "type": "function"
    },
    {
      "inputs": [
        {
          "internalType": "address",
          "name": "",
          "type": "address"
        }
      ],
      "name": "hospitals",
      "outputs": [
        {
          "internalType": "string",
          "name": "name",
          "type": "string"
        }
      ],
      "stateMutability": "view",
      "type": "function"
    },
    {
      "inputs": [
        {
          "internalType": "string",
          "name": "n",
          "type": "string"
        },
        {
          "internalType": "address",
          "name": "u",
          "type": "address"
        }
      ],
      "name": "newHospital",
      "outputs": [],
      "stateMutability": "nonpayable",
      "type": "function"
    },
    {
      "inputs": [
        {
          "internalType": "string",
          "name": "n",
          "type": "string"
        },
        {
          "internalType": "string",
          "name": "a",
          "type": "string"
        },
        {
          "internalType": "string",
          "name": "d",
          "type": "string"
        },
        {
          "internalType": "string",
          "name": "s",
          "type": "string"
        }
      ],
      "name": "newPatient",
      "outputs": [],
      "stateMutability": "nonpayable",
      "type": "function"
    },
    {
      "inputs": [
        {
          "internalType": "address",
          "name": "",
          "type": "address"
        }
      ],
      "name": "patientexist",
      "outputs": [
        {
          "internalType": "bool",
          "name": "",
          "type": "bool"
        }
      ],
      "stateMutability": "view",
      "type": "function"
    },
    {
      "inputs": [
        {
          "internalType": "address",
          "name": "",
          "type": "address"
        }
      ],
      "name": "patients",
      "outputs": [
        {
          "internalType": "string",
          "name": "name",
          "type": "string"
        },
        {
          "internalType": "string",
          "name": "aadhar",
          "type": "string"
        },
        {
          "internalType": "string",
          "name": "dob",
          "type": "string"
        },
        {
          "internalType": "string",
          "name": "sex",
          "type": "string"
        }
      ],
      "stateMutability": "view",
      "type": "function"
    },
    {
      "inputs": [
        {
          "internalType": "address",
          "name": "pAdd",
          "type": "address"
        },
        {
          "internalType": "string",
          "name": "hash",
          "type": "string"
        },
        {
          "internalType": "string",
          "name": "docD",
          "type": "string"
        }
      ],
      "name": "upDoc",
      "outputs": [],
      "stateMutability": "nonpayable",
      "type": "function"
    }
  ],
  "bytecode": "0x608060405234801561001057600080fd5b50336000806101000a81548173ffffffffffffffffffffffffffffffffffffffff021916908373ffffffffffffffffffffffffffffffffffffffff160217905550611d0a806100606000396000f3fe608060405234801561001057600080fd5b50600436106100cf5760003560e01c80637ef6a6451161008c578063a86622e011610066578063a86622e01461024e578063efe2ccc11461026a578063f093cf801461029f578063f851a440146102cf576100cf565b80637ef6a645146101be578063865bba9f146101ee5780639026dee81461021e576100cf565b80630869cfbc146100d45780630a911c7a1461010757806312ad1c371461013757806318cbdc331461015657806322fdbbab146101725780636529c7771461018e575b600080fd5b6100ee60048036038101906100e9919061159e565b6102ed565b6040516100fe949392919061198a565b60405180910390f35b610121600480360381019061011c919061159e565b61053d565b60405161012e919061194d565b60405180910390f35b61013f61055d565b60405161014d929190611916565b60405180910390f35b610170600480360381019061016b9190611646565b6106c7565b005b61018c600480360381019061018791906115c7565b61082e565b005b6101a860048036038101906101a3919061159e565b610981565b6040516101b5919061194d565b60405180910390f35b6101d860048036038101906101d3919061159e565b6109d7565b6040516101e59190611968565b60405180910390f35b6102086004803603810190610203919061159e565b610aab565b604051610215919061194d565b60405180910390f35b6102386004803603810190610233919061159e565b610acb565b604051610245919061194d565b60405180910390f35b6102686004803603810190610263919061169a565b610b21565b005b610284600480360381019061027f919061159e565b610e34565b604051610296969594939291906119eb565b60405180910390f35b6102b960048036038101906102b4919061159e565b6113b4565b6040516102c69190611968565b60405180910390f35b6102d761145a565b6040516102e491906118fb565b60405180910390f35b600260205280600052604060002060009150905080600001805461031090611beb565b80601f016020809104026020016040519081016040528092919081815260200182805461033c90611beb565b80156103895780601f1061035e57610100808354040283529160200191610389565b820191906000526020600020905b81548152906001019060200180831161036c57829003601f168201915b50505050509080600101805461039e90611beb565b80601f01602080910402602001604051908101604052809291908181526020018280546103ca90611beb565b80156104175780601f106103ec57610100808354040283529160200191610417565b820191906000526020600020905b8154815290600101906020018083116103fa57829003601f168201915b50505050509080600201805461042c90611beb565b80601f016020809104026020016040519081016040528092919081815260200182805461045890611beb565b80156104a55780601f1061047a576101008083540402835291602001916104a5565b820191906000526020600020905b81548152906001019060200180831161048857829003601f168201915b5050505050908060030180546104ba90611beb565b80601f01602080910402602001604051908101604052809291908181526020018280546104e690611beb565b80156105335780601f1061050857610100808354040283529160200191610533565b820191906000526020600020905b81548152906001019060200180831161051657829003601f168201915b5050505050905084565b60016020528060005260406000206000915054906101000a900460ff1681565b60608060046005818054806020026020016040519081016040528092919081815260200182805480156105e557602002820191906000526020600020905b8160009054906101000a900473ffffffffffffffffffffffffffffffffffffffff1673ffffffffffffffffffffffffffffffffffffffff168152602001906001019080831161059b575b5050505050915080805480602002602001604051908101604052809291908181526020016000905b828210156106b957838290600052602060002001805461062c90611beb565b80601f016020809104026020016040519081016040528092919081815260200182805461065890611beb565b80156106a55780601f1061067a576101008083540402835291602001916106a5565b820191906000526020600020905b81548152906001019060200180831161068857829003601f168201915b50505050508152602001906001019061060d565b505050509050915091509091565b60008054906101000a900473ffffffffffffffffffffffffffffffffffffffff1673ffffffffffffffffffffffffffffffffffffffff163373ffffffffffffffffffffffffffffffffffffffff161461071f57600080fd5b60001515600160008373ffffffffffffffffffffffffffffffffffffffff1673ffffffffffffffffffffffffffffffffffffffff16815260200190815260200160002060009054906101000a900460ff1615151461077c57600080fd5b81600660008373ffffffffffffffffffffffffffffffffffffffff1673ffffffffffffffffffffffffffffffffffffffff16815260200190815260200160002060000190805190602001906107d292919061147e565b5060018060008373ffffffffffffffffffffffffffffffffffffffff1673ffffffffffffffffffffffffffffffffffffffff16815260200190815260200160002060006101000a81548160ff0219169083151502179055505050565b600160003373ffffffffffffffffffffffffffffffffffffffff1673ffffffffffffffffffffffffffffffffffffffff16815260200190815260200160002060009054906101000a900460ff1661088457600080fd5b600260008473ffffffffffffffffffffffffffffffffffffffff1673ffffffffffffffffffffffffffffffffffffffff168152602001908152602001600020600401829080600181540180825580915050600190039060005260206000200160009091909190915090805190602001906108ff92919061147e565b50600260008473ffffffffffffffffffffffffffffffffffffffff1673ffffffffffffffffffffffffffffffffffffffff1681526020019081526020016000206005018190806001815401808255809150506001900390600052602060002001600090919091909150908051906020019061097b92919061147e565b50505050565b6000600360008373ffffffffffffffffffffffffffffffffffffffff1673ffffffffffffffffffffffffffffffffffffffff16815260200190815260200160002060009054906101000a900460ff169050919050565b6060600660008373ffffffffffffffffffffffffffffffffffffffff1673ffffffffffffffffffffffffffffffffffffffff1681526020019081526020016000206000018054610a2690611beb565b80601f0160208091040260200160405190810160405280929190818152602001828054610a5290611beb565b8015610a9f5780601f10610a7457610100808354040283529160200191610a9f565b820191906000526020600020905b815481529060010190602001808311610a8257829003601f168201915b50505050509050919050565b60036020528060005260406000206000915054906101000a900460ff1681565b6000600160008373ffffffffffffffffffffffffffffffffffffffff1673ffffffffffffffffffffffffffffffffffffffff16815260200190815260200160002060009054906101000a900460ff169050919050565b60001515600160003373ffffffffffffffffffffffffffffffffffffffff1673ffffffffffffffffffffffffffffffffffffffff16815260200190815260200160002060009054906101000a900460ff16151514610b7e57600080fd5b60001515600360003373ffffffffffffffffffffffffffffffffffffffff1673ffffffffffffffffffffffffffffffffffffffff16815260200190815260200160002060009054906101000a900460ff16151514610bdb57600080fd5b83600260003373ffffffffffffffffffffffffffffffffffffffff1673ffffffffffffffffffffffffffffffffffffffff1681526020019081526020016000206000019080519060200190610c3192919061147e565b5082600260003373ffffffffffffffffffffffffffffffffffffffff1673ffffffffffffffffffffffffffffffffffffffff1681526020019081526020016000206001019080519060200190610c8892919061147e565b5081600260003373ffffffffffffffffffffffffffffffffffffffff1673ffffffffffffffffffffffffffffffffffffffff1681526020019081526020016000206002019080519060200190610cdf92919061147e565b5080600260003373ffffffffffffffffffffffffffffffffffffffff1673ffffffffffffffffffffffffffffffffffffffff1681526020019081526020016000206003019080519060200190610d3692919061147e565b506004339080600181540180825580915050600190039060005260206000200160009091909190916101000a81548173ffffffffffffffffffffffffffffffffffffffff021916908373ffffffffffffffffffffffffffffffffffffffff1602179055506001600360003373ffffffffffffffffffffffffffffffffffffffff1673ffffffffffffffffffffffffffffffffffffffff16815260200190815260200160002060006101000a81548160ff021916908315150217905550600584908060018154018082558091505060019003906000526020600020016000909190919091509080519060200190610e2d92919061147e565b5050505050565b606080606080606080600260008873ffffffffffffffffffffffffffffffffffffffff1673ffffffffffffffffffffffffffffffffffffffff168152602001908152602001600020600001600260008973ffffffffffffffffffffffffffffffffffffffff1673ffffffffffffffffffffffffffffffffffffffff168152602001908152602001600020600101600260008a73ffffffffffffffffffffffffffffffffffffffff1673ffffffffffffffffffffffffffffffffffffffff168152602001908152602001600020600201600260008b73ffffffffffffffffffffffffffffffffffffffff1673ffffffffffffffffffffffffffffffffffffffff168152602001908152602001600020600301600260008c73ffffffffffffffffffffffffffffffffffffffff1673ffffffffffffffffffffffffffffffffffffffff168152602001908152602001600020600401600260008d73ffffffffffffffffffffffffffffffffffffffff1673ffffffffffffffffffffffffffffffffffffffff168152602001908152602001600020600501858054610fd590611beb565b80601f016020809104026020016040519081016040528092919081815260200182805461100190611beb565b801561104e5780601f106110235761010080835404028352916020019161104e565b820191906000526020600020905b81548152906001019060200180831161103157829003601f168201915b5050505050955084805461106190611beb565b80601f016020809104026020016040519081016040528092919081815260200182805461108d90611beb565b80156110da5780601f106110af576101008083540402835291602001916110da565b820191906000526020600020905b8154815290600101906020018083116110bd57829003601f168201915b505050505094508380546110ed90611beb565b80601f016020809104026020016040519081016040528092919081815260200182805461111990611beb565b80156111665780601f1061113b57610100808354040283529160200191611166565b820191906000526020600020905b81548152906001019060200180831161114957829003601f168201915b5050505050935082805461117990611beb565b80601f01602080910402602001604051908101604052809291908181526020018280546111a590611beb565b80156111f25780601f106111c7576101008083540402835291602001916111f2565b820191906000526020600020905b8154815290600101906020018083116111d557829003601f168201915b5050505050925081805480602002602001604051908101604052809291908181526020016000905b828210156112c657838290600052602060002001805461123990611beb565b80601f016020809104026020016040519081016040528092919081815260200182805461126590611beb565b80156112b25780601f10611287576101008083540402835291602001916112b2565b820191906000526020600020905b81548152906001019060200180831161129557829003601f168201915b50505050508152602001906001019061121a565b50505050915080805480602002602001604051908101604052809291908181526020016000905b8282101561139957838290600052602060002001805461130c90611beb565b80601f016020809104026020016040519081016040528092919081815260200182805461133890611beb565b80156113855780601f1061135a57610100808354040283529160200191611385565b820191906000526020600020905b81548152906001019060200180831161136857829003601f168201915b5050505050815260200190600101906112ed565b50505050905095509550955095509550955091939550919395565b60066020528060005260406000206000915090508060000180546113d790611beb565b80601f016020809104026020016040519081016040528092919081815260200182805461140390611beb565b80156114505780601f1061142557610100808354040283529160200191611450565b820191906000526020600020905b81548152906001019060200180831161143357829003601f168201915b5050505050905081565b60008054906101000a900473ffffffffffffffffffffffffffffffffffffffff1681565b82805461148a90611beb565b90600052602060002090601f0160209004810192826114ac57600085556114f3565b82601f106114c557805160ff19168380011785556114f3565b828001600101855582156114f3579182015b828111156114f25782518255916020019190600101906114d7565b5b5090506115009190611504565b5090565b5b8082111561151d576000816000905550600101611505565b5090565b600061153461152f84611a9b565b611a76565b90508281526020810184848401111561154c57600080fd5b611557848285611ba9565b509392505050565b60008135905061156e81611cbd565b92915050565b600082601f83011261158557600080fd5b8135611595848260208601611521565b91505092915050565b6000602082840312156115b057600080fd5b60006115be8482850161155f565b91505092915050565b6000806000606084860312156115dc57600080fd5b60006115ea8682870161155f565b935050602084013567ffffffffffffffff81111561160757600080fd5b61161386828701611574565b925050604084013567ffffffffffffffff81111561163057600080fd5b61163c86828701611574565b9150509250925092565b6000806040838503121561165957600080fd5b600083013567ffffffffffffffff81111561167357600080fd5b61167f85828601611574565b92505060206116908582860161155f565b9150509250929050565b600080600080608085870312156116b057600080fd5b600085013567ffffffffffffffff8111156116ca57600080fd5b6116d687828801611574565b945050602085013567ffffffffffffffff8111156116f357600080fd5b6116ff87828801611574565b935050604085013567ffffffffffffffff81111561171c57600080fd5b61172887828801611574565b925050606085013567ffffffffffffffff81111561174557600080fd5b61175187828801611574565b91505092959194509250565b60006117698383611789565b60208301905092915050565b60006117818383611889565b905092915050565b61179281611b6b565b82525050565b6117a181611b6b565b82525050565b60006117b282611aec565b6117bc8185611b27565b93506117c783611acc565b8060005b838110156117f85781516117df888261175d565b97506117ea83611b0d565b9250506001810190506117cb565b5085935050505092915050565b600061181082611af7565b61181a8185611b38565b93508360208202850161182c85611adc565b8060005b8581101561186857848403895281516118498582611775565b945061185483611b1a565b925060208a01995050600181019050611830565b50829750879550505050505092915050565b61188381611b7d565b82525050565b600061189482611b02565b61189e8185611b49565b93506118ae818560208601611bb8565b6118b781611cac565b840191505092915050565b60006118cd82611b02565b6118d78185611b5a565b93506118e7818560208601611bb8565b6118f081611cac565b840191505092915050565b60006020820190506119106000830184611798565b92915050565b6000604082019050818103600083015261193081856117a7565b905081810360208301526119448184611805565b90509392505050565b6000602082019050611962600083018461187a565b92915050565b6000602082019050818103600083015261198281846118c2565b905092915050565b600060808201905081810360008301526119a481876118c2565b905081810360208301526119b881866118c2565b905081810360408301526119cc81856118c2565b905081810360608301526119e081846118c2565b905095945050505050565b600060c0820190508181036000830152611a0581896118c2565b90508181036020830152611a1981886118c2565b90508181036040830152611a2d81876118c2565b90508181036060830152611a4181866118c2565b90508181036080830152611a558185611805565b905081810360a0830152611a698184611805565b9050979650505050505050565b6000611a80611a91565b9050611a8c8282611c1d565b919050565b6000604051905090565b600067ffffffffffffffff821115611ab657611ab5611c7d565b5b611abf82611cac565b9050602081019050919050565b6000819050602082019050919050565b6000819050602082019050919050565b600081519050919050565b600081519050919050565b600081519050919050565b6000602082019050919050565b6000602082019050919050565b600082825260208201905092915050565b600082825260208201905092915050565b600082825260208201905092915050565b600082825260208201905092915050565b6000611b7682611b89565b9050919050565b60008115159050919050565b600073ffffffffffffffffffffffffffffffffffffffff82169050919050565b82818337600083830152505050565b60005b83811015611bd6578082015181840152602081019050611bbb565b83811115611be5576000848401525b50505050565b60006002820490506001821680611c0357607f821691505b60208210811415611c1757611c16611c4e565b5b50919050565b611c2682611cac565b810181811067ffffffffffffffff82111715611c4557611c44611c7d565b5b80604052505050565b7f4e487b7100000000000000000000000000000000000000000000000000000000600052602260045260246000fd5b7f4e487b7100000000000000000000000000000000000000000000000000000000600052604160045260246000fd5b6000601f19601f8301169050919050565b611cc681611b6b565b8114611cd157600080fd5b5056fea26469706673582212201b8674fc3b386c02caa111fb9f0f1d7f345190e4173087e5acfd2d25fbc0f2ea64736f6c63430008010033",
  "linkReferences": {},
  "deployedLinkReferences": {}
}