{
	"contracts/medic.sol": {
		"superadmin": {
			"abi": [
				{
					"inputs": [],
					"stateMutability": "nonpayable",
					"type": "constructor"
				},
				{
					"inputs": [],
					"name": "admin",
					"outputs": [
						{
							"internalType": "address",
							"name": "",
							"type": "address"
						}
					],
					"stateMutability": "view",
					"type": "function"
				},
				{
					"inputs": [
						{
							"internalType": "address",
							"name": "add",
							"type": "address"
						}
					],
					"name": "checkAdmin",
					"outputs": [
						{
							"internalType": "bool",
							"name": "",
							"type": "bool"
						}
					],
					"stateMutability": "view",
					"type": "function"
				},
				{
					"inputs": [
						{
							"internalType": "address",
							"name": "add",
							"type": "address"
						}
					],
					"name": "checkPatient",
					"outputs": [
						{
							"internalType": "bool",
							"name": "",
							"type": "bool"
						}
					],
					"stateMutability": "view",
					"type": "function"
				},
				{
					"inputs": [
						{
							"internalType": "address",
							"name": "add",
							"type": "address"
						}
					],
					"name": "getHosDetails",
					"outputs": [
						{
							"internalType": "string",
							"name": "",
							"type": "string"
						}
					],
					"stateMutability": "view",
					"type": "function"
				},
				{
					"inputs": [
						{
							"internalType": "address",
							"name": "add",
							"type": "address"
						}
					],
					"name": "getPatientDetails",
					"outputs": [
						{
							"internalType": "string",
							"name": "",
							"type": "string"
						},
						{
							"internalType": "string",
							"name": "",
							"type": "string"
						},
						{
							"internalType": "string",
							"name": "",
							"type": "string"
						},
						{
							"internalType": "string",
							"name": "",
							"type": "string"
						},
						{
							"internalType": "string[]",
							"name": "",
							"type": "string[]"
						},
						{
							"internalType": "string[]",
							"name": "",
							"type": "string[]"
						}
					],
					"stateMutability": "view",
					"type": "function"
				},
				{
					"inputs": [],
					"name": "getPatients",
					"outputs": [
						{
							"internalType": "address[]",
							"name": "",
							"type": "address[]"
						},
						{
							"internalType": "string[]",
							"name": "",
							"type": "string[]"
						}
					],
					"stateMutability": "view",
					"type": "function"
				},
				{
					"inputs": [
						{
							"internalType": "address",
							"name": "",
							"type": "address"
						}
					],
					"name": "hosAdmin",
					"outputs": [
						{
							"internalType": "bool",
							"name": "",
							"type": "bool"
						}
					],
					"stateMutability": "view",
					"type": "function"
				},
				{
					"inputs": [
						{
							"internalType": "address",
							"name": "",
							"type": "address"
						}
					],
					"name": "hospitals",
					"outputs": [
						{
							"internalType": "string",
							"name": "name",
							"type": "string"
						}
					],
					"stateMutability": "view",
					"type": "function"
				},
				{
					"inputs": [
						{
							"internalType": "string",
							"name": "n",
							"type": "string"
						},
						{
							"internalType": "address",
							"name": "u",
							"type": "address"
						}
					],
					"name": "newHospital",
					"outputs": [],
					"stateMutability": "nonpayable",
					"type": "function"
				},
				{
					"inputs": [
						{
							"internalType": "string",
							"name": "n",
							"type": "string"
						},
						{
							"internalType": "string",
							"name": "a",
							"type": "string"
						},
						{
							"internalType": "string",
							"name": "d",
							"type": "string"
						},
						{
							"internalType": "string",
							"name": "s",
							"type": "string"
						}
					],
					"name": "newPatient",
					"outputs": [],
					"stateMutability": "nonpayable",
					"type": "function"
				},
				{
					"inputs": [
						{
							"internalType": "address",
							"name": "",
							"type": "address"
						}
					],
					"name": "patientexist",
					"outputs": [
						{
							"internalType": "bool",
							"name": "",
							"type": "bool"
						}
					],
					"stateMutability": "view",
					"type": "function"
				},
				{
					"inputs": [
						{
							"internalType": "address",
							"name": "",
							"type": "address"
						}
					],
					"name": "patients",
					"outputs": [
						{
							"internalType": "string",
							"name": "name",
							"type": "string"
						},
						{
							"internalType": "string",
							"name": "aadhar",
							"type": "string"
						},
						{
							"internalType": "string",
							"name": "dob",
							"type": "string"
						},
						{
							"internalType": "string",
							"name": "sex",
							"type": "string"
						}
					],
					"stateMutability": "view",
					"type": "function"
				},
				{
					"inputs": [
						{
							"internalType": "address",
							"name": "pAdd",
							"type": "address"
						},
						{
							"internalType": "string",
							"name": "hash",
							"type": "string"
						},
						{
							"internalType": "string",
							"name": "docD",
							"type": "string"
						}
					],
					"name": "upDoc",
					"outputs": [],
					"stateMutability": "nonpayable",
					"type": "function"
				}
			],
			"devdoc": {
				"kind": "dev",
				"methods": {},
				"version": 1
			},
			"evm": {
				"assembly": "    /* \"contracts/medic.sol\":64:2462  contract superadmin{... */\n  mstore(0x40, 0x80)\n    /* \"contracts/medic.sol\":166:216  constructor(){... */\n  callvalue\n  dup1\n  iszero\n  tag_1\n  jumpi\n  0x00\n  dup1\n  revert\ntag_1:\n  pop\n    /* \"contracts/medic.sol\":198:208  msg.sender */\n  caller\n    /* \"contracts/medic.sol\":190:195  admin */\n  0x00\n  dup1\n    /* \"contracts/medic.sol\":190:208  admin = msg.sender */\n  0x0100\n  exp\n  dup2\n  sload\n  dup2\n  0xffffffffffffffffffffffffffffffffffffffff\n  mul\n  not\n  and\n  swap1\n  dup4\n  0xffffffffffffffffffffffffffffffffffffffff\n  and\n  mul\n  or\n  swap1\n  sstore\n  pop\n    /* \"contracts/medic.sol\":64:2462  contract superadmin{... */\n  dataSize(sub_0)\n  dup1\n  dataOffset(sub_0)\n  0x00\n  codecopy\n  0x00\n  return\nstop\n\nsub_0: assembly {\n        /* \"contracts/medic.sol\":64:2462  contract superadmin{... */\n      mstore(0x40, 0x80)\n      callvalue\n      dup1\n      iszero\n      tag_1\n      jumpi\n      0x00\n      dup1\n      revert\n    tag_1:\n      pop\n      jumpi(tag_2, lt(calldatasize, 0x04))\n      shr(0xe0, calldataload(0x00))\n      dup1\n      0x7ef6a645\n      gt\n      tag_16\n      jumpi\n      dup1\n      0xa86622e0\n      gt\n      tag_17\n      jumpi\n      dup1\n      0xa86622e0\n      eq\n      tag_12\n      jumpi\n      dup1\n      0xefe2ccc1\n      eq\n      tag_13\n      jumpi\n      dup1\n      0xf093cf80\n      eq\n      tag_14\n      jumpi\n      dup1\n      0xf851a440\n      eq\n      tag_15\n      jumpi\n      jump(tag_2)\n    tag_17:\n      dup1\n      0x7ef6a645\n      eq\n      tag_9\n      jumpi\n      dup1\n      0x865bba9f\n      eq\n      tag_10\n      jumpi\n      dup1\n      0x9026dee8\n      eq\n      tag_11\n      jumpi\n      jump(tag_2)\n    tag_16:\n      dup1\n      0x0869cfbc\n      eq\n      tag_3\n      jumpi\n      dup1\n      0x0a911c7a\n      eq\n      tag_4\n      jumpi\n      dup1\n      0x12ad1c37\n      eq\n      tag_5\n      jumpi\n      dup1\n      0x18cbdc33\n      eq\n      tag_6\n      jumpi\n      dup1\n      0x22fdbbab\n      eq\n      tag_7\n      jumpi\n      dup1\n      0x6529c777\n      eq\n      tag_8\n      jumpi\n    tag_2:\n      0x00\n      dup1\n      revert\n        /* \"contracts/medic.sol\":393:436  mapping(address => Patient) public patients */\n    tag_3:\n      tag_18\n      0x04\n      dup1\n      calldatasize\n      sub\n      dup2\n      add\n      swap1\n      tag_19\n      swap2\n      swap1\n      tag_20\n      jump\t// in\n    tag_19:\n      tag_21\n      jump\t// in\n    tag_18:\n      mload(0x40)\n      tag_22\n      swap5\n      swap4\n      swap3\n      swap2\n      swap1\n      tag_23\n      jump\t// in\n    tag_22:\n      mload(0x40)\n      dup1\n      swap2\n      sub\n      swap1\n      return\n        /* \"contracts/medic.sol\":117:157  mapping(address => bool) public hosAdmin */\n    tag_4:\n      tag_24\n      0x04\n      dup1\n      calldatasize\n      sub\n      dup2\n      add\n      swap1\n      tag_25\n      swap2\n      swap1\n      tag_20\n      jump\t// in\n    tag_25:\n      tag_26\n      jump\t// in\n    tag_24:\n      mload(0x40)\n      tag_27\n      swap2\n      swap1\n      tag_28\n      jump\t// in\n    tag_27:\n      mload(0x40)\n      dup1\n      swap2\n      sub\n      swap1\n      return\n        /* \"contracts/medic.sol\":1619:1742  function getPatients() public view returns (address[] memory, string[] memory) {... */\n    tag_5:\n      tag_29\n      tag_30\n      jump\t// in\n    tag_29:\n      mload(0x40)\n      tag_31\n      swap3\n      swap2\n      swap1\n      tag_32\n      jump\t// in\n    tag_31:\n      mload(0x40)\n      dup1\n      swap2\n      sub\n      swap1\n      return\n        /* \"contracts/medic.sol\":750:920  function newHospital(string memory n,address u) public restricted{... */\n    tag_6:\n      tag_33\n      0x04\n      dup1\n      calldatasize\n      sub\n      dup2\n      add\n      swap1\n      tag_34\n      swap2\n      swap1\n      tag_35\n      jump\t// in\n    tag_34:\n      tag_36\n      jump\t// in\n    tag_33:\n      stop\n        /* \"contracts/medic.sol\":1401:1607  function upDoc(address pAdd, string memory hash, string memory docD) public{... */\n    tag_7:\n      tag_37\n      0x04\n      dup1\n      calldatasize\n      sub\n      dup2\n      add\n      swap1\n      tag_38\n      swap2\n      swap1\n      tag_39\n      jump\t// in\n    tag_38:\n      tag_40\n      jump\t// in\n    tag_37:\n      stop\n        /* \"contracts/medic.sol\":1855:1960  function checkPatient(address add) public view returns (bool) {... */\n    tag_8:\n      tag_41\n      0x04\n      dup1\n      calldatasize\n      sub\n      dup2\n      add\n      swap1\n      tag_42\n      swap2\n      swap1\n      tag_20\n      jump\t// in\n    tag_42:\n      tag_43\n      jump\t// in\n    tag_41:\n      mload(0x40)\n      tag_44\n      swap2\n      swap1\n      tag_28\n      jump\t// in\n    tag_44:\n      mload(0x40)\n      dup1\n      swap2\n      sub\n      swap1\n      return\n        /* \"contracts/medic.sol\":2342:2459  function getHosDetails(address add) public view returns (string memory) {... */\n    tag_9:\n      tag_45\n      0x04\n      dup1\n      calldatasize\n      sub\n      dup2\n      add\n      swap1\n      tag_46\n      swap2\n      swap1\n      tag_20\n      jump\t// in\n    tag_46:\n      tag_47\n      jump\t// in\n    tag_45:\n      mload(0x40)\n      tag_48\n      swap2\n      swap1\n      tag_49\n      jump\t// in\n    tag_48:\n      mload(0x40)\n      dup1\n      swap2\n      sub\n      swap1\n      return\n        /* \"contracts/medic.sol\":443:487  mapping(address => bool) public patientexist */\n    tag_10:\n      tag_50\n      0x04\n      dup1\n      calldatasize\n      sub\n      dup2\n      add\n      swap1\n      tag_51\n      swap2\n      swap1\n      tag_20\n      jump\t// in\n    tag_51:\n      tag_52\n      jump\t// in\n    tag_50:\n      mload(0x40)\n      tag_53\n      swap2\n      swap1\n      tag_28\n      jump\t// in\n    tag_53:\n      mload(0x40)\n      dup1\n      swap2\n      sub\n      swap1\n      return\n        /* \"contracts/medic.sol\":1750:1849  function checkAdmin(address add) public view returns (bool) {... */\n    tag_11:\n      tag_54\n      0x04\n      dup1\n      calldatasize\n      sub\n      dup2\n      add\n      swap1\n      tag_55\n      swap2\n      swap1\n      tag_20\n      jump\t// in\n    tag_55:\n      tag_56\n      jump\t// in\n    tag_54:\n      mload(0x40)\n      tag_57\n      swap2\n      swap1\n      tag_28\n      jump\t// in\n    tag_57:\n      mload(0x40)\n      dup1\n      swap2\n      sub\n      swap1\n      return\n        /* \"contracts/medic.sol\":932:1389  function newPatient(string memory n,string memory a, string memory d, string memory s) public{... */\n    tag_12:\n      tag_58\n      0x04\n      dup1\n      calldatasize\n      sub\n      dup2\n      add\n      swap1\n      tag_59\n      swap2\n      swap1\n      tag_60\n      jump\t// in\n    tag_59:\n      tag_61\n      jump\t// in\n    tag_58:\n      stop\n        /* \"contracts/medic.sol\":1968:2334  function getPatientDetails(address add) public view returns (string memory,string memory, string memory, string memory, string[] memory, string[] memory) {... */\n    tag_13:\n      tag_62\n      0x04\n      dup1\n      calldatasize\n      sub\n      dup2\n      add\n      swap1\n      tag_63\n      swap2\n      swap1\n      tag_20\n      jump\t// in\n    tag_63:\n      tag_64\n      jump\t// in\n    tag_62:\n      mload(0x40)\n      tag_65\n      swap7\n      swap6\n      swap5\n      swap4\n      swap3\n      swap2\n      swap1\n      tag_66\n      jump\t// in\n    tag_65:\n      mload(0x40)\n      dup1\n      swap2\n      sub\n      swap1\n      return\n        /* \"contracts/medic.sol\":599:644  mapping(address => Hospital) public hospitals */\n    tag_14:\n      tag_67\n      0x04\n      dup1\n      calldatasize\n      sub\n      dup2\n      add\n      swap1\n      tag_68\n      swap2\n      swap1\n      tag_20\n      jump\t// in\n    tag_68:\n      tag_69\n      jump\t// in\n    tag_67:\n      mload(0x40)\n      tag_70\n      swap2\n      swap1\n      tag_49\n      jump\t// in\n    tag_70:\n      mload(0x40)\n      dup1\n      swap2\n      sub\n      swap1\n      return\n        /* \"contracts/medic.sol\":90:110  address public admin */\n    tag_15:\n      tag_71\n      tag_72\n      jump\t// in\n    tag_71:\n      mload(0x40)\n      tag_73\n      swap2\n      swap1\n      tag_74\n      jump\t// in\n    tag_73:\n      mload(0x40)\n      dup1\n      swap2\n      sub\n      swap1\n      return\n        /* \"contracts/medic.sol\":393:436  mapping(address => Patient) public patients */\n    tag_21:\n      mstore(0x20, 0x02)\n      dup1\n      0x00\n      mstore\n      keccak256(0x00, 0x40)\n      0x00\n      swap2\n      pop\n      swap1\n      pop\n      dup1\n      0x00\n      add\n      dup1\n      sload\n      tag_75\n      swap1\n      tag_76\n      jump\t// in\n    tag_75:\n      dup1\n      0x1f\n      add\n      0x20\n      dup1\n      swap2\n      div\n      mul\n      0x20\n      add\n      mload(0x40)\n      swap1\n      dup2\n      add\n      0x40\n      mstore\n      dup1\n      swap3\n      swap2\n      swap1\n      dup2\n      dup2\n      mstore\n      0x20\n      add\n      dup3\n      dup1\n      sload\n      tag_77\n      swap1\n      tag_76\n      jump\t// in\n    tag_77:\n      dup1\n      iszero\n      tag_78\n      jumpi\n      dup1\n      0x1f\n      lt\n      tag_79\n      jumpi\n      0x0100\n      dup1\n      dup4\n      sload\n      div\n      mul\n      dup4\n      mstore\n      swap2\n      0x20\n      add\n      swap2\n      jump(tag_78)\n    tag_79:\n      dup3\n      add\n      swap2\n      swap1\n      0x00\n      mstore\n      keccak256(0x00, 0x20)\n      swap1\n    tag_80:\n      dup2\n      sload\n      dup2\n      mstore\n      swap1\n      0x01\n      add\n      swap1\n      0x20\n      add\n      dup1\n      dup4\n      gt\n      tag_80\n      jumpi\n      dup3\n      swap1\n      sub\n      0x1f\n      and\n      dup3\n      add\n      swap2\n    tag_78:\n      pop\n      pop\n      pop\n      pop\n      pop\n      swap1\n      dup1\n      0x01\n      add\n      dup1\n      sload\n      tag_81\n      swap1\n      tag_76\n      jump\t// in\n    tag_81:\n      dup1\n      0x1f\n      add\n      0x20\n      dup1\n      swap2\n      div\n      mul\n      0x20\n      add\n      mload(0x40)\n      swap1\n      dup2\n      add\n      0x40\n      mstore\n      dup1\n      swap3\n      swap2\n      swap1\n      dup2\n      dup2\n      mstore\n      0x20\n      add\n      dup3\n      dup1\n      sload\n      tag_82\n      swap1\n      tag_76\n      jump\t// in\n    tag_82:\n      dup1\n      iszero\n      tag_83\n      jumpi\n      dup1\n      0x1f\n      lt\n      tag_84\n      jumpi\n      0x0100\n      dup1\n      dup4\n      sload\n      div\n      mul\n      dup4\n      mstore\n      swap2\n      0x20\n      add\n      swap2\n      jump(tag_83)\n    tag_84:\n      dup3\n      add\n      swap2\n      swap1\n      0x00\n      mstore\n      keccak256(0x00, 0x20)\n      swap1\n    tag_85:\n      dup2\n      sload\n      dup2\n      mstore\n      swap1\n      0x01\n      add\n      swap1\n      0x20\n      add\n      dup1\n      dup4\n      gt\n      tag_85\n      jumpi\n      dup3\n      swap1\n      sub\n      0x1f\n      and\n      dup3\n      add\n      swap2\n    tag_83:\n      pop\n      pop\n      pop\n      pop\n      pop\n      swap1\n      dup1\n      0x02\n      add\n      dup1\n      sload\n      tag_86\n      swap1\n      tag_76\n      jump\t// in\n    tag_86:\n      dup1\n      0x1f\n      add\n      0x20\n      dup1\n      swap2\n      div\n      mul\n      0x20\n      add\n      mload(0x40)\n      swap1\n      dup2\n      add\n      0x40\n      mstore\n      dup1\n      swap3\n      swap2\n      swap1\n      dup2\n      dup2\n      mstore\n      0x20\n      add\n      dup3\n      dup1\n      sload\n      tag_87\n      swap1\n      tag_76\n      jump\t// in\n    tag_87:\n      dup1\n      iszero\n      tag_88\n      jumpi\n      dup1\n      0x1f\n      lt\n      tag_89\n      jumpi\n      0x0100\n      dup1\n      dup4\n      sload\n      div\n      mul\n      dup4\n      mstore\n      swap2\n      0x20\n      add\n      swap2\n      jump(tag_88)\n    tag_89:\n      dup3\n      add\n      swap2\n      swap1\n      0x00\n      mstore\n      keccak256(0x00, 0x20)\n      swap1\n    tag_90:\n      dup2\n      sload\n      dup2\n      mstore\n      swap1\n      0x01\n      add\n      swap1\n      0x20\n      add\n      dup1\n      dup4\n      gt\n      tag_90\n      jumpi\n      dup3\n      swap1\n      sub\n      0x1f\n      and\n      dup3\n      add\n      swap2\n    tag_88:\n      pop\n      pop\n      pop\n      pop\n      pop\n      swap1\n      dup1\n      0x03\n      add\n      dup1\n      sload\n      tag_91\n      swap1\n      tag_76\n      jump\t// in\n    tag_91:\n      dup1\n      0x1f\n      add\n      0x20\n      dup1\n      swap2\n      div\n      mul\n      0x20\n      add\n      mload(0x40)\n      swap1\n      dup2\n      add\n      0x40\n      mstore\n      dup1\n      swap3\n      swap2\n      swap1\n      dup2\n      dup2\n      mstore\n      0x20\n      add\n      dup3\n      dup1\n      sload\n      tag_92\n      swap1\n      tag_76\n      jump\t// in\n    tag_92:\n      dup1\n      iszero\n      tag_93\n      jumpi\n      dup1\n      0x1f\n      lt\n      tag_94\n      jumpi\n      0x0100\n      dup1\n      dup4\n      sload\n      div\n      mul\n      dup4\n      mstore\n      swap2\n      0x20\n      add\n      swap2\n      jump(tag_93)\n    tag_94:\n      dup3\n      add\n      swap2\n      swap1\n      0x00\n      mstore\n      keccak256(0x00, 0x20)\n      swap1\n    tag_95:\n      dup2\n      sload\n      dup2\n      mstore\n      swap1\n      0x01\n      add\n      swap1\n      0x20\n      add\n      dup1\n      dup4\n      gt\n      tag_95\n      jumpi\n      dup3\n      swap1\n      sub\n      0x1f\n      and\n      dup3\n      add\n      swap2\n    tag_93:\n      pop\n      pop\n      pop\n      pop\n      pop\n      swap1\n      pop\n      dup5\n      jump\t// out\n        /* \"contracts/medic.sol\":117:157  mapping(address => bool) public hosAdmin */\n    tag_26:\n      mstore(0x20, 0x01)\n      dup1\n      0x00\n      mstore\n      keccak256(0x00, 0x40)\n      0x00\n      swap2\n      pop\n      sload\n      swap1\n      0x0100\n      exp\n      swap1\n      div\n      0xff\n      and\n      dup2\n      jump\t// out\n        /* \"contracts/medic.sol\":1619:1742  function getPatients() public view returns (address[] memory, string[] memory) {... */\n    tag_30:\n        /* \"contracts/medic.sol\":1663:1679  address[] memory */\n      0x60\n        /* \"contracts/medic.sol\":1681:1696  string[] memory */\n      dup1\n        /* \"contracts/medic.sol\":1717:1724  patList */\n      0x04\n        /* \"contracts/medic.sol\":1725:1733  patNList */\n      0x05\n        /* \"contracts/medic.sol\":1709:1734  return (patList,patNList) */\n      dup2\n      dup1\n      sload\n      dup1\n      0x20\n      mul\n      0x20\n      add\n      mload(0x40)\n      swap1\n      dup2\n      add\n      0x40\n      mstore\n      dup1\n      swap3\n      swap2\n      swap1\n      dup2\n      dup2\n      mstore\n      0x20\n      add\n      dup3\n      dup1\n      sload\n      dup1\n      iszero\n      tag_97\n      jumpi\n      0x20\n      mul\n      dup3\n      add\n      swap2\n      swap1\n      0x00\n      mstore\n      keccak256(0x00, 0x20)\n      swap1\n    tag_98:\n      dup2\n      0x00\n      swap1\n      sload\n      swap1\n      0x0100\n      exp\n      swap1\n      div\n      0xffffffffffffffffffffffffffffffffffffffff\n      and\n      0xffffffffffffffffffffffffffffffffffffffff\n      and\n      dup2\n      mstore\n      0x20\n      add\n      swap1\n      0x01\n      add\n      swap1\n      dup1\n      dup4\n      gt\n      tag_98\n      jumpi\n    tag_97:\n      pop\n      pop\n      pop\n      pop\n      pop\n      swap2\n      pop\n      dup1\n      dup1\n      sload\n      dup1\n      0x20\n      mul\n      0x20\n      add\n      mload(0x40)\n      swap1\n      dup2\n      add\n      0x40\n      mstore\n      dup1\n      swap3\n      swap2\n      swap1\n      dup2\n      dup2\n      mstore\n      0x20\n      add\n      0x00\n      swap1\n    tag_99:\n      dup3\n      dup3\n      lt\n      iszero\n      tag_100\n      jumpi\n      dup4\n      dup3\n      swap1\n      0x00\n      mstore\n      keccak256(0x00, 0x20)\n      add\n      dup1\n      sload\n      tag_102\n      swap1\n      tag_76\n      jump\t// in\n    tag_102:\n      dup1\n      0x1f\n      add\n      0x20\n      dup1\n      swap2\n      div\n      mul\n      0x20\n      add\n      mload(0x40)\n      swap1\n      dup2\n      add\n      0x40\n      mstore\n      dup1\n      swap3\n      swap2\n      swap1\n      dup2\n      dup2\n      mstore\n      0x20\n      add\n      dup3\n      dup1\n      sload\n      tag_103\n      swap1\n      tag_76\n      jump\t// in\n    tag_103:\n      dup1\n      iszero\n      tag_104\n      jumpi\n      dup1\n      0x1f\n      lt\n      tag_105\n      jumpi\n      0x0100\n      dup1\n      dup4\n      sload\n      div\n      mul\n      dup4\n      mstore\n      swap2\n      0x20\n      add\n      swap2\n      jump(tag_104)\n    tag_105:\n      dup3\n      add\n      swap2\n      swap1\n      0x00\n      mstore\n      keccak256(0x00, 0x20)\n      swap1\n    tag_106:\n      dup2\n      sload\n      dup2\n      mstore\n      swap1\n      0x01\n      add\n      swap1\n      0x20\n      add\n      dup1\n      dup4\n      gt\n      tag_106\n      jumpi\n      dup3\n      swap1\n      sub\n      0x1f\n      and\n      dup3\n      add\n      swap2\n    tag_104:\n      pop\n      pop\n      pop\n      pop\n      pop\n      dup2\n      mstore\n      0x20\n      add\n      swap1\n      0x01\n      add\n      swap1\n      jump(tag_99)\n    tag_100:\n      pop\n      pop\n      pop\n      pop\n      swap1\n      pop\n      swap2\n      pop\n      swap2\n      pop\n        /* \"contracts/medic.sol\":1619:1742  function getPatients() public view returns (address[] memory, string[] memory) {... */\n      swap1\n      swap2\n      jump\t// out\n        /* \"contracts/medic.sol\":750:920  function newHospital(string memory n,address u) public restricted{... */\n    tag_36:\n        /* \"contracts/medic.sol\":712:717  admin */\n      0x00\n      dup1\n      sload\n      swap1\n      0x0100\n      exp\n      swap1\n      div\n      0xffffffffffffffffffffffffffffffffffffffff\n      and\n        /* \"contracts/medic.sol\":698:717  msg.sender == admin */\n      0xffffffffffffffffffffffffffffffffffffffff\n      and\n        /* \"contracts/medic.sol\":698:708  msg.sender */\n      caller\n        /* \"contracts/medic.sol\":698:717  msg.sender == admin */\n      0xffffffffffffffffffffffffffffffffffffffff\n      and\n      eq\n        /* \"contracts/medic.sol\":690:718  require(msg.sender == admin) */\n      tag_108\n      jumpi\n      0x00\n      dup1\n      revert\n    tag_108:\n        /* \"contracts/medic.sol\":847:852  false */\n      0x00\n        /* \"contracts/medic.sol\":834:852  hosAdmin[u]==false */\n      iszero\n      iszero\n        /* \"contracts/medic.sol\":834:842  hosAdmin */\n      0x01\n        /* \"contracts/medic.sol\":834:845  hosAdmin[u] */\n      0x00\n        /* \"contracts/medic.sol\":843:844  u */\n      dup4\n        /* \"contracts/medic.sol\":834:845  hosAdmin[u] */\n      0xffffffffffffffffffffffffffffffffffffffff\n      and\n      0xffffffffffffffffffffffffffffffffffffffff\n      and\n      dup2\n      mstore\n      0x20\n      add\n      swap1\n      dup2\n      mstore\n      0x20\n      add\n      0x00\n      keccak256\n      0x00\n      swap1\n      sload\n      swap1\n      0x0100\n      exp\n      swap1\n      div\n      0xff\n      and\n        /* \"contracts/medic.sol\":834:852  hosAdmin[u]==false */\n      iszero\n      iszero\n      eq\n        /* \"contracts/medic.sol\":826:853  require(hosAdmin[u]==false) */\n      tag_110\n      jumpi\n      0x00\n      dup1\n      revert\n    tag_110:\n        /* \"contracts/medic.sol\":884:885  n */\n      dup2\n        /* \"contracts/medic.sol\":864:873  hospitals */\n      0x06\n        /* \"contracts/medic.sol\":864:876  hospitals[u] */\n      0x00\n        /* \"contracts/medic.sol\":874:875  u */\n      dup4\n        /* \"contracts/medic.sol\":864:876  hospitals[u] */\n      0xffffffffffffffffffffffffffffffffffffffff\n      and\n      0xffffffffffffffffffffffffffffffffffffffff\n      and\n      dup2\n      mstore\n      0x20\n      add\n      swap1\n      dup2\n      mstore\n      0x20\n      add\n      0x00\n      keccak256\n        /* \"contracts/medic.sol\":864:881  hospitals[u].name */\n      0x00\n      add\n        /* \"contracts/medic.sol\":864:885  hospitals[u].name = n */\n      swap1\n      dup2\n      tag_111\n      swap2\n      swap1\n      tag_112\n      jump\t// in\n    tag_111:\n      pop\n        /* \"contracts/medic.sol\":908:912  true */\n      0x01\n        /* \"contracts/medic.sol\":896:904  hosAdmin */\n      dup1\n        /* \"contracts/medic.sol\":896:907  hosAdmin[u] */\n      0x00\n        /* \"contracts/medic.sol\":905:906  u */\n      dup4\n        /* \"contracts/medic.sol\":896:907  hosAdmin[u] */\n      0xffffffffffffffffffffffffffffffffffffffff\n      and\n      0xffffffffffffffffffffffffffffffffffffffff\n      and\n      dup2\n      mstore\n      0x20\n      add\n      swap1\n      dup2\n      mstore\n      0x20\n      add\n      0x00\n      keccak256\n      0x00\n        /* \"contracts/medic.sol\":896:912  hosAdmin[u]=true */\n      0x0100\n      exp\n      dup2\n      sload\n      dup2\n      0xff\n      mul\n      not\n      and\n      swap1\n      dup4\n      iszero\n      iszero\n      mul\n      or\n      swap1\n      sstore\n      pop\n        /* \"contracts/medic.sol\":750:920  function newHospital(string memory n,address u) public restricted{... */\n      pop\n      pop\n      jump\t// out\n        /* \"contracts/medic.sol\":1401:1607  function upDoc(address pAdd, string memory hash, string memory docD) public{... */\n    tag_40:\n        /* \"contracts/medic.sol\":1495:1503  hosAdmin */\n      0x01\n        /* \"contracts/medic.sol\":1495:1515  hosAdmin[msg.sender] */\n      0x00\n        /* \"contracts/medic.sol\":1504:1514  msg.sender */\n      caller\n        /* \"contracts/medic.sol\":1495:1515  hosAdmin[msg.sender] */\n      0xffffffffffffffffffffffffffffffffffffffff\n      and\n      0xffffffffffffffffffffffffffffffffffffffff\n      and\n      dup2\n      mstore\n      0x20\n      add\n      swap1\n      dup2\n      mstore\n      0x20\n      add\n      0x00\n      keccak256\n      0x00\n      swap1\n      sload\n      swap1\n      0x0100\n      exp\n      swap1\n      div\n      0xff\n      and\n        /* \"contracts/medic.sol\":1487:1516  require(hosAdmin[msg.sender]) */\n      tag_114\n      jumpi\n      0x00\n      dup1\n      revert\n    tag_114:\n        /* \"contracts/medic.sol\":1527:1535  patients */\n      0x02\n        /* \"contracts/medic.sol\":1527:1541  patients[pAdd] */\n      0x00\n        /* \"contracts/medic.sol\":1536:1540  pAdd */\n      dup5\n        /* \"contracts/medic.sol\":1527:1541  patients[pAdd] */\n      0xffffffffffffffffffffffffffffffffffffffff\n      and\n      0xffffffffffffffffffffffffffffffffffffffff\n      and\n      dup2\n      mstore\n      0x20\n      add\n      swap1\n      dup2\n      mstore\n      0x20\n      add\n      0x00\n      keccak256\n        /* \"contracts/medic.sol\":1527:1546  patients[pAdd].docs */\n      0x04\n      add\n        /* \"contracts/medic.sol\":1552:1556  hash */\n      dup3\n        /* \"contracts/medic.sol\":1527:1557  patients[pAdd].docs.push(hash) */\n      swap1\n      dup1\n      0x01\n      dup2\n      sload\n      add\n      dup1\n      dup3\n      sstore\n      dup1\n      swap2\n      pop\n      pop\n      0x01\n      swap1\n      sub\n      swap1\n      0x00\n      mstore\n      keccak256(0x00, 0x20)\n      add\n      0x00\n      swap1\n      swap2\n      swap1\n      swap2\n      swap1\n      swap2\n      pop\n      swap1\n      dup2\n      tag_116\n      swap2\n      swap1\n      tag_112\n      jump\t// in\n    tag_116:\n      pop\n        /* \"contracts/medic.sol\":1568:1576  patients */\n      0x02\n        /* \"contracts/medic.sol\":1568:1582  patients[pAdd] */\n      0x00\n        /* \"contracts/medic.sol\":1577:1581  pAdd */\n      dup5\n        /* \"contracts/medic.sol\":1568:1582  patients[pAdd] */\n      0xffffffffffffffffffffffffffffffffffffffff\n      and\n      0xffffffffffffffffffffffffffffffffffffffff\n      and\n      dup2\n      mstore\n      0x20\n      add\n      swap1\n      dup2\n      mstore\n      0x20\n      add\n      0x00\n      keccak256\n        /* \"contracts/medic.sol\":1568:1588  patients[pAdd].docsD */\n      0x05\n      add\n        /* \"contracts/medic.sol\":1594:1598  docD */\n      dup2\n        /* \"contracts/medic.sol\":1568:1599  patients[pAdd].docsD.push(docD) */\n      swap1\n      dup1\n      0x01\n      dup2\n      sload\n      add\n      dup1\n      dup3\n      sstore\n      dup1\n      swap2\n      pop\n      pop\n      0x01\n      swap1\n      sub\n      swap1\n      0x00\n      mstore\n      keccak256(0x00, 0x20)\n      add\n      0x00\n      swap1\n      swap2\n      swap1\n      swap2\n      swap1\n      swap2\n      pop\n      swap1\n      dup2\n      tag_118\n      swap2\n      swap1\n      tag_112\n      jump\t// in\n    tag_118:\n      pop\n        /* \"contracts/medic.sol\":1401:1607  function upDoc(address pAdd, string memory hash, string memory docD) public{... */\n      pop\n      pop\n      pop\n      jump\t// out\n        /* \"contracts/medic.sol\":1855:1960  function checkPatient(address add) public view returns (bool) {... */\n    tag_43:\n        /* \"contracts/medic.sol\":1911:1915  bool */\n      0x00\n        /* \"contracts/medic.sol\":1935:1947  patientexist */\n      0x03\n        /* \"contracts/medic.sol\":1935:1952  patientexist[add] */\n      0x00\n        /* \"contracts/medic.sol\":1948:1951  add */\n      dup4\n        /* \"contracts/medic.sol\":1935:1952  patientexist[add] */\n      0xffffffffffffffffffffffffffffffffffffffff\n      and\n      0xffffffffffffffffffffffffffffffffffffffff\n      and\n      dup2\n      mstore\n      0x20\n      add\n      swap1\n      dup2\n      mstore\n      0x20\n      add\n      0x00\n      keccak256\n      0x00\n      swap1\n      sload\n      swap1\n      0x0100\n      exp\n      swap1\n      div\n      0xff\n      and\n        /* \"contracts/medic.sol\":1928:1952  return patientexist[add] */\n      swap1\n      pop\n        /* \"contracts/medic.sol\":1855:1960  function checkPatient(address add) public view returns (bool) {... */\n      swap2\n      swap1\n      pop\n      jump\t// out\n        /* \"contracts/medic.sol\":2342:2459  function getHosDetails(address add) public view returns (string memory) {... */\n    tag_47:\n        /* \"contracts/medic.sol\":2399:2412  string memory */\n      0x60\n        /* \"contracts/medic.sol\":2432:2441  hospitals */\n      0x06\n        /* \"contracts/medic.sol\":2432:2446  hospitals[add] */\n      0x00\n        /* \"contracts/medic.sol\":2442:2445  add */\n      dup4\n        /* \"contracts/medic.sol\":2432:2446  hospitals[add] */\n      0xffffffffffffffffffffffffffffffffffffffff\n      and\n      0xffffffffffffffffffffffffffffffffffffffff\n      and\n      dup2\n      mstore\n      0x20\n      add\n      swap1\n      dup2\n      mstore\n      0x20\n      add\n      0x00\n      keccak256\n        /* \"contracts/medic.sol\":2432:2451  hospitals[add].name */\n      0x00\n      add\n        /* \"contracts/medic.sol\":2425:2451  return hospitals[add].name */\n      dup1\n      sload\n      tag_121\n      swap1\n      tag_76\n      jump\t// in\n    tag_121:\n      dup1\n      0x1f\n      add\n      0x20\n      dup1\n      swap2\n      div\n      mul\n      0x20\n      add\n      mload(0x40)\n      swap1\n      dup2\n      add\n      0x40\n      mstore\n      dup1\n      swap3\n      swap2\n      swap1\n      dup2\n      dup2\n      mstore\n      0x20\n      add\n      dup3\n      dup1\n      sload\n      tag_122\n      swap1\n      tag_76\n      jump\t// in\n    tag_122:\n      dup1\n      iszero\n      tag_123\n      jumpi\n      dup1\n      0x1f\n      lt\n      tag_124\n      jumpi\n      0x0100\n      dup1\n      dup4\n      sload\n      div\n      mul\n      dup4\n      mstore\n      swap2\n      0x20\n      add\n      swap2\n      jump(tag_123)\n    tag_124:\n      dup3\n      add\n      swap2\n      swap1\n      0x00\n      mstore\n      keccak256(0x00, 0x20)\n      swap1\n    tag_125:\n      dup2\n      sload\n      dup2\n      mstore\n      swap1\n      0x01\n      add\n      swap1\n      0x20\n      add\n      dup1\n      dup4\n      gt\n      tag_125\n      jumpi\n      dup3\n      swap1\n      sub\n      0x1f\n      and\n      dup3\n      add\n      swap2\n    tag_123:\n      pop\n      pop\n      pop\n      pop\n      pop\n      swap1\n      pop\n        /* \"contracts/medic.sol\":2342:2459  function getHosDetails(address add) public view returns (string memory) {... */\n      swap2\n      swap1\n      pop\n      jump\t// out\n        /* \"contracts/medic.sol\":443:487  mapping(address => bool) public patientexist */\n    tag_52:\n      mstore(0x20, 0x03)\n      dup1\n      0x00\n      mstore\n      keccak256(0x00, 0x40)\n      0x00\n      swap2\n      pop\n      sload\n      swap1\n      0x0100\n      exp\n      swap1\n      div\n      0xff\n      and\n      dup2\n      jump\t// out\n        /* \"contracts/medic.sol\":1750:1849  function checkAdmin(address add) public view returns (bool) {... */\n    tag_56:\n        /* \"contracts/medic.sol\":1804:1808  bool */\n      0x00\n        /* \"contracts/medic.sol\":1828:1836  hosAdmin */\n      0x01\n        /* \"contracts/medic.sol\":1828:1841  hosAdmin[add] */\n      0x00\n        /* \"contracts/medic.sol\":1837:1840  add */\n      dup4\n        /* \"contracts/medic.sol\":1828:1841  hosAdmin[add] */\n      0xffffffffffffffffffffffffffffffffffffffff\n      and\n      0xffffffffffffffffffffffffffffffffffffffff\n      and\n      dup2\n      mstore\n      0x20\n      add\n      swap1\n      dup2\n      mstore\n      0x20\n      add\n      0x00\n      keccak256\n      0x00\n      swap1\n      sload\n      swap1\n      0x0100\n      exp\n      swap1\n      div\n      0xff\n      and\n        /* \"contracts/medic.sol\":1821:1841  return hosAdmin[add] */\n      swap1\n      pop\n        /* \"contracts/medic.sol\":1750:1849  function checkAdmin(address add) public view returns (bool) {... */\n      swap2\n      swap1\n      pop\n      jump\t// out\n        /* \"contracts/medic.sol\":932:1389  function newPatient(string memory n,string memory a, string memory d, string memory s) public{... */\n    tag_61:\n        /* \"contracts/medic.sol\":1066:1071  false */\n      0x00\n        /* \"contracts/medic.sol\":1044:1071  hosAdmin[msg.sender]==false */\n      iszero\n      iszero\n        /* \"contracts/medic.sol\":1044:1052  hosAdmin */\n      0x01\n        /* \"contracts/medic.sol\":1044:1064  hosAdmin[msg.sender] */\n      0x00\n        /* \"contracts/medic.sol\":1053:1063  msg.sender */\n      caller\n        /* \"contracts/medic.sol\":1044:1064  hosAdmin[msg.sender] */\n      0xffffffffffffffffffffffffffffffffffffffff\n      and\n      0xffffffffffffffffffffffffffffffffffffffff\n      and\n      dup2\n      mstore\n      0x20\n      add\n      swap1\n      dup2\n      mstore\n      0x20\n      add\n      0x00\n      keccak256\n      0x00\n      swap1\n      sload\n      swap1\n      0x0100\n      exp\n      swap1\n      div\n      0xff\n      and\n        /* \"contracts/medic.sol\":1044:1071  hosAdmin[msg.sender]==false */\n      iszero\n      iszero\n      eq\n        /* \"contracts/medic.sol\":1036:1072  require(hosAdmin[msg.sender]==false) */\n      tag_128\n      jumpi\n      0x00\n      dup1\n      revert\n    tag_128:\n        /* \"contracts/medic.sol\":1117:1122  false */\n      0x00\n        /* \"contracts/medic.sol\":1091:1122  patientexist[msg.sender]==false */\n      iszero\n      iszero\n        /* \"contracts/medic.sol\":1091:1103  patientexist */\n      0x03\n        /* \"contracts/medic.sol\":1091:1115  patientexist[msg.sender] */\n      0x00\n        /* \"contracts/medic.sol\":1104:1114  msg.sender */\n      caller\n        /* \"contracts/medic.sol\":1091:1115  patientexist[msg.sender] */\n      0xffffffffffffffffffffffffffffffffffffffff\n      and\n      0xffffffffffffffffffffffffffffffffffffffff\n      and\n      dup2\n      mstore\n      0x20\n      add\n      swap1\n      dup2\n      mstore\n      0x20\n      add\n      0x00\n      keccak256\n      0x00\n      swap1\n      sload\n      swap1\n      0x0100\n      exp\n      swap1\n      div\n      0xff\n      and\n        /* \"contracts/medic.sol\":1091:1122  patientexist[msg.sender]==false */\n      iszero\n      iszero\n      eq\n        /* \"contracts/medic.sol\":1083:1123  require(patientexist[msg.sender]==false) */\n      tag_129\n      jumpi\n      0x00\n      dup1\n      revert\n    tag_129:\n        /* \"contracts/medic.sol\":1160:1161  n */\n      dup4\n        /* \"contracts/medic.sol\":1134:1142  patients */\n      0x02\n        /* \"contracts/medic.sol\":1134:1154  patients[msg.sender] */\n      0x00\n        /* \"contracts/medic.sol\":1143:1153  msg.sender */\n      caller\n        /* \"contracts/medic.sol\":1134:1154  patients[msg.sender] */\n      0xffffffffffffffffffffffffffffffffffffffff\n      and\n      0xffffffffffffffffffffffffffffffffffffffff\n      and\n      dup2\n      mstore\n      0x20\n      add\n      swap1\n      dup2\n      mstore\n      0x20\n      add\n      0x00\n      keccak256\n        /* \"contracts/medic.sol\":1134:1159  patients[msg.sender].name */\n      0x00\n      add\n        /* \"contracts/medic.sol\":1134:1161  patients[msg.sender].name=n */\n      swap1\n      dup2\n      tag_130\n      swap2\n      swap1\n      tag_112\n      jump\t// in\n    tag_130:\n      pop\n        /* \"contracts/medic.sol\":1200:1201  a */\n      dup3\n        /* \"contracts/medic.sol\":1172:1180  patients */\n      0x02\n        /* \"contracts/medic.sol\":1172:1192  patients[msg.sender] */\n      0x00\n        /* \"contracts/medic.sol\":1181:1191  msg.sender */\n      caller\n        /* \"contracts/medic.sol\":1172:1192  patients[msg.sender] */\n      0xffffffffffffffffffffffffffffffffffffffff\n      and\n      0xffffffffffffffffffffffffffffffffffffffff\n      and\n      dup2\n      mstore\n      0x20\n      add\n      swap1\n      dup2\n      mstore\n      0x20\n      add\n      0x00\n      keccak256\n        /* \"contracts/medic.sol\":1172:1199  patients[msg.sender].aadhar */\n      0x01\n      add\n        /* \"contracts/medic.sol\":1172:1201  patients[msg.sender].aadhar=a */\n      swap1\n      dup2\n      tag_131\n      swap2\n      swap1\n      tag_112\n      jump\t// in\n    tag_131:\n      pop\n        /* \"contracts/medic.sol\":1239:1240  d */\n      dup2\n        /* \"contracts/medic.sol\":1212:1220  patients */\n      0x02\n        /* \"contracts/medic.sol\":1212:1232  patients[msg.sender] */\n      0x00\n        /* \"contracts/medic.sol\":1221:1231  msg.sender */\n      caller\n        /* \"contracts/medic.sol\":1212:1232  patients[msg.sender] */\n      0xffffffffffffffffffffffffffffffffffffffff\n      and\n      0xffffffffffffffffffffffffffffffffffffffff\n      and\n      dup2\n      mstore\n      0x20\n      add\n      swap1\n      dup2\n      mstore\n      0x20\n      add\n      0x00\n      keccak256\n        /* \"contracts/medic.sol\":1212:1236  patients[msg.sender].dob */\n      0x02\n      add\n        /* \"contracts/medic.sol\":1212:1240  patients[msg.sender].dob = d */\n      swap1\n      dup2\n      tag_132\n      swap2\n      swap1\n      tag_112\n      jump\t// in\n    tag_132:\n      pop\n        /* \"contracts/medic.sol\":1278:1279  s */\n      dup1\n        /* \"contracts/medic.sol\":1251:1259  patients */\n      0x02\n        /* \"contracts/medic.sol\":1251:1271  patients[msg.sender] */\n      0x00\n        /* \"contracts/medic.sol\":1260:1270  msg.sender */\n      caller\n        /* \"contracts/medic.sol\":1251:1271  patients[msg.sender] */\n      0xffffffffffffffffffffffffffffffffffffffff\n      and\n      0xffffffffffffffffffffffffffffffffffffffff\n      and\n      dup2\n      mstore\n      0x20\n      add\n      swap1\n      dup2\n      mstore\n      0x20\n      add\n      0x00\n      keccak256\n        /* \"contracts/medic.sol\":1251:1275  patients[msg.sender].sex */\n      0x03\n      add\n        /* \"contracts/medic.sol\":1251:1279  patients[msg.sender].sex = s */\n      swap1\n      dup2\n      tag_133\n      swap2\n      swap1\n      tag_112\n      jump\t// in\n    tag_133:\n      pop\n        /* \"contracts/medic.sol\":1290:1297  patList */\n      0x04\n        /* \"contracts/medic.sol\":1303:1313  msg.sender */\n      caller\n        /* \"contracts/medic.sol\":1290:1314  patList.push(msg.sender) */\n      swap1\n      dup1\n      0x01\n      dup2\n      sload\n      add\n      dup1\n      dup3\n      sstore\n      dup1\n      swap2\n      pop\n      pop\n      0x01\n      swap1\n      sub\n      swap1\n      0x00\n      mstore\n      keccak256(0x00, 0x20)\n      add\n      0x00\n      swap1\n      swap2\n      swap1\n      swap2\n      swap1\n      swap2\n      0x0100\n      exp\n      dup2\n      sload\n      dup2\n      0xffffffffffffffffffffffffffffffffffffffff\n      mul\n      not\n      and\n      swap1\n      dup4\n      0xffffffffffffffffffffffffffffffffffffffff\n      and\n      mul\n      or\n      swap1\n      sstore\n      pop\n        /* \"contracts/medic.sol\":1350:1354  true */\n      0x01\n        /* \"contracts/medic.sol\":1325:1337  patientexist */\n      0x03\n        /* \"contracts/medic.sol\":1325:1349  patientexist[msg.sender] */\n      0x00\n        /* \"contracts/medic.sol\":1338:1348  msg.sender */\n      caller\n        /* \"contracts/medic.sol\":1325:1349  patientexist[msg.sender] */\n      0xffffffffffffffffffffffffffffffffffffffff\n      and\n      0xffffffffffffffffffffffffffffffffffffffff\n      and\n      dup2\n      mstore\n      0x20\n      add\n      swap1\n      dup2\n      mstore\n      0x20\n      add\n      0x00\n      keccak256\n      0x00\n        /* \"contracts/medic.sol\":1325:1354  patientexist[msg.sender]=true */\n      0x0100\n      exp\n      dup2\n      sload\n      dup2\n      0xff\n      mul\n      not\n      and\n      swap1\n      dup4\n      iszero\n      iszero\n      mul\n      or\n      swap1\n      sstore\n      pop\n        /* \"contracts/medic.sol\":1365:1373  patNList */\n      0x05\n        /* \"contracts/medic.sol\":1379:1380  n */\n      dup5\n        /* \"contracts/medic.sol\":1365:1381  patNList.push(n) */\n      swap1\n      dup1\n      0x01\n      dup2\n      sload\n      add\n      dup1\n      dup3\n      sstore\n      dup1\n      swap2\n      pop\n      pop\n      0x01\n      swap1\n      sub\n      swap1\n      0x00\n      mstore\n      keccak256(0x00, 0x20)\n      add\n      0x00\n      swap1\n      swap2\n      swap1\n      swap2\n      swap1\n      swap2\n      pop\n      swap1\n      dup2\n      tag_136\n      swap2\n      swap1\n      tag_112\n      jump\t// in\n    tag_136:\n      pop\n        /* \"contracts/medic.sol\":932:1389  function newPatient(string memory n,string memory a, string memory d, string memory s) public{... */\n      pop\n      pop\n      pop\n      pop\n      jump\t// out\n        /* \"contracts/medic.sol\":1968:2334  function getPatientDetails(address add) public view returns (string memory,string memory, string memory, string memory, string[] memory, string[] memory) {... */\n    tag_64:\n        /* \"contracts/medic.sol\":2029:2042  string memory */\n      0x60\n        /* \"contracts/medic.sol\":2043:2056  string memory */\n      dup1\n        /* \"contracts/medic.sol\":2058:2071  string memory */\n      0x60\n        /* \"contracts/medic.sol\":2073:2086  string memory */\n      dup1\n        /* \"contracts/medic.sol\":2088:2103  string[] memory */\n      0x60\n        /* \"contracts/medic.sol\":2105:2120  string[] memory */\n      dup1\n        /* \"contracts/medic.sol\":2141:2149  patients */\n      0x02\n        /* \"contracts/medic.sol\":2141:2154  patients[add] */\n      0x00\n        /* \"contracts/medic.sol\":2150:2153  add */\n      dup9\n        /* \"contracts/medic.sol\":2141:2154  patients[add] */\n      0xffffffffffffffffffffffffffffffffffffffff\n      and\n      0xffffffffffffffffffffffffffffffffffffffff\n      and\n      dup2\n      mstore\n      0x20\n      add\n      swap1\n      dup2\n      mstore\n      0x20\n      add\n      0x00\n      keccak256\n        /* \"contracts/medic.sol\":2141:2159  patients[add].name */\n      0x00\n      add\n        /* \"contracts/medic.sol\":2174:2182  patients */\n      0x02\n        /* \"contracts/medic.sol\":2174:2187  patients[add] */\n      0x00\n        /* \"contracts/medic.sol\":2183:2186  add */\n      dup10\n        /* \"contracts/medic.sol\":2174:2187  patients[add] */\n      0xffffffffffffffffffffffffffffffffffffffff\n      and\n      0xffffffffffffffffffffffffffffffffffffffff\n      and\n      dup2\n      mstore\n      0x20\n      add\n      swap1\n      dup2\n      mstore\n      0x20\n      add\n      0x00\n      keccak256\n        /* \"contracts/medic.sol\":2174:2194  patients[add].aadhar */\n      0x01\n      add\n        /* \"contracts/medic.sol\":2209:2217  patients */\n      0x02\n        /* \"contracts/medic.sol\":2209:2222  patients[add] */\n      0x00\n        /* \"contracts/medic.sol\":2218:2221  add */\n      dup11\n        /* \"contracts/medic.sol\":2209:2222  patients[add] */\n      0xffffffffffffffffffffffffffffffffffffffff\n      and\n      0xffffffffffffffffffffffffffffffffffffffff\n      and\n      dup2\n      mstore\n      0x20\n      add\n      swap1\n      dup2\n      mstore\n      0x20\n      add\n      0x00\n      keccak256\n        /* \"contracts/medic.sol\":2209:2226  patients[add].dob */\n      0x02\n      add\n        /* \"contracts/medic.sol\":2241:2249  patients */\n      0x02\n        /* \"contracts/medic.sol\":2241:2254  patients[add] */\n      0x00\n        /* \"contracts/medic.sol\":2250:2253  add */\n      dup12\n        /* \"contracts/medic.sol\":2241:2254  patients[add] */\n      0xffffffffffffffffffffffffffffffffffffffff\n      and\n      0xffffffffffffffffffffffffffffffffffffffff\n      and\n      dup2\n      mstore\n      0x20\n      add\n      swap1\n      dup2\n      mstore\n      0x20\n      add\n      0x00\n      keccak256\n        /* \"contracts/medic.sol\":2241:2258  patients[add].sex */\n      0x03\n      add\n        /* \"contracts/medic.sol\":2273:2281  patients */\n      0x02\n        /* \"contracts/medic.sol\":2273:2286  patients[add] */\n      0x00\n        /* \"contracts/medic.sol\":2282:2285  add */\n      dup13\n        /* \"contracts/medic.sol\":2273:2286  patients[add] */\n      0xffffffffffffffffffffffffffffffffffffffff\n      and\n      0xffffffffffffffffffffffffffffffffffffffff\n      and\n      dup2\n      mstore\n      0x20\n      add\n      swap1\n      dup2\n      mstore\n      0x20\n      add\n      0x00\n      keccak256\n        /* \"contracts/medic.sol\":2273:2291  patients[add].docs */\n      0x04\n      add\n        /* \"contracts/medic.sol\":2306:2314  patients */\n      0x02\n        /* \"contracts/medic.sol\":2306:2319  patients[add] */\n      0x00\n        /* \"contracts/medic.sol\":2315:2318  add */\n      dup14\n        /* \"contracts/medic.sol\":2306:2319  patients[add] */\n      0xffffffffffffffffffffffffffffffffffffffff\n      and\n      0xffffffffffffffffffffffffffffffffffffffff\n      and\n      dup2\n      mstore\n      0x20\n      add\n      swap1\n      dup2\n      mstore\n      0x20\n      add\n      0x00\n      keccak256\n        /* \"contracts/medic.sol\":2306:2325  patients[add].docsD */\n      0x05\n      add\n        /* \"contracts/medic.sol\":2133:2326  return (patients[add].name,... */\n      dup6\n      dup1\n      sload\n      tag_138\n      swap1\n      tag_76\n      jump\t// in\n    tag_138:\n      dup1\n      0x1f\n      add\n      0x20\n      dup1\n      swap2\n      div\n      mul\n      0x20\n      add\n      mload(0x40)\n      swap1\n      dup2\n      add\n      0x40\n      mstore\n      dup1\n      swap3\n      swap2\n      swap1\n      dup2\n      dup2\n      mstore\n      0x20\n      add\n      dup3\n      dup1\n      sload\n      tag_139\n      swap1\n      tag_76\n      jump\t// in\n    tag_139:\n      dup1\n      iszero\n      tag_140\n      jumpi\n      dup1\n      0x1f\n      lt\n      tag_141\n      jumpi\n      0x0100\n      dup1\n      dup4\n      sload\n      div\n      mul\n      dup4\n      mstore\n      swap2\n      0x20\n      add\n      swap2\n      jump(tag_140)\n    tag_141:\n      dup3\n      add\n      swap2\n      swap1\n      0x00\n      mstore\n      keccak256(0x00, 0x20)\n      swap1\n    tag_142:\n      dup2\n      sload\n      dup2\n      mstore\n      swap1\n      0x01\n      add\n      swap1\n      0x20\n      add\n      dup1\n      dup4\n      gt\n      tag_142\n      jumpi\n      dup3\n      swap1\n      sub\n      0x1f\n      and\n      dup3\n      add\n      swap2\n    tag_140:\n      pop\n      pop\n      pop\n      pop\n      pop\n      swap6\n      pop\n      dup5\n      dup1\n      sload\n      tag_143\n      swap1\n      tag_76\n      jump\t// in\n    tag_143:\n      dup1\n      0x1f\n      add\n      0x20\n      dup1\n      swap2\n      div\n      mul\n      0x20\n      add\n      mload(0x40)\n      swap1\n      dup2\n      add\n      0x40\n      mstore\n      dup1\n      swap3\n      swap2\n      swap1\n      dup2\n      dup2\n      mstore\n      0x20\n      add\n      dup3\n      dup1\n      sload\n      tag_144\n      swap1\n      tag_76\n      jump\t// in\n    tag_144:\n      dup1\n      iszero\n      tag_145\n      jumpi\n      dup1\n      0x1f\n      lt\n      tag_146\n      jumpi\n      0x0100\n      dup1\n      dup4\n      sload\n      div\n      mul\n      dup4\n      mstore\n      swap2\n      0x20\n      add\n      swap2\n      jump(tag_145)\n    tag_146:\n      dup3\n      add\n      swap2\n      swap1\n      0x00\n      mstore\n      keccak256(0x00, 0x20)\n      swap1\n    tag_147:\n      dup2\n      sload\n      dup2\n      mstore\n      swap1\n      0x01\n      add\n      swap1\n      0x20\n      add\n      dup1\n      dup4\n      gt\n      tag_147\n      jumpi\n      dup3\n      swap1\n      sub\n      0x1f\n      and\n      dup3\n      add\n      swap2\n    tag_145:\n      pop\n      pop\n      pop\n      pop\n      pop\n      swap5\n      pop\n      dup4\n      dup1\n      sload\n      tag_148\n      swap1\n      tag_76\n      jump\t// in\n    tag_148:\n      dup1\n      0x1f\n      add\n      0x20\n      dup1\n      swap2\n      div\n      mul\n      0x20\n      add\n      mload(0x40)\n      swap1\n      dup2\n      add\n      0x40\n      mstore\n      dup1\n      swap3\n      swap2\n      swap1\n      dup2\n      dup2\n      mstore\n      0x20\n      add\n      dup3\n      dup1\n      sload\n      tag_149\n      swap1\n      tag_76\n      jump\t// in\n    tag_149:\n      dup1\n      iszero\n      tag_150\n      jumpi\n      dup1\n      0x1f\n      lt\n      tag_151\n      jumpi\n      0x0100\n      dup1\n      dup4\n      sload\n      div\n      mul\n      dup4\n      mstore\n      swap2\n      0x20\n      add\n      swap2\n      jump(tag_150)\n    tag_151:\n      dup3\n      add\n      swap2\n      swap1\n      0x00\n      mstore\n      keccak256(0x00, 0x20)\n      swap1\n    tag_152:\n      dup2\n      sload\n      dup2\n      mstore\n      swap1\n      0x01\n      add\n      swap1\n      0x20\n      add\n      dup1\n      dup4\n      gt\n      tag_152\n      jumpi\n      dup3\n      swap1\n      sub\n      0x1f\n      and\n      dup3\n      add\n      swap2\n    tag_150:\n      pop\n      pop\n      pop\n      pop\n      pop\n      swap4\n      pop\n      dup3\n      dup1\n      sload\n      tag_153\n      swap1\n      tag_76\n      jump\t// in\n    tag_153:\n      dup1\n      0x1f\n      add\n      0x20\n      dup1\n      swap2\n      div\n      mul\n      0x20\n      add\n      mload(0x40)\n      swap1\n      dup2\n      add\n      0x40\n      mstore\n      dup1\n      swap3\n      swap2\n      swap1\n      dup2\n      dup2\n      mstore\n      0x20\n      add\n      dup3\n      dup1\n      sload\n      tag_154\n      swap1\n      tag_76\n      jump\t// in\n    tag_154:\n      dup1\n      iszero\n      tag_155\n      jumpi\n      dup1\n      0x1f\n      lt\n      tag_156\n      jumpi\n      0x0100\n      dup1\n      dup4\n      sload\n      div\n      mul\n      dup4\n      mstore\n      swap2\n      0x20\n      add\n      swap2\n      jump(tag_155)\n    tag_156:\n      dup3\n      add\n      swap2\n      swap1\n      0x00\n      mstore\n      keccak256(0x00, 0x20)\n      swap1\n    tag_157:\n      dup2\n      sload\n      dup2\n      mstore\n      swap1\n      0x01\n      add\n      swap1\n      0x20\n      add\n      dup1\n      dup4\n      gt\n      tag_157\n      jumpi\n      dup3\n      swap1\n      sub\n      0x1f\n      and\n      dup3\n      add\n      swap2\n    tag_155:\n      pop\n      pop\n      pop\n      pop\n      pop\n      swap3\n      pop\n      dup2\n      dup1\n      sload\n      dup1\n      0x20\n      mul\n      0x20\n      add\n      mload(0x40)\n      swap1\n      dup2\n      add\n      0x40\n      mstore\n      dup1\n      swap3\n      swap2\n      swap1\n      dup2\n      dup2\n      mstore\n      0x20\n      add\n      0x00\n      swap1\n    tag_158:\n      dup3\n      dup3\n      lt\n      iszero\n      tag_159\n      jumpi\n      dup4\n      dup3\n      swap1\n      0x00\n      mstore\n      keccak256(0x00, 0x20)\n      add\n      dup1\n      sload\n      tag_161\n      swap1\n      tag_76\n      jump\t// in\n    tag_161:\n      dup1\n      0x1f\n      add\n      0x20\n      dup1\n      swap2\n      div\n      mul\n      0x20\n      add\n      mload(0x40)\n      swap1\n      dup2\n      add\n      0x40\n      mstore\n      dup1\n      swap3\n      swap2\n      swap1\n      dup2\n      dup2\n      mstore\n      0x20\n      add\n      dup3\n      dup1\n      sload\n      tag_162\n      swap1\n      tag_76\n      jump\t// in\n    tag_162:\n      dup1\n      iszero\n      tag_163\n      jumpi\n      dup1\n      0x1f\n      lt\n      tag_164\n      jumpi\n      0x0100\n      dup1\n      dup4\n      sload\n      div\n      mul\n      dup4\n      mstore\n      swap2\n      0x20\n      add\n      swap2\n      jump(tag_163)\n    tag_164:\n      dup3\n      add\n      swap2\n      swap1\n      0x00\n      mstore\n      keccak256(0x00, 0x20)\n      swap1\n    tag_165:\n      dup2\n      sload\n      dup2\n      mstore\n      swap1\n      0x01\n      add\n      swap1\n      0x20\n      add\n      dup1\n      dup4\n      gt\n      tag_165\n      jumpi\n      dup3\n      swap1\n      sub\n      0x1f\n      and\n      dup3\n      add\n      swap2\n    tag_163:\n      pop\n      pop\n      pop\n      pop\n      pop\n      dup2\n      mstore\n      0x20\n      add\n      swap1\n      0x01\n      add\n      swap1\n      jump(tag_158)\n    tag_159:\n      pop\n      pop\n      pop\n      pop\n      swap2\n      pop\n      dup1\n      dup1\n      sload\n      dup1\n      0x20\n      mul\n      0x20\n      add\n      mload(0x40)\n      swap1\n      dup2\n      add\n      0x40\n      mstore\n      dup1\n      swap3\n      swap2\n      swap1\n      dup2\n      dup2\n      mstore\n      0x20\n      add\n      0x00\n      swap1\n    tag_166:\n      dup3\n      dup3\n      lt\n      iszero\n      tag_167\n      jumpi\n      dup4\n      dup3\n      swap1\n      0x00\n      mstore\n      keccak256(0x00, 0x20)\n      add\n      dup1\n      sload\n      tag_169\n      swap1\n      tag_76\n      jump\t// in\n    tag_169:\n      dup1\n      0x1f\n      add\n      0x20\n      dup1\n      swap2\n      div\n      mul\n      0x20\n      add\n      mload(0x40)\n      swap1\n      dup2\n      add\n      0x40\n      mstore\n      dup1\n      swap3\n      swap2\n      swap1\n      dup2\n      dup2\n      mstore\n      0x20\n      add\n      dup3\n      dup1\n      sload\n      tag_170\n      swap1\n      tag_76\n      jump\t// in\n    tag_170:\n      dup1\n      iszero\n      tag_171\n      jumpi\n      dup1\n      0x1f\n      lt\n      tag_172\n      jumpi\n      0x0100\n      dup1\n      dup4\n      sload\n      div\n      mul\n      dup4\n      mstore\n      swap2\n      0x20\n      add\n      swap2\n      jump(tag_171)\n    tag_172:\n      dup3\n      add\n      swap2\n      swap1\n      0x00\n      mstore\n      keccak256(0x00, 0x20)\n      swap1\n    tag_173:\n      dup2\n      sload\n      dup2\n      mstore\n      swap1\n      0x01\n      add\n      swap1\n      0x20\n      add\n      dup1\n      dup4\n      gt\n      tag_173\n      jumpi\n      dup3\n      swap1\n      sub\n      0x1f\n      and\n      dup3\n      add\n      swap2\n    tag_171:\n      pop\n      pop\n      pop\n      pop\n      pop\n      dup2\n      mstore\n      0x20\n      add\n      swap1\n      0x01\n      add\n      swap1\n      jump(tag_166)\n    tag_167:\n      pop\n      pop\n      pop\n      pop\n      swap1\n      pop\n      swap6\n      pop\n      swap6\n      pop\n      swap6\n      pop\n      swap6\n      pop\n      swap6\n      pop\n      swap6\n      pop\n        /* \"contracts/medic.sol\":1968:2334  function getPatientDetails(address add) public view returns (string memory,string memory, string memory, string memory, string[] memory, string[] memory) {... */\n      swap2\n      swap4\n      swap6\n      pop\n      swap2\n      swap4\n      swap6\n      jump\t// out\n        /* \"contracts/medic.sol\":599:644  mapping(address => Hospital) public hospitals */\n    tag_69:\n      mstore(0x20, 0x06)\n      dup1\n      0x00\n      mstore\n      keccak256(0x00, 0x40)\n      0x00\n      swap2\n      pop\n      swap1\n      pop\n      dup1\n      0x00\n      add\n      dup1\n      sload\n      tag_174\n      swap1\n      tag_76\n      jump\t// in\n    tag_174:\n      dup1\n      0x1f\n      add\n      0x20\n      dup1\n      swap2\n      div\n      mul\n      0x20\n      add\n      mload(0x40)\n      swap1\n      dup2\n      add\n      0x40\n      mstore\n      dup1\n      swap3\n      swap2\n      swap1\n      dup2\n      dup2\n      mstore\n      0x20\n      add\n      dup3\n      dup1\n      sload\n      tag_175\n      swap1\n      tag_76\n      jump\t// in\n    tag_175:\n      dup1\n      iszero\n      tag_176\n      jumpi\n      dup1\n      0x1f\n      lt\n      tag_177\n      jumpi\n      0x0100\n      dup1\n      dup4\n      sload\n      div\n      mul\n      dup4\n      mstore\n      swap2\n      0x20\n      add\n      swap2\n      jump(tag_176)\n    tag_177:\n      dup3\n      add\n      swap2\n      swap1\n      0x00\n      mstore\n      keccak256(0x00, 0x20)\n      swap1\n    tag_178:\n      dup2\n      sload\n      dup2\n      mstore\n      swap1\n      0x01\n      add\n      swap1\n      0x20\n      add\n      dup1\n      dup4\n      gt\n      tag_178\n      jumpi\n      dup3\n      swap1\n      sub\n      0x1f\n      and\n      dup3\n      add\n      swap2\n    tag_176:\n      pop\n      pop\n      pop\n      pop\n      pop\n      swap1\n      pop\n      dup2\n      jump\t// out\n        /* \"contracts/medic.sol\":90:110  address public admin */\n    tag_72:\n      0x00\n      dup1\n      sload\n      swap1\n      0x0100\n      exp\n      swap1\n      div\n      0xffffffffffffffffffffffffffffffffffffffff\n      and\n      dup2\n      jump\t// out\n        /* \"#utility.yul\":7:82   */\n    tag_179:\n        /* \"#utility.yul\":40:46   */\n      0x00\n        /* \"#utility.yul\":73:75   */\n      0x40\n        /* \"#utility.yul\":67:76   */\n      mload\n        /* \"#utility.yul\":57:76   */\n      swap1\n      pop\n        /* \"#utility.yul\":7:82   */\n      swap1\n      jump\t// out\n        /* \"#utility.yul\":88:205   */\n    tag_180:\n        /* \"#utility.yul\":197:198   */\n      0x00\n        /* \"#utility.yul\":194:195   */\n      dup1\n        /* \"#utility.yul\":187:199   */\n      revert\n        /* \"#utility.yul\":211:328   */\n    tag_181:\n        /* \"#utility.yul\":320:321   */\n      0x00\n        /* \"#utility.yul\":317:318   */\n      dup1\n        /* \"#utility.yul\":310:322   */\n      revert\n        /* \"#utility.yul\":334:460   */\n    tag_182:\n        /* \"#utility.yul\":371:378   */\n      0x00\n        /* \"#utility.yul\":411:453   */\n      0xffffffffffffffffffffffffffffffffffffffff\n        /* \"#utility.yul\":404:409   */\n      dup3\n        /* \"#utility.yul\":400:454   */\n      and\n        /* \"#utility.yul\":389:454   */\n      swap1\n      pop\n        /* \"#utility.yul\":334:460   */\n      swap2\n      swap1\n      pop\n      jump\t// out\n        /* \"#utility.yul\":466:562   */\n    tag_183:\n        /* \"#utility.yul\":503:510   */\n      0x00\n        /* \"#utility.yul\":532:556   */\n      tag_241\n        /* \"#utility.yul\":550:555   */\n      dup3\n        /* \"#utility.yul\":532:556   */\n      tag_182\n      jump\t// in\n    tag_241:\n        /* \"#utility.yul\":521:556   */\n      swap1\n      pop\n        /* \"#utility.yul\":466:562   */\n      swap2\n      swap1\n      pop\n      jump\t// out\n        /* \"#utility.yul\":568:690   */\n    tag_184:\n        /* \"#utility.yul\":641:665   */\n      tag_243\n        /* \"#utility.yul\":659:664   */\n      dup2\n        /* \"#utility.yul\":641:665   */\n      tag_183\n      jump\t// in\n    tag_243:\n        /* \"#utility.yul\":634:639   */\n      dup2\n        /* \"#utility.yul\":631:666   */\n      eq\n        /* \"#utility.yul\":621:684   */\n      tag_244\n      jumpi\n        /* \"#utility.yul\":680:681   */\n      0x00\n        /* \"#utility.yul\":677:678   */\n      dup1\n        /* \"#utility.yul\":670:682   */\n      revert\n        /* \"#utility.yul\":621:684   */\n    tag_244:\n        /* \"#utility.yul\":568:690   */\n      pop\n      jump\t// out\n        /* \"#utility.yul\":696:835   */\n    tag_185:\n        /* \"#utility.yul\":742:747   */\n      0x00\n        /* \"#utility.yul\":780:786   */\n      dup2\n        /* \"#utility.yul\":767:787   */\n      calldataload\n        /* \"#utility.yul\":758:787   */\n      swap1\n      pop\n        /* \"#utility.yul\":796:829   */\n      tag_246\n        /* \"#utility.yul\":823:828   */\n      dup2\n        /* \"#utility.yul\":796:829   */\n      tag_184\n      jump\t// in\n    tag_246:\n        /* \"#utility.yul\":696:835   */\n      swap3\n      swap2\n      pop\n      pop\n      jump\t// out\n        /* \"#utility.yul\":841:1170   */\n    tag_20:\n        /* \"#utility.yul\":900:906   */\n      0x00\n        /* \"#utility.yul\":949:951   */\n      0x20\n        /* \"#utility.yul\":937:946   */\n      dup3\n        /* \"#utility.yul\":928:935   */\n      dup5\n        /* \"#utility.yul\":924:947   */\n      sub\n        /* \"#utility.yul\":920:952   */\n      slt\n        /* \"#utility.yul\":917:1036   */\n      iszero\n      tag_248\n      jumpi\n        /* \"#utility.yul\":955:1034   */\n      tag_249\n      tag_180\n      jump\t// in\n    tag_249:\n        /* \"#utility.yul\":917:1036   */\n    tag_248:\n        /* \"#utility.yul\":1075:1076   */\n      0x00\n        /* \"#utility.yul\":1100:1153   */\n      tag_250\n        /* \"#utility.yul\":1145:1152   */\n      dup5\n        /* \"#utility.yul\":1136:1142   */\n      dup3\n        /* \"#utility.yul\":1125:1134   */\n      dup6\n        /* \"#utility.yul\":1121:1143   */\n      add\n        /* \"#utility.yul\":1100:1153   */\n      tag_185\n      jump\t// in\n    tag_250:\n        /* \"#utility.yul\":1090:1153   */\n      swap2\n      pop\n        /* \"#utility.yul\":1046:1163   */\n      pop\n        /* \"#utility.yul\":841:1170   */\n      swap3\n      swap2\n      pop\n      pop\n      jump\t// out\n        /* \"#utility.yul\":1176:1275   */\n    tag_186:\n        /* \"#utility.yul\":1228:1234   */\n      0x00\n        /* \"#utility.yul\":1262:1267   */\n      dup2\n        /* \"#utility.yul\":1256:1268   */\n      mload\n        /* \"#utility.yul\":1246:1268   */\n      swap1\n      pop\n        /* \"#utility.yul\":1176:1275   */\n      swap2\n      swap1\n      pop\n      jump\t// out\n        /* \"#utility.yul\":1281:1450   */\n    tag_187:\n        /* \"#utility.yul\":1365:1376   */\n      0x00\n        /* \"#utility.yul\":1399:1405   */\n      dup3\n        /* \"#utility.yul\":1394:1397   */\n      dup3\n        /* \"#utility.yul\":1387:1406   */\n      mstore\n        /* \"#utility.yul\":1439:1443   */\n      0x20\n        /* \"#utility.yul\":1434:1437   */\n      dup3\n        /* \"#utility.yul\":1430:1444   */\n      add\n        /* \"#utility.yul\":1415:1444   */\n      swap1\n      pop\n        /* \"#utility.yul\":1281:1450   */\n      swap3\n      swap2\n      pop\n      pop\n      jump\t// out\n        /* \"#utility.yul\":1456:1702   */\n    tag_188:\n        /* \"#utility.yul\":1537:1538   */\n      0x00\n        /* \"#utility.yul\":1547:1660   */\n    tag_254:\n        /* \"#utility.yul\":1561:1567   */\n      dup4\n        /* \"#utility.yul\":1558:1559   */\n      dup2\n        /* \"#utility.yul\":1555:1568   */\n      lt\n        /* \"#utility.yul\":1547:1660   */\n      iszero\n      tag_256\n      jumpi\n        /* \"#utility.yul\":1646:1647   */\n      dup1\n        /* \"#utility.yul\":1641:1644   */\n      dup3\n        /* \"#utility.yul\":1637:1648   */\n      add\n        /* \"#utility.yul\":1631:1649   */\n      mload\n        /* \"#utility.yul\":1627:1628   */\n      dup2\n        /* \"#utility.yul\":1622:1625   */\n      dup5\n        /* \"#utility.yul\":1618:1629   */\n      add\n        /* \"#utility.yul\":1611:1650   */\n      mstore\n        /* \"#utility.yul\":1583:1585   */\n      0x20\n        /* \"#utility.yul\":1580:1581   */\n      dup2\n        /* \"#utility.yul\":1576:1586   */\n      add\n        /* \"#utility.yul\":1571:1586   */\n      swap1\n      pop\n        /* \"#utility.yul\":1547:1660   */\n      jump(tag_254)\n    tag_256:\n        /* \"#utility.yul\":1694:1695   */\n      0x00\n        /* \"#utility.yul\":1685:1691   */\n      dup5\n        /* \"#utility.yul\":1680:1683   */\n      dup5\n        /* \"#utility.yul\":1676:1692   */\n      add\n        /* \"#utility.yul\":1669:1696   */\n      mstore\n        /* \"#utility.yul\":1518:1702   */\n      pop\n        /* \"#utility.yul\":1456:1702   */\n      pop\n      pop\n      pop\n      jump\t// out\n        /* \"#utility.yul\":1708:1810   */\n    tag_189:\n        /* \"#utility.yul\":1749:1755   */\n      0x00\n        /* \"#utility.yul\":1800:1802   */\n      0x1f\n        /* \"#utility.yul\":1796:1803   */\n      not\n        /* \"#utility.yul\":1791:1793   */\n      0x1f\n        /* \"#utility.yul\":1784:1789   */\n      dup4\n        /* \"#utility.yul\":1780:1794   */\n      add\n        /* \"#utility.yul\":1776:1804   */\n      and\n        /* \"#utility.yul\":1766:1804   */\n      swap1\n      pop\n        /* \"#utility.yul\":1708:1810   */\n      swap2\n      swap1\n      pop\n      jump\t// out\n        /* \"#utility.yul\":1816:2193   */\n    tag_190:\n        /* \"#utility.yul\":1904:1907   */\n      0x00\n        /* \"#utility.yul\":1932:1971   */\n      tag_259\n        /* \"#utility.yul\":1965:1970   */\n      dup3\n        /* \"#utility.yul\":1932:1971   */\n      tag_186\n      jump\t// in\n    tag_259:\n        /* \"#utility.yul\":1987:2058   */\n      tag_260\n        /* \"#utility.yul\":2051:2057   */\n      dup2\n        /* \"#utility.yul\":2046:2049   */\n      dup6\n        /* \"#utility.yul\":1987:2058   */\n      tag_187\n      jump\t// in\n    tag_260:\n        /* \"#utility.yul\":1980:2058   */\n      swap4\n      pop\n        /* \"#utility.yul\":2067:2132   */\n      tag_261\n        /* \"#utility.yul\":2125:2131   */\n      dup2\n        /* \"#utility.yul\":2120:2123   */\n      dup6\n        /* \"#utility.yul\":2113:2117   */\n      0x20\n        /* \"#utility.yul\":2106:2111   */\n      dup7\n        /* \"#utility.yul\":2102:2118   */\n      add\n        /* \"#utility.yul\":2067:2132   */\n      tag_188\n      jump\t// in\n    tag_261:\n        /* \"#utility.yul\":2157:2186   */\n      tag_262\n        /* \"#utility.yul\":2179:2185   */\n      dup2\n        /* \"#utility.yul\":2157:2186   */\n      tag_189\n      jump\t// in\n    tag_262:\n        /* \"#utility.yul\":2152:2155   */\n      dup5\n        /* \"#utility.yul\":2148:2187   */\n      add\n        /* \"#utility.yul\":2141:2187   */\n      swap2\n      pop\n        /* \"#utility.yul\":1908:2193   */\n      pop\n        /* \"#utility.yul\":1816:2193   */\n      swap3\n      swap2\n      pop\n      pop\n      jump\t// out\n        /* \"#utility.yul\":2199:3116   */\n    tag_23:\n        /* \"#utility.yul\":2456:2460   */\n      0x00\n        /* \"#utility.yul\":2494:2497   */\n      0x80\n        /* \"#utility.yul\":2483:2492   */\n      dup3\n        /* \"#utility.yul\":2479:2498   */\n      add\n        /* \"#utility.yul\":2471:2498   */\n      swap1\n      pop\n        /* \"#utility.yul\":2544:2553   */\n      dup2\n        /* \"#utility.yul\":2538:2542   */\n      dup2\n        /* \"#utility.yul\":2534:2554   */\n      sub\n        /* \"#utility.yul\":2530:2531   */\n      0x00\n        /* \"#utility.yul\":2519:2528   */\n      dup4\n        /* \"#utility.yul\":2515:2532   */\n      add\n        /* \"#utility.yul\":2508:2555   */\n      mstore\n        /* \"#utility.yul\":2572:2650   */\n      tag_264\n        /* \"#utility.yul\":2645:2649   */\n      dup2\n        /* \"#utility.yul\":2636:2642   */\n      dup8\n        /* \"#utility.yul\":2572:2650   */\n      tag_190\n      jump\t// in\n    tag_264:\n        /* \"#utility.yul\":2564:2650   */\n      swap1\n      pop\n        /* \"#utility.yul\":2697:2706   */\n      dup2\n        /* \"#utility.yul\":2691:2695   */\n      dup2\n        /* \"#utility.yul\":2687:2707   */\n      sub\n        /* \"#utility.yul\":2682:2684   */\n      0x20\n        /* \"#utility.yul\":2671:2680   */\n      dup4\n        /* \"#utility.yul\":2667:2685   */\n      add\n        /* \"#utility.yul\":2660:2708   */\n      mstore\n        /* \"#utility.yul\":2725:2803   */\n      tag_265\n        /* \"#utility.yul\":2798:2802   */\n      dup2\n        /* \"#utility.yul\":2789:2795   */\n      dup7\n        /* \"#utility.yul\":2725:2803   */\n      tag_190\n      jump\t// in\n    tag_265:\n        /* \"#utility.yul\":2717:2803   */\n      swap1\n      pop\n        /* \"#utility.yul\":2850:2859   */\n      dup2\n        /* \"#utility.yul\":2844:2848   */\n      dup2\n        /* \"#utility.yul\":2840:2860   */\n      sub\n        /* \"#utility.yul\":2835:2837   */\n      0x40\n        /* \"#utility.yul\":2824:2833   */\n      dup4\n        /* \"#utility.yul\":2820:2838   */\n      add\n        /* \"#utility.yul\":2813:2861   */\n      mstore\n        /* \"#utility.yul\":2878:2956   */\n      tag_266\n        /* \"#utility.yul\":2951:2955   */\n      dup2\n        /* \"#utility.yul\":2942:2948   */\n      dup6\n        /* \"#utility.yul\":2878:2956   */\n      tag_190\n      jump\t// in\n    tag_266:\n        /* \"#utility.yul\":2870:2956   */\n      swap1\n      pop\n        /* \"#utility.yul\":3003:3012   */\n      dup2\n        /* \"#utility.yul\":2997:3001   */\n      dup2\n        /* \"#utility.yul\":2993:3013   */\n      sub\n        /* \"#utility.yul\":2988:2990   */\n      0x60\n        /* \"#utility.yul\":2977:2986   */\n      dup4\n        /* \"#utility.yul\":2973:2991   */\n      add\n        /* \"#utility.yul\":2966:3014   */\n      mstore\n        /* \"#utility.yul\":3031:3109   */\n      tag_267\n        /* \"#utility.yul\":3104:3108   */\n      dup2\n        /* \"#utility.yul\":3095:3101   */\n      dup5\n        /* \"#utility.yul\":3031:3109   */\n      tag_190\n      jump\t// in\n    tag_267:\n        /* \"#utility.yul\":3023:3109   */\n      swap1\n      pop\n        /* \"#utility.yul\":2199:3116   */\n      swap6\n      swap5\n      pop\n      pop\n      pop\n      pop\n      pop\n      jump\t// out\n        /* \"#utility.yul\":3122:3212   */\n    tag_191:\n        /* \"#utility.yul\":3156:3163   */\n      0x00\n        /* \"#utility.yul\":3199:3204   */\n      dup2\n        /* \"#utility.yul\":3192:3205   */\n      iszero\n        /* \"#utility.yul\":3185:3206   */\n      iszero\n        /* \"#utility.yul\":3174:3206   */\n      swap1\n      pop\n        /* \"#utility.yul\":3122:3212   */\n      swap2\n      swap1\n      pop\n      jump\t// out\n        /* \"#utility.yul\":3218:3327   */\n    tag_192:\n        /* \"#utility.yul\":3299:3320   */\n      tag_270\n        /* \"#utility.yul\":3314:3319   */\n      dup2\n        /* \"#utility.yul\":3299:3320   */\n      tag_191\n      jump\t// in\n    tag_270:\n        /* \"#utility.yul\":3294:3297   */\n      dup3\n        /* \"#utility.yul\":3287:3321   */\n      mstore\n        /* \"#utility.yul\":3218:3327   */\n      pop\n      pop\n      jump\t// out\n        /* \"#utility.yul\":3333:3543   */\n    tag_28:\n        /* \"#utility.yul\":3420:3424   */\n      0x00\n        /* \"#utility.yul\":3458:3460   */\n      0x20\n        /* \"#utility.yul\":3447:3456   */\n      dup3\n        /* \"#utility.yul\":3443:3461   */\n      add\n        /* \"#utility.yul\":3435:3461   */\n      swap1\n      pop\n        /* \"#utility.yul\":3471:3536   */\n      tag_272\n        /* \"#utility.yul\":3533:3534   */\n      0x00\n        /* \"#utility.yul\":3522:3531   */\n      dup4\n        /* \"#utility.yul\":3518:3535   */\n      add\n        /* \"#utility.yul\":3509:3515   */\n      dup5\n        /* \"#utility.yul\":3471:3536   */\n      tag_192\n      jump\t// in\n    tag_272:\n        /* \"#utility.yul\":3333:3543   */\n      swap3\n      swap2\n      pop\n      pop\n      jump\t// out\n        /* \"#utility.yul\":3549:3663   */\n    tag_193:\n        /* \"#utility.yul\":3616:3622   */\n      0x00\n        /* \"#utility.yul\":3650:3655   */\n      dup2\n        /* \"#utility.yul\":3644:3656   */\n      mload\n        /* \"#utility.yul\":3634:3656   */\n      swap1\n      pop\n        /* \"#utility.yul\":3549:3663   */\n      swap2\n      swap1\n      pop\n      jump\t// out\n        /* \"#utility.yul\":3669:3853   */\n    tag_194:\n        /* \"#utility.yul\":3768:3779   */\n      0x00\n        /* \"#utility.yul\":3802:3808   */\n      dup3\n        /* \"#utility.yul\":3797:3800   */\n      dup3\n        /* \"#utility.yul\":3790:3809   */\n      mstore\n        /* \"#utility.yul\":3842:3846   */\n      0x20\n        /* \"#utility.yul\":3837:3840   */\n      dup3\n        /* \"#utility.yul\":3833:3847   */\n      add\n        /* \"#utility.yul\":3818:3847   */\n      swap1\n      pop\n        /* \"#utility.yul\":3669:3853   */\n      swap3\n      swap2\n      pop\n      pop\n      jump\t// out\n        /* \"#utility.yul\":3859:3991   */\n    tag_195:\n        /* \"#utility.yul\":3926:3930   */\n      0x00\n        /* \"#utility.yul\":3949:3952   */\n      dup2\n        /* \"#utility.yul\":3941:3952   */\n      swap1\n      pop\n        /* \"#utility.yul\":3979:3983   */\n      0x20\n        /* \"#utility.yul\":3974:3977   */\n      dup3\n        /* \"#utility.yul\":3970:3984   */\n      add\n        /* \"#utility.yul\":3962:3984   */\n      swap1\n      pop\n        /* \"#utility.yul\":3859:3991   */\n      swap2\n      swap1\n      pop\n      jump\t// out\n        /* \"#utility.yul\":3997:4105   */\n    tag_196:\n        /* \"#utility.yul\":4074:4098   */\n      tag_277\n        /* \"#utility.yul\":4092:4097   */\n      dup2\n        /* \"#utility.yul\":4074:4098   */\n      tag_183\n      jump\t// in\n    tag_277:\n        /* \"#utility.yul\":4069:4072   */\n      dup3\n        /* \"#utility.yul\":4062:4099   */\n      mstore\n        /* \"#utility.yul\":3997:4105   */\n      pop\n      pop\n      jump\t// out\n        /* \"#utility.yul\":4111:4290   */\n    tag_197:\n        /* \"#utility.yul\":4180:4190   */\n      0x00\n        /* \"#utility.yul\":4201:4247   */\n      tag_279\n        /* \"#utility.yul\":4243:4246   */\n      dup4\n        /* \"#utility.yul\":4235:4241   */\n      dup4\n        /* \"#utility.yul\":4201:4247   */\n      tag_196\n      jump\t// in\n    tag_279:\n        /* \"#utility.yul\":4279:4283   */\n      0x20\n        /* \"#utility.yul\":4274:4277   */\n      dup4\n        /* \"#utility.yul\":4270:4284   */\n      add\n        /* \"#utility.yul\":4256:4284   */\n      swap1\n      pop\n        /* \"#utility.yul\":4111:4290   */\n      swap3\n      swap2\n      pop\n      pop\n      jump\t// out\n        /* \"#utility.yul\":4296:4409   */\n    tag_198:\n        /* \"#utility.yul\":4366:4370   */\n      0x00\n        /* \"#utility.yul\":4398:4402   */\n      0x20\n        /* \"#utility.yul\":4393:4396   */\n      dup3\n        /* \"#utility.yul\":4389:4403   */\n      add\n        /* \"#utility.yul\":4381:4403   */\n      swap1\n      pop\n        /* \"#utility.yul\":4296:4409   */\n      swap2\n      swap1\n      pop\n      jump\t// out\n        /* \"#utility.yul\":4445:5177   */\n    tag_199:\n        /* \"#utility.yul\":4564:4567   */\n      0x00\n        /* \"#utility.yul\":4593:4647   */\n      tag_282\n        /* \"#utility.yul\":4641:4646   */\n      dup3\n        /* \"#utility.yul\":4593:4647   */\n      tag_193\n      jump\t// in\n    tag_282:\n        /* \"#utility.yul\":4663:4749   */\n      tag_283\n        /* \"#utility.yul\":4742:4748   */\n      dup2\n        /* \"#utility.yul\":4737:4740   */\n      dup6\n        /* \"#utility.yul\":4663:4749   */\n      tag_194\n      jump\t// in\n    tag_283:\n        /* \"#utility.yul\":4656:4749   */\n      swap4\n      pop\n        /* \"#utility.yul\":4773:4829   */\n      tag_284\n        /* \"#utility.yul\":4823:4828   */\n      dup4\n        /* \"#utility.yul\":4773:4829   */\n      tag_195\n      jump\t// in\n    tag_284:\n        /* \"#utility.yul\":4852:4859   */\n      dup1\n        /* \"#utility.yul\":4883:4884   */\n      0x00\n        /* \"#utility.yul\":4868:5152   */\n    tag_285:\n        /* \"#utility.yul\":4893:4899   */\n      dup4\n        /* \"#utility.yul\":4890:4891   */\n      dup2\n        /* \"#utility.yul\":4887:4900   */\n      lt\n        /* \"#utility.yul\":4868:5152   */\n      iszero\n      tag_287\n      jumpi\n        /* \"#utility.yul\":4969:4975   */\n      dup2\n        /* \"#utility.yul\":4963:4976   */\n      mload\n        /* \"#utility.yul\":4996:5059   */\n      tag_288\n        /* \"#utility.yul\":5055:5058   */\n      dup9\n        /* \"#utility.yul\":5040:5053   */\n      dup3\n        /* \"#utility.yul\":4996:5059   */\n      tag_197\n      jump\t// in\n    tag_288:\n        /* \"#utility.yul\":4989:5059   */\n      swap8\n      pop\n        /* \"#utility.yul\":5082:5142   */\n      tag_289\n        /* \"#utility.yul\":5135:5141   */\n      dup4\n        /* \"#utility.yul\":5082:5142   */\n      tag_198\n      jump\t// in\n    tag_289:\n        /* \"#utility.yul\":5072:5142   */\n      swap3\n      pop\n        /* \"#utility.yul\":4928:5152   */\n      pop\n        /* \"#utility.yul\":4915:4916   */\n      0x01\n        /* \"#utility.yul\":4912:4913   */\n      dup2\n        /* \"#utility.yul\":4908:4917   */\n      add\n        /* \"#utility.yul\":4903:4917   */\n      swap1\n      pop\n        /* \"#utility.yul\":4868:5152   */\n      jump(tag_285)\n    tag_287:\n        /* \"#utility.yul\":4872:4886   */\n      pop\n        /* \"#utility.yul\":5168:5171   */\n      dup6\n        /* \"#utility.yul\":5161:5171   */\n      swap4\n      pop\n        /* \"#utility.yul\":4569:5177   */\n      pop\n      pop\n      pop\n        /* \"#utility.yul\":4445:5177   */\n      swap3\n      swap2\n      pop\n      pop\n      jump\t// out\n        /* \"#utility.yul\":5183:5307   */\n    tag_200:\n        /* \"#utility.yul\":5260:5266   */\n      0x00\n        /* \"#utility.yul\":5294:5299   */\n      dup2\n        /* \"#utility.yul\":5288:5300   */\n      mload\n        /* \"#utility.yul\":5278:5300   */\n      swap1\n      pop\n        /* \"#utility.yul\":5183:5307   */\n      swap2\n      swap1\n      pop\n      jump\t// out\n        /* \"#utility.yul\":5313:5507   */\n    tag_201:\n        /* \"#utility.yul\":5422:5433   */\n      0x00\n        /* \"#utility.yul\":5456:5462   */\n      dup3\n        /* \"#utility.yul\":5451:5454   */\n      dup3\n        /* \"#utility.yul\":5444:5463   */\n      mstore\n        /* \"#utility.yul\":5496:5500   */\n      0x20\n        /* \"#utility.yul\":5491:5494   */\n      dup3\n        /* \"#utility.yul\":5487:5501   */\n      add\n        /* \"#utility.yul\":5472:5501   */\n      swap1\n      pop\n        /* \"#utility.yul\":5313:5507   */\n      swap3\n      swap2\n      pop\n      pop\n      jump\t// out\n        /* \"#utility.yul\":5513:5655   */\n    tag_202:\n        /* \"#utility.yul\":5590:5594   */\n      0x00\n        /* \"#utility.yul\":5613:5616   */\n      dup2\n        /* \"#utility.yul\":5605:5616   */\n      swap1\n      pop\n        /* \"#utility.yul\":5643:5647   */\n      0x20\n        /* \"#utility.yul\":5638:5641   */\n      dup3\n        /* \"#utility.yul\":5634:5648   */\n      add\n        /* \"#utility.yul\":5626:5648   */\n      swap1\n      pop\n        /* \"#utility.yul\":5513:5655   */\n      swap2\n      swap1\n      pop\n      jump\t// out\n        /* \"#utility.yul\":5661:5820   */\n    tag_203:\n        /* \"#utility.yul\":5735:5746   */\n      0x00\n        /* \"#utility.yul\":5769:5775   */\n      dup3\n        /* \"#utility.yul\":5764:5767   */\n      dup3\n        /* \"#utility.yul\":5757:5776   */\n      mstore\n        /* \"#utility.yul\":5809:5813   */\n      0x20\n        /* \"#utility.yul\":5804:5807   */\n      dup3\n        /* \"#utility.yul\":5800:5814   */\n      add\n        /* \"#utility.yul\":5785:5814   */\n      swap1\n      pop\n        /* \"#utility.yul\":5661:5820   */\n      swap3\n      swap2\n      pop\n      pop\n      jump\t// out\n        /* \"#utility.yul\":5826:6183   */\n    tag_204:\n        /* \"#utility.yul\":5904:5907   */\n      0x00\n        /* \"#utility.yul\":5932:5971   */\n      tag_295\n        /* \"#utility.yul\":5965:5970   */\n      dup3\n        /* \"#utility.yul\":5932:5971   */\n      tag_186\n      jump\t// in\n    tag_295:\n        /* \"#utility.yul\":5987:6048   */\n      tag_296\n        /* \"#utility.yul\":6041:6047   */\n      dup2\n        /* \"#utility.yul\":6036:6039   */\n      dup6\n        /* \"#utility.yul\":5987:6048   */\n      tag_203\n      jump\t// in\n    tag_296:\n        /* \"#utility.yul\":5980:6048   */\n      swap4\n      pop\n        /* \"#utility.yul\":6057:6122   */\n      tag_297\n        /* \"#utility.yul\":6115:6121   */\n      dup2\n        /* \"#utility.yul\":6110:6113   */\n      dup6\n        /* \"#utility.yul\":6103:6107   */\n      0x20\n        /* \"#utility.yul\":6096:6101   */\n      dup7\n        /* \"#utility.yul\":6092:6108   */\n      add\n        /* \"#utility.yul\":6057:6122   */\n      tag_188\n      jump\t// in\n    tag_297:\n        /* \"#utility.yul\":6147:6176   */\n      tag_298\n        /* \"#utility.yul\":6169:6175   */\n      dup2\n        /* \"#utility.yul\":6147:6176   */\n      tag_189\n      jump\t// in\n    tag_298:\n        /* \"#utility.yul\":6142:6145   */\n      dup5\n        /* \"#utility.yul\":6138:6177   */\n      add\n        /* \"#utility.yul\":6131:6177   */\n      swap2\n      pop\n        /* \"#utility.yul\":5908:6183   */\n      pop\n        /* \"#utility.yul\":5826:6183   */\n      swap3\n      swap2\n      pop\n      pop\n      jump\t// out\n        /* \"#utility.yul\":6189:6385   */\n    tag_205:\n        /* \"#utility.yul\":6278:6288   */\n      0x00\n        /* \"#utility.yul\":6313:6379   */\n      tag_300\n        /* \"#utility.yul\":6375:6378   */\n      dup4\n        /* \"#utility.yul\":6367:6373   */\n      dup4\n        /* \"#utility.yul\":6313:6379   */\n      tag_204\n      jump\t// in\n    tag_300:\n        /* \"#utility.yul\":6299:6379   */\n      swap1\n      pop\n        /* \"#utility.yul\":6189:6385   */\n      swap3\n      swap2\n      pop\n      pop\n      jump\t// out\n        /* \"#utility.yul\":6391:6514   */\n    tag_206:\n        /* \"#utility.yul\":6471:6475   */\n      0x00\n        /* \"#utility.yul\":6503:6507   */\n      0x20\n        /* \"#utility.yul\":6498:6501   */\n      dup3\n        /* \"#utility.yul\":6494:6508   */\n      add\n        /* \"#utility.yul\":6486:6508   */\n      swap1\n      pop\n        /* \"#utility.yul\":6391:6514   */\n      swap2\n      swap1\n      pop\n      jump\t// out\n        /* \"#utility.yul\":6548:7539   */\n    tag_207:\n        /* \"#utility.yul\":6687:6690   */\n      0x00\n        /* \"#utility.yul\":6716:6780   */\n      tag_303\n        /* \"#utility.yul\":6774:6779   */\n      dup3\n        /* \"#utility.yul\":6716:6780   */\n      tag_200\n      jump\t// in\n    tag_303:\n        /* \"#utility.yul\":6796:6892   */\n      tag_304\n        /* \"#utility.yul\":6885:6891   */\n      dup2\n        /* \"#utility.yul\":6880:6883   */\n      dup6\n        /* \"#utility.yul\":6796:6892   */\n      tag_201\n      jump\t// in\n    tag_304:\n        /* \"#utility.yul\":6789:6892   */\n      swap4\n      pop\n        /* \"#utility.yul\":6918:6921   */\n      dup4\n        /* \"#utility.yul\":6963:6967   */\n      0x20\n        /* \"#utility.yul\":6955:6961   */\n      dup3\n        /* \"#utility.yul\":6951:6968   */\n      mul\n        /* \"#utility.yul\":6946:6949   */\n      dup6\n        /* \"#utility.yul\":6942:6969   */\n      add\n        /* \"#utility.yul\":6993:7059   */\n      tag_305\n        /* \"#utility.yul\":7053:7058   */\n      dup6\n        /* \"#utility.yul\":6993:7059   */\n      tag_202\n      jump\t// in\n    tag_305:\n        /* \"#utility.yul\":7082:7089   */\n      dup1\n        /* \"#utility.yul\":7113:7114   */\n      0x00\n        /* \"#utility.yul\":7098:7494   */\n    tag_306:\n        /* \"#utility.yul\":7123:7129   */\n      dup6\n        /* \"#utility.yul\":7120:7121   */\n      dup2\n        /* \"#utility.yul\":7117:7130   */\n      lt\n        /* \"#utility.yul\":7098:7494   */\n      iszero\n      tag_308\n      jumpi\n        /* \"#utility.yul\":7194:7203   */\n      dup5\n        /* \"#utility.yul\":7188:7192   */\n      dup5\n        /* \"#utility.yul\":7184:7204   */\n      sub\n        /* \"#utility.yul\":7179:7182   */\n      dup10\n        /* \"#utility.yul\":7172:7205   */\n      mstore\n        /* \"#utility.yul\":7245:7251   */\n      dup2\n        /* \"#utility.yul\":7239:7252   */\n      mload\n        /* \"#utility.yul\":7273:7357   */\n      tag_309\n        /* \"#utility.yul\":7352:7356   */\n      dup6\n        /* \"#utility.yul\":7337:7350   */\n      dup3\n        /* \"#utility.yul\":7273:7357   */\n      tag_205\n      jump\t// in\n    tag_309:\n        /* \"#utility.yul\":7265:7357   */\n      swap5\n      pop\n        /* \"#utility.yul\":7380:7450   */\n      tag_310\n        /* \"#utility.yul\":7443:7449   */\n      dup4\n        /* \"#utility.yul\":7380:7450   */\n      tag_206\n      jump\t// in\n    tag_310:\n        /* \"#utility.yul\":7370:7450   */\n      swap3\n      pop\n        /* \"#utility.yul\":7479:7483   */\n      0x20\n        /* \"#utility.yul\":7474:7477   */\n      dup11\n        /* \"#utility.yul\":7470:7484   */\n      add\n        /* \"#utility.yul\":7463:7484   */\n      swap10\n      pop\n        /* \"#utility.yul\":7158:7494   */\n      pop\n        /* \"#utility.yul\":7145:7146   */\n      0x01\n        /* \"#utility.yul\":7142:7143   */\n      dup2\n        /* \"#utility.yul\":7138:7147   */\n      add\n        /* \"#utility.yul\":7133:7147   */\n      swap1\n      pop\n        /* \"#utility.yul\":7098:7494   */\n      jump(tag_306)\n    tag_308:\n        /* \"#utility.yul\":7102:7116   */\n      pop\n        /* \"#utility.yul\":7510:7514   */\n      dup3\n        /* \"#utility.yul\":7503:7514   */\n      swap8\n      pop\n        /* \"#utility.yul\":7530:7533   */\n      dup8\n        /* \"#utility.yul\":7523:7533   */\n      swap6\n      pop\n        /* \"#utility.yul\":6692:7539   */\n      pop\n      pop\n      pop\n      pop\n      pop\n        /* \"#utility.yul\":6548:7539   */\n      swap3\n      swap2\n      pop\n      pop\n      jump\t// out\n        /* \"#utility.yul\":7545:8219   */\n    tag_32:\n        /* \"#utility.yul\":7786:7790   */\n      0x00\n        /* \"#utility.yul\":7824:7826   */\n      0x40\n        /* \"#utility.yul\":7813:7822   */\n      dup3\n        /* \"#utility.yul\":7809:7827   */\n      add\n        /* \"#utility.yul\":7801:7827   */\n      swap1\n      pop\n        /* \"#utility.yul\":7873:7882   */\n      dup2\n        /* \"#utility.yul\":7867:7871   */\n      dup2\n        /* \"#utility.yul\":7863:7883   */\n      sub\n        /* \"#utility.yul\":7859:7860   */\n      0x00\n        /* \"#utility.yul\":7848:7857   */\n      dup4\n        /* \"#utility.yul\":7844:7861   */\n      add\n        /* \"#utility.yul\":7837:7884   */\n      mstore\n        /* \"#utility.yul\":7901:8009   */\n      tag_312\n        /* \"#utility.yul\":8004:8008   */\n      dup2\n        /* \"#utility.yul\":7995:8001   */\n      dup6\n        /* \"#utility.yul\":7901:8009   */\n      tag_199\n      jump\t// in\n    tag_312:\n        /* \"#utility.yul\":7893:8009   */\n      swap1\n      pop\n        /* \"#utility.yul\":8056:8065   */\n      dup2\n        /* \"#utility.yul\":8050:8054   */\n      dup2\n        /* \"#utility.yul\":8046:8066   */\n      sub\n        /* \"#utility.yul\":8041:8043   */\n      0x20\n        /* \"#utility.yul\":8030:8039   */\n      dup4\n        /* \"#utility.yul\":8026:8044   */\n      add\n        /* \"#utility.yul\":8019:8067   */\n      mstore\n        /* \"#utility.yul\":8084:8212   */\n      tag_313\n        /* \"#utility.yul\":8207:8211   */\n      dup2\n        /* \"#utility.yul\":8198:8204   */\n      dup5\n        /* \"#utility.yul\":8084:8212   */\n      tag_207\n      jump\t// in\n    tag_313:\n        /* \"#utility.yul\":8076:8212   */\n      swap1\n      pop\n        /* \"#utility.yul\":7545:8219   */\n      swap4\n      swap3\n      pop\n      pop\n      pop\n      jump\t// out\n        /* \"#utility.yul\":8225:8342   */\n    tag_208:\n        /* \"#utility.yul\":8334:8335   */\n      0x00\n        /* \"#utility.yul\":8331:8332   */\n      dup1\n        /* \"#utility.yul\":8324:8336   */\n      revert\n        /* \"#utility.yul\":8348:8465   */\n    tag_209:\n        /* \"#utility.yul\":8457:8458   */\n      0x00\n        /* \"#utility.yul\":8454:8455   */\n      dup1\n        /* \"#utility.yul\":8447:8459   */\n      revert\n        /* \"#utility.yul\":8471:8651   */\n    tag_210:\n        /* \"#utility.yul\":8519:8596   */\n      0x4e487b7100000000000000000000000000000000000000000000000000000000\n        /* \"#utility.yul\":8516:8517   */\n      0x00\n        /* \"#utility.yul\":8509:8597   */\n      mstore\n        /* \"#utility.yul\":8616:8620   */\n      0x41\n        /* \"#utility.yul\":8613:8614   */\n      0x04\n        /* \"#utility.yul\":8606:8621   */\n      mstore\n        /* \"#utility.yul\":8640:8644   */\n      0x24\n        /* \"#utility.yul\":8637:8638   */\n      0x00\n        /* \"#utility.yul\":8630:8645   */\n      revert\n        /* \"#utility.yul\":8657:8938   */\n    tag_211:\n        /* \"#utility.yul\":8740:8767   */\n      tag_318\n        /* \"#utility.yul\":8762:8766   */\n      dup3\n        /* \"#utility.yul\":8740:8767   */\n      tag_189\n      jump\t// in\n    tag_318:\n        /* \"#utility.yul\":8732:8738   */\n      dup2\n        /* \"#utility.yul\":8728:8768   */\n      add\n        /* \"#utility.yul\":8870:8876   */\n      dup2\n        /* \"#utility.yul\":8858:8868   */\n      dup2\n        /* \"#utility.yul\":8855:8877   */\n      lt\n        /* \"#utility.yul\":8834:8852   */\n      0xffffffffffffffff\n        /* \"#utility.yul\":8822:8832   */\n      dup3\n        /* \"#utility.yul\":8819:8853   */\n      gt\n        /* \"#utility.yul\":8816:8878   */\n      or\n        /* \"#utility.yul\":8813:8901   */\n      iszero\n      tag_319\n      jumpi\n        /* \"#utility.yul\":8881:8899   */\n      tag_320\n      tag_210\n      jump\t// in\n    tag_320:\n        /* \"#utility.yul\":8813:8901   */\n    tag_319:\n        /* \"#utility.yul\":8921:8931   */\n      dup1\n        /* \"#utility.yul\":8917:8919   */\n      0x40\n        /* \"#utility.yul\":8910:8932   */\n      mstore\n        /* \"#utility.yul\":8700:8938   */\n      pop\n        /* \"#utility.yul\":8657:8938   */\n      pop\n      pop\n      jump\t// out\n        /* \"#utility.yul\":8944:9073   */\n    tag_212:\n        /* \"#utility.yul\":8978:8984   */\n      0x00\n        /* \"#utility.yul\":9005:9025   */\n      tag_322\n      tag_179\n      jump\t// in\n    tag_322:\n        /* \"#utility.yul\":8995:9025   */\n      swap1\n      pop\n        /* \"#utility.yul\":9034:9067   */\n      tag_323\n        /* \"#utility.yul\":9062:9066   */\n      dup3\n        /* \"#utility.yul\":9054:9060   */\n      dup3\n        /* \"#utility.yul\":9034:9067   */\n      tag_211\n      jump\t// in\n    tag_323:\n        /* \"#utility.yul\":8944:9073   */\n      swap2\n      swap1\n      pop\n      jump\t// out\n        /* \"#utility.yul\":9079:9387   */\n    tag_213:\n        /* \"#utility.yul\":9141:9145   */\n      0x00\n        /* \"#utility.yul\":9231:9249   */\n      0xffffffffffffffff\n        /* \"#utility.yul\":9223:9229   */\n      dup3\n        /* \"#utility.yul\":9220:9250   */\n      gt\n        /* \"#utility.yul\":9217:9273   */\n      iszero\n      tag_325\n      jumpi\n        /* \"#utility.yul\":9253:9271   */\n      tag_326\n      tag_210\n      jump\t// in\n    tag_326:\n        /* \"#utility.yul\":9217:9273   */\n    tag_325:\n        /* \"#utility.yul\":9291:9320   */\n      tag_327\n        /* \"#utility.yul\":9313:9319   */\n      dup3\n        /* \"#utility.yul\":9291:9320   */\n      tag_189\n      jump\t// in\n    tag_327:\n        /* \"#utility.yul\":9283:9320   */\n      swap1\n      pop\n        /* \"#utility.yul\":9375:9379   */\n      0x20\n        /* \"#utility.yul\":9369:9373   */\n      dup2\n        /* \"#utility.yul\":9365:9380   */\n      add\n        /* \"#utility.yul\":9357:9380   */\n      swap1\n      pop\n        /* \"#utility.yul\":9079:9387   */\n      swap2\n      swap1\n      pop\n      jump\t// out\n        /* \"#utility.yul\":9393:9539   */\n    tag_214:\n        /* \"#utility.yul\":9490:9496   */\n      dup3\n        /* \"#utility.yul\":9485:9488   */\n      dup2\n        /* \"#utility.yul\":9480:9483   */\n      dup4\n        /* \"#utility.yul\":9467:9497   */\n      calldatacopy\n        /* \"#utility.yul\":9531:9532   */\n      0x00\n        /* \"#utility.yul\":9522:9528   */\n      dup4\n        /* \"#utility.yul\":9517:9520   */\n      dup4\n        /* \"#utility.yul\":9513:9529   */\n      add\n        /* \"#utility.yul\":9506:9533   */\n      mstore\n        /* \"#utility.yul\":9393:9539   */\n      pop\n      pop\n      pop\n      jump\t// out\n        /* \"#utility.yul\":9545:9970   */\n    tag_215:\n        /* \"#utility.yul\":9623:9628   */\n      0x00\n        /* \"#utility.yul\":9648:9714   */\n      tag_330\n        /* \"#utility.yul\":9664:9713   */\n      tag_331\n        /* \"#utility.yul\":9706:9712   */\n      dup5\n        /* \"#utility.yul\":9664:9713   */\n      tag_213\n      jump\t// in\n    tag_331:\n        /* \"#utility.yul\":9648:9714   */\n      tag_212\n      jump\t// in\n    tag_330:\n        /* \"#utility.yul\":9639:9714   */\n      swap1\n      pop\n        /* \"#utility.yul\":9737:9743   */\n      dup3\n        /* \"#utility.yul\":9730:9735   */\n      dup2\n        /* \"#utility.yul\":9723:9744   */\n      mstore\n        /* \"#utility.yul\":9775:9779   */\n      0x20\n        /* \"#utility.yul\":9768:9773   */\n      dup2\n        /* \"#utility.yul\":9764:9780   */\n      add\n        /* \"#utility.yul\":9813:9816   */\n      dup5\n        /* \"#utility.yul\":9804:9810   */\n      dup5\n        /* \"#utility.yul\":9799:9802   */\n      dup5\n        /* \"#utility.yul\":9795:9811   */\n      add\n        /* \"#utility.yul\":9792:9817   */\n      gt\n        /* \"#utility.yul\":9789:9901   */\n      iszero\n      tag_332\n      jumpi\n        /* \"#utility.yul\":9820:9899   */\n      tag_333\n      tag_209\n      jump\t// in\n    tag_333:\n        /* \"#utility.yul\":9789:9901   */\n    tag_332:\n        /* \"#utility.yul\":9910:9964   */\n      tag_334\n        /* \"#utility.yul\":9957:9963   */\n      dup5\n        /* \"#utility.yul\":9952:9955   */\n      dup3\n        /* \"#utility.yul\":9947:9950   */\n      dup6\n        /* \"#utility.yul\":9910:9964   */\n      tag_214\n      jump\t// in\n    tag_334:\n        /* \"#utility.yul\":9629:9970   */\n      pop\n        /* \"#utility.yul\":9545:9970   */\n      swap4\n      swap3\n      pop\n      pop\n      pop\n      jump\t// out\n        /* \"#utility.yul\":9990:10330   */\n    tag_216:\n        /* \"#utility.yul\":10046:10051   */\n      0x00\n        /* \"#utility.yul\":10095:10098   */\n      dup3\n        /* \"#utility.yul\":10088:10092   */\n      0x1f\n        /* \"#utility.yul\":10080:10086   */\n      dup4\n        /* \"#utility.yul\":10076:10093   */\n      add\n        /* \"#utility.yul\":10072:10099   */\n      slt\n        /* \"#utility.yul\":10062:10184   */\n      tag_336\n      jumpi\n        /* \"#utility.yul\":10103:10182   */\n      tag_337\n      tag_208\n      jump\t// in\n    tag_337:\n        /* \"#utility.yul\":10062:10184   */\n    tag_336:\n        /* \"#utility.yul\":10220:10226   */\n      dup2\n        /* \"#utility.yul\":10207:10227   */\n      calldataload\n        /* \"#utility.yul\":10245:10324   */\n      tag_338\n        /* \"#utility.yul\":10320:10323   */\n      dup5\n        /* \"#utility.yul\":10312:10318   */\n      dup3\n        /* \"#utility.yul\":10305:10309   */\n      0x20\n        /* \"#utility.yul\":10297:10303   */\n      dup7\n        /* \"#utility.yul\":10293:10310   */\n      add\n        /* \"#utility.yul\":10245:10324   */\n      tag_215\n      jump\t// in\n    tag_338:\n        /* \"#utility.yul\":10236:10324   */\n      swap2\n      pop\n        /* \"#utility.yul\":10052:10330   */\n      pop\n        /* \"#utility.yul\":9990:10330   */\n      swap3\n      swap2\n      pop\n      pop\n      jump\t// out\n        /* \"#utility.yul\":10336:10990   */\n    tag_35:\n        /* \"#utility.yul\":10414:10420   */\n      0x00\n        /* \"#utility.yul\":10422:10428   */\n      dup1\n        /* \"#utility.yul\":10471:10473   */\n      0x40\n        /* \"#utility.yul\":10459:10468   */\n      dup4\n        /* \"#utility.yul\":10450:10457   */\n      dup6\n        /* \"#utility.yul\":10446:10469   */\n      sub\n        /* \"#utility.yul\":10442:10474   */\n      slt\n        /* \"#utility.yul\":10439:10558   */\n      iszero\n      tag_340\n      jumpi\n        /* \"#utility.yul\":10477:10556   */\n      tag_341\n      tag_180\n      jump\t// in\n    tag_341:\n        /* \"#utility.yul\":10439:10558   */\n    tag_340:\n        /* \"#utility.yul\":10625:10626   */\n      0x00\n        /* \"#utility.yul\":10614:10623   */\n      dup4\n        /* \"#utility.yul\":10610:10627   */\n      add\n        /* \"#utility.yul\":10597:10628   */\n      calldataload\n        /* \"#utility.yul\":10655:10673   */\n      0xffffffffffffffff\n        /* \"#utility.yul\":10647:10653   */\n      dup2\n        /* \"#utility.yul\":10644:10674   */\n      gt\n        /* \"#utility.yul\":10641:10758   */\n      iszero\n      tag_342\n      jumpi\n        /* \"#utility.yul\":10677:10756   */\n      tag_343\n      tag_181\n      jump\t// in\n    tag_343:\n        /* \"#utility.yul\":10641:10758   */\n    tag_342:\n        /* \"#utility.yul\":10782:10845   */\n      tag_344\n        /* \"#utility.yul\":10837:10844   */\n      dup6\n        /* \"#utility.yul\":10828:10834   */\n      dup3\n        /* \"#utility.yul\":10817:10826   */\n      dup7\n        /* \"#utility.yul\":10813:10835   */\n      add\n        /* \"#utility.yul\":10782:10845   */\n      tag_216\n      jump\t// in\n    tag_344:\n        /* \"#utility.yul\":10772:10845   */\n      swap3\n      pop\n        /* \"#utility.yul\":10568:10855   */\n      pop\n        /* \"#utility.yul\":10894:10896   */\n      0x20\n        /* \"#utility.yul\":10920:10973   */\n      tag_345\n        /* \"#utility.yul\":10965:10972   */\n      dup6\n        /* \"#utility.yul\":10956:10962   */\n      dup3\n        /* \"#utility.yul\":10945:10954   */\n      dup7\n        /* \"#utility.yul\":10941:10963   */\n      add\n        /* \"#utility.yul\":10920:10973   */\n      tag_185\n      jump\t// in\n    tag_345:\n        /* \"#utility.yul\":10910:10973   */\n      swap2\n      pop\n        /* \"#utility.yul\":10865:10983   */\n      pop\n        /* \"#utility.yul\":10336:10990   */\n      swap3\n      pop\n      swap3\n      swap1\n      pop\n      jump\t// out\n        /* \"#utility.yul\":10996:11975   */\n    tag_39:\n        /* \"#utility.yul\":11093:11099   */\n      0x00\n        /* \"#utility.yul\":11101:11107   */\n      dup1\n        /* \"#utility.yul\":11109:11115   */\n      0x00\n        /* \"#utility.yul\":11158:11160   */\n      0x60\n        /* \"#utility.yul\":11146:11155   */\n      dup5\n        /* \"#utility.yul\":11137:11144   */\n      dup7\n        /* \"#utility.yul\":11133:11156   */\n      sub\n        /* \"#utility.yul\":11129:11161   */\n      slt\n        /* \"#utility.yul\":11126:11245   */\n      iszero\n      tag_347\n      jumpi\n        /* \"#utility.yul\":11164:11243   */\n      tag_348\n      tag_180\n      jump\t// in\n    tag_348:\n        /* \"#utility.yul\":11126:11245   */\n    tag_347:\n        /* \"#utility.yul\":11284:11285   */\n      0x00\n        /* \"#utility.yul\":11309:11362   */\n      tag_349\n        /* \"#utility.yul\":11354:11361   */\n      dup7\n        /* \"#utility.yul\":11345:11351   */\n      dup3\n        /* \"#utility.yul\":11334:11343   */\n      dup8\n        /* \"#utility.yul\":11330:11352   */\n      add\n        /* \"#utility.yul\":11309:11362   */\n      tag_185\n      jump\t// in\n    tag_349:\n        /* \"#utility.yul\":11299:11362   */\n      swap4\n      pop\n        /* \"#utility.yul\":11255:11372   */\n      pop\n        /* \"#utility.yul\":11439:11441   */\n      0x20\n        /* \"#utility.yul\":11428:11437   */\n      dup5\n        /* \"#utility.yul\":11424:11442   */\n      add\n        /* \"#utility.yul\":11411:11443   */\n      calldataload\n        /* \"#utility.yul\":11470:11488   */\n      0xffffffffffffffff\n        /* \"#utility.yul\":11462:11468   */\n      dup2\n        /* \"#utility.yul\":11459:11489   */\n      gt\n        /* \"#utility.yul\":11456:11573   */\n      iszero\n      tag_350\n      jumpi\n        /* \"#utility.yul\":11492:11571   */\n      tag_351\n      tag_181\n      jump\t// in\n    tag_351:\n        /* \"#utility.yul\":11456:11573   */\n    tag_350:\n        /* \"#utility.yul\":11597:11660   */\n      tag_352\n        /* \"#utility.yul\":11652:11659   */\n      dup7\n        /* \"#utility.yul\":11643:11649   */\n      dup3\n        /* \"#utility.yul\":11632:11641   */\n      dup8\n        /* \"#utility.yul\":11628:11650   */\n      add\n        /* \"#utility.yul\":11597:11660   */\n      tag_216\n      jump\t// in\n    tag_352:\n        /* \"#utility.yul\":11587:11660   */\n      swap3\n      pop\n        /* \"#utility.yul\":11382:11670   */\n      pop\n        /* \"#utility.yul\":11737:11739   */\n      0x40\n        /* \"#utility.yul\":11726:11735   */\n      dup5\n        /* \"#utility.yul\":11722:11740   */\n      add\n        /* \"#utility.yul\":11709:11741   */\n      calldataload\n        /* \"#utility.yul\":11768:11786   */\n      0xffffffffffffffff\n        /* \"#utility.yul\":11760:11766   */\n      dup2\n        /* \"#utility.yul\":11757:11787   */\n      gt\n        /* \"#utility.yul\":11754:11871   */\n      iszero\n      tag_353\n      jumpi\n        /* \"#utility.yul\":11790:11869   */\n      tag_354\n      tag_181\n      jump\t// in\n    tag_354:\n        /* \"#utility.yul\":11754:11871   */\n    tag_353:\n        /* \"#utility.yul\":11895:11958   */\n      tag_355\n        /* \"#utility.yul\":11950:11957   */\n      dup7\n        /* \"#utility.yul\":11941:11947   */\n      dup3\n        /* \"#utility.yul\":11930:11939   */\n      dup8\n        /* \"#utility.yul\":11926:11948   */\n      add\n        /* \"#utility.yul\":11895:11958   */\n      tag_216\n      jump\t// in\n    tag_355:\n        /* \"#utility.yul\":11885:11958   */\n      swap2\n      pop\n        /* \"#utility.yul\":11680:11968   */\n      pop\n        /* \"#utility.yul\":10996:11975   */\n      swap3\n      pop\n      swap3\n      pop\n      swap3\n      jump\t// out\n        /* \"#utility.yul\":11981:12294   */\n    tag_49:\n        /* \"#utility.yul\":12094:12098   */\n      0x00\n        /* \"#utility.yul\":12132:12134   */\n      0x20\n        /* \"#utility.yul\":12121:12130   */\n      dup3\n        /* \"#utility.yul\":12117:12135   */\n      add\n        /* \"#utility.yul\":12109:12135   */\n      swap1\n      pop\n        /* \"#utility.yul\":12181:12190   */\n      dup2\n        /* \"#utility.yul\":12175:12179   */\n      dup2\n        /* \"#utility.yul\":12171:12191   */\n      sub\n        /* \"#utility.yul\":12167:12168   */\n      0x00\n        /* \"#utility.yul\":12156:12165   */\n      dup4\n        /* \"#utility.yul\":12152:12169   */\n      add\n        /* \"#utility.yul\":12145:12192   */\n      mstore\n        /* \"#utility.yul\":12209:12287   */\n      tag_357\n        /* \"#utility.yul\":12282:12286   */\n      dup2\n        /* \"#utility.yul\":12273:12279   */\n      dup5\n        /* \"#utility.yul\":12209:12287   */\n      tag_190\n      jump\t// in\n    tag_357:\n        /* \"#utility.yul\":12201:12287   */\n      swap1\n      pop\n        /* \"#utility.yul\":11981:12294   */\n      swap3\n      swap2\n      pop\n      pop\n      jump\t// out\n        /* \"#utility.yul\":12300:13785   */\n    tag_60:\n        /* \"#utility.yul\":12426:12432   */\n      0x00\n        /* \"#utility.yul\":12434:12440   */\n      dup1\n        /* \"#utility.yul\":12442:12448   */\n      0x00\n        /* \"#utility.yul\":12450:12456   */\n      dup1\n        /* \"#utility.yul\":12499:12502   */\n      0x80\n        /* \"#utility.yul\":12487:12496   */\n      dup6\n        /* \"#utility.yul\":12478:12485   */\n      dup8\n        /* \"#utility.yul\":12474:12497   */\n      sub\n        /* \"#utility.yul\":12470:12503   */\n      slt\n        /* \"#utility.yul\":12467:12587   */\n      iszero\n      tag_359\n      jumpi\n        /* \"#utility.yul\":12506:12585   */\n      tag_360\n      tag_180\n      jump\t// in\n    tag_360:\n        /* \"#utility.yul\":12467:12587   */\n    tag_359:\n        /* \"#utility.yul\":12654:12655   */\n      0x00\n        /* \"#utility.yul\":12643:12652   */\n      dup6\n        /* \"#utility.yul\":12639:12656   */\n      add\n        /* \"#utility.yul\":12626:12657   */\n      calldataload\n        /* \"#utility.yul\":12684:12702   */\n      0xffffffffffffffff\n        /* \"#utility.yul\":12676:12682   */\n      dup2\n        /* \"#utility.yul\":12673:12703   */\n      gt\n        /* \"#utility.yul\":12670:12787   */\n      iszero\n      tag_361\n      jumpi\n        /* \"#utility.yul\":12706:12785   */\n      tag_362\n      tag_181\n      jump\t// in\n    tag_362:\n        /* \"#utility.yul\":12670:12787   */\n    tag_361:\n        /* \"#utility.yul\":12811:12874   */\n      tag_363\n        /* \"#utility.yul\":12866:12873   */\n      dup8\n        /* \"#utility.yul\":12857:12863   */\n      dup3\n        /* \"#utility.yul\":12846:12855   */\n      dup9\n        /* \"#utility.yul\":12842:12864   */\n      add\n        /* \"#utility.yul\":12811:12874   */\n      tag_216\n      jump\t// in\n    tag_363:\n        /* \"#utility.yul\":12801:12874   */\n      swap5\n      pop\n        /* \"#utility.yul\":12597:12884   */\n      pop\n        /* \"#utility.yul\":12951:12953   */\n      0x20\n        /* \"#utility.yul\":12940:12949   */\n      dup6\n        /* \"#utility.yul\":12936:12954   */\n      add\n        /* \"#utility.yul\":12923:12955   */\n      calldataload\n        /* \"#utility.yul\":12982:13000   */\n      0xffffffffffffffff\n        /* \"#utility.yul\":12974:12980   */\n      dup2\n        /* \"#utility.yul\":12971:13001   */\n      gt\n        /* \"#utility.yul\":12968:13085   */\n      iszero\n      tag_364\n      jumpi\n        /* \"#utility.yul\":13004:13083   */\n      tag_365\n      tag_181\n      jump\t// in\n    tag_365:\n        /* \"#utility.yul\":12968:13085   */\n    tag_364:\n        /* \"#utility.yul\":13109:13172   */\n      tag_366\n        /* \"#utility.yul\":13164:13171   */\n      dup8\n        /* \"#utility.yul\":13155:13161   */\n      dup3\n        /* \"#utility.yul\":13144:13153   */\n      dup9\n        /* \"#utility.yul\":13140:13162   */\n      add\n        /* \"#utility.yul\":13109:13172   */\n      tag_216\n      jump\t// in\n    tag_366:\n        /* \"#utility.yul\":13099:13172   */\n      swap4\n      pop\n        /* \"#utility.yul\":12894:13182   */\n      pop\n        /* \"#utility.yul\":13249:13251   */\n      0x40\n        /* \"#utility.yul\":13238:13247   */\n      dup6\n        /* \"#utility.yul\":13234:13252   */\n      add\n        /* \"#utility.yul\":13221:13253   */\n      calldataload\n        /* \"#utility.yul\":13280:13298   */\n      0xffffffffffffffff\n        /* \"#utility.yul\":13272:13278   */\n      dup2\n        /* \"#utility.yul\":13269:13299   */\n      gt\n        /* \"#utility.yul\":13266:13383   */\n      iszero\n      tag_367\n      jumpi\n        /* \"#utility.yul\":13302:13381   */\n      tag_368\n      tag_181\n      jump\t// in\n    tag_368:\n        /* \"#utility.yul\":13266:13383   */\n    tag_367:\n        /* \"#utility.yul\":13407:13470   */\n      tag_369\n        /* \"#utility.yul\":13462:13469   */\n      dup8\n        /* \"#utility.yul\":13453:13459   */\n      dup3\n        /* \"#utility.yul\":13442:13451   */\n      dup9\n        /* \"#utility.yul\":13438:13460   */\n      add\n        /* \"#utility.yul\":13407:13470   */\n      tag_216\n      jump\t// in\n    tag_369:\n        /* \"#utility.yul\":13397:13470   */\n      swap3\n      pop\n        /* \"#utility.yul\":13192:13480   */\n      pop\n        /* \"#utility.yul\":13547:13549   */\n      0x60\n        /* \"#utility.yul\":13536:13545   */\n      dup6\n        /* \"#utility.yul\":13532:13550   */\n      add\n        /* \"#utility.yul\":13519:13551   */\n      calldataload\n        /* \"#utility.yul\":13578:13596   */\n      0xffffffffffffffff\n        /* \"#utility.yul\":13570:13576   */\n      dup2\n        /* \"#utility.yul\":13567:13597   */\n      gt\n        /* \"#utility.yul\":13564:13681   */\n      iszero\n      tag_370\n      jumpi\n        /* \"#utility.yul\":13600:13679   */\n      tag_371\n      tag_181\n      jump\t// in\n    tag_371:\n        /* \"#utility.yul\":13564:13681   */\n    tag_370:\n        /* \"#utility.yul\":13705:13768   */\n      tag_372\n        /* \"#utility.yul\":13760:13767   */\n      dup8\n        /* \"#utility.yul\":13751:13757   */\n      dup3\n        /* \"#utility.yul\":13740:13749   */\n      dup9\n        /* \"#utility.yul\":13736:13758   */\n      add\n        /* \"#utility.yul\":13705:13768   */\n      tag_216\n      jump\t// in\n    tag_372:\n        /* \"#utility.yul\":13695:13768   */\n      swap2\n      pop\n        /* \"#utility.yul\":13490:13778   */\n      pop\n        /* \"#utility.yul\":12300:13785   */\n      swap3\n      swap6\n      swap2\n      swap5\n      pop\n      swap3\n      pop\n      jump\t// out\n        /* \"#utility.yul\":13791:15312   */\n    tag_66:\n        /* \"#utility.yul\":14244:14248   */\n      0x00\n        /* \"#utility.yul\":14282:14285   */\n      0xc0\n        /* \"#utility.yul\":14271:14280   */\n      dup3\n        /* \"#utility.yul\":14267:14286   */\n      add\n        /* \"#utility.yul\":14259:14286   */\n      swap1\n      pop\n        /* \"#utility.yul\":14332:14341   */\n      dup2\n        /* \"#utility.yul\":14326:14330   */\n      dup2\n        /* \"#utility.yul\":14322:14342   */\n      sub\n        /* \"#utility.yul\":14318:14319   */\n      0x00\n        /* \"#utility.yul\":14307:14316   */\n      dup4\n        /* \"#utility.yul\":14303:14320   */\n      add\n        /* \"#utility.yul\":14296:14343   */\n      mstore\n        /* \"#utility.yul\":14360:14438   */\n      tag_374\n        /* \"#utility.yul\":14433:14437   */\n      dup2\n        /* \"#utility.yul\":14424:14430   */\n      dup10\n        /* \"#utility.yul\":14360:14438   */\n      tag_190\n      jump\t// in\n    tag_374:\n        /* \"#utility.yul\":14352:14438   */\n      swap1\n      pop\n        /* \"#utility.yul\":14485:14494   */\n      dup2\n        /* \"#utility.yul\":14479:14483   */\n      dup2\n        /* \"#utility.yul\":14475:14495   */\n      sub\n        /* \"#utility.yul\":14470:14472   */\n      0x20\n        /* \"#utility.yul\":14459:14468   */\n      dup4\n        /* \"#utility.yul\":14455:14473   */\n      add\n        /* \"#utility.yul\":14448:14496   */\n      mstore\n        /* \"#utility.yul\":14513:14591   */\n      tag_375\n        /* \"#utility.yul\":14586:14590   */\n      dup2\n        /* \"#utility.yul\":14577:14583   */\n      dup9\n        /* \"#utility.yul\":14513:14591   */\n      tag_190\n      jump\t// in\n    tag_375:\n        /* \"#utility.yul\":14505:14591   */\n      swap1\n      pop\n        /* \"#utility.yul\":14638:14647   */\n      dup2\n        /* \"#utility.yul\":14632:14636   */\n      dup2\n        /* \"#utility.yul\":14628:14648   */\n      sub\n        /* \"#utility.yul\":14623:14625   */\n      0x40\n        /* \"#utility.yul\":14612:14621   */\n      dup4\n        /* \"#utility.yul\":14608:14626   */\n      add\n        /* \"#utility.yul\":14601:14649   */\n      mstore\n        /* \"#utility.yul\":14666:14744   */\n      tag_376\n        /* \"#utility.yul\":14739:14743   */\n      dup2\n        /* \"#utility.yul\":14730:14736   */\n      dup8\n        /* \"#utility.yul\":14666:14744   */\n      tag_190\n      jump\t// in\n    tag_376:\n        /* \"#utility.yul\":14658:14744   */\n      swap1\n      pop\n        /* \"#utility.yul\":14791:14800   */\n      dup2\n        /* \"#utility.yul\":14785:14789   */\n      dup2\n        /* \"#utility.yul\":14781:14801   */\n      sub\n        /* \"#utility.yul\":14776:14778   */\n      0x60\n        /* \"#utility.yul\":14765:14774   */\n      dup4\n        /* \"#utility.yul\":14761:14779   */\n      add\n        /* \"#utility.yul\":14754:14802   */\n      mstore\n        /* \"#utility.yul\":14819:14897   */\n      tag_377\n        /* \"#utility.yul\":14892:14896   */\n      dup2\n        /* \"#utility.yul\":14883:14889   */\n      dup7\n        /* \"#utility.yul\":14819:14897   */\n      tag_190\n      jump\t// in\n    tag_377:\n        /* \"#utility.yul\":14811:14897   */\n      swap1\n      pop\n        /* \"#utility.yul\":14945:14954   */\n      dup2\n        /* \"#utility.yul\":14939:14943   */\n      dup2\n        /* \"#utility.yul\":14935:14955   */\n      sub\n        /* \"#utility.yul\":14929:14932   */\n      0x80\n        /* \"#utility.yul\":14918:14927   */\n      dup4\n        /* \"#utility.yul\":14914:14933   */\n      add\n        /* \"#utility.yul\":14907:14956   */\n      mstore\n        /* \"#utility.yul\":14973:15101   */\n      tag_378\n        /* \"#utility.yul\":15096:15100   */\n      dup2\n        /* \"#utility.yul\":15087:15093   */\n      dup6\n        /* \"#utility.yul\":14973:15101   */\n      tag_207\n      jump\t// in\n    tag_378:\n        /* \"#utility.yul\":14965:15101   */\n      swap1\n      pop\n        /* \"#utility.yul\":15149:15158   */\n      dup2\n        /* \"#utility.yul\":15143:15147   */\n      dup2\n        /* \"#utility.yul\":15139:15159   */\n      sub\n        /* \"#utility.yul\":15133:15136   */\n      0xa0\n        /* \"#utility.yul\":15122:15131   */\n      dup4\n        /* \"#utility.yul\":15118:15137   */\n      add\n        /* \"#utility.yul\":15111:15160   */\n      mstore\n        /* \"#utility.yul\":15177:15305   */\n      tag_379\n        /* \"#utility.yul\":15300:15304   */\n      dup2\n        /* \"#utility.yul\":15291:15297   */\n      dup5\n        /* \"#utility.yul\":15177:15305   */\n      tag_207\n      jump\t// in\n    tag_379:\n        /* \"#utility.yul\":15169:15305   */\n      swap1\n      pop\n        /* \"#utility.yul\":13791:15312   */\n      swap8\n      swap7\n      pop\n      pop\n      pop\n      pop\n      pop\n      pop\n      pop\n      jump\t// out\n        /* \"#utility.yul\":15318:15436   */\n    tag_217:\n        /* \"#utility.yul\":15405:15429   */\n      tag_381\n        /* \"#utility.yul\":15423:15428   */\n      dup2\n        /* \"#utility.yul\":15405:15429   */\n      tag_183\n      jump\t// in\n    tag_381:\n        /* \"#utility.yul\":15400:15403   */\n      dup3\n        /* \"#utility.yul\":15393:15430   */\n      mstore\n        /* \"#utility.yul\":15318:15436   */\n      pop\n      pop\n      jump\t// out\n        /* \"#utility.yul\":15442:15664   */\n    tag_74:\n        /* \"#utility.yul\":15535:15539   */\n      0x00\n        /* \"#utility.yul\":15573:15575   */\n      0x20\n        /* \"#utility.yul\":15562:15571   */\n      dup3\n        /* \"#utility.yul\":15558:15576   */\n      add\n        /* \"#utility.yul\":15550:15576   */\n      swap1\n      pop\n        /* \"#utility.yul\":15586:15657   */\n      tag_383\n        /* \"#utility.yul\":15654:15655   */\n      0x00\n        /* \"#utility.yul\":15643:15652   */\n      dup4\n        /* \"#utility.yul\":15639:15656   */\n      add\n        /* \"#utility.yul\":15630:15636   */\n      dup5\n        /* \"#utility.yul\":15586:15657   */\n      tag_217\n      jump\t// in\n    tag_383:\n        /* \"#utility.yul\":15442:15664   */\n      swap3\n      swap2\n      pop\n      pop\n      jump\t// out\n        /* \"#utility.yul\":15670:15850   */\n    tag_218:\n        /* \"#utility.yul\":15718:15795   */\n      0x4e487b7100000000000000000000000000000000000000000000000000000000\n        /* \"#utility.yul\":15715:15716   */\n      0x00\n        /* \"#utility.yul\":15708:15796   */\n      mstore\n        /* \"#utility.yul\":15815:15819   */\n      0x22\n        /* \"#utility.yul\":15812:15813   */\n      0x04\n        /* \"#utility.yul\":15805:15820   */\n      mstore\n        /* \"#utility.yul\":15839:15843   */\n      0x24\n        /* \"#utility.yul\":15836:15837   */\n      0x00\n        /* \"#utility.yul\":15829:15844   */\n      revert\n        /* \"#utility.yul\":15856:16176   */\n    tag_76:\n        /* \"#utility.yul\":15900:15906   */\n      0x00\n        /* \"#utility.yul\":15937:15938   */\n      0x02\n        /* \"#utility.yul\":15931:15935   */\n      dup3\n        /* \"#utility.yul\":15927:15939   */\n      div\n        /* \"#utility.yul\":15917:15939   */\n      swap1\n      pop\n        /* \"#utility.yul\":15984:15985   */\n      0x01\n        /* \"#utility.yul\":15978:15982   */\n      dup3\n        /* \"#utility.yul\":15974:15986   */\n      and\n        /* \"#utility.yul\":16005:16023   */\n      dup1\n        /* \"#utility.yul\":15995:16076   */\n      tag_386\n      jumpi\n        /* \"#utility.yul\":16061:16065   */\n      0x7f\n        /* \"#utility.yul\":16053:16059   */\n      dup3\n        /* \"#utility.yul\":16049:16066   */\n      and\n        /* \"#utility.yul\":16039:16066   */\n      swap2\n      pop\n        /* \"#utility.yul\":15995:16076   */\n    tag_386:\n        /* \"#utility.yul\":16123:16125   */\n      0x20\n        /* \"#utility.yul\":16115:16121   */\n      dup3\n        /* \"#utility.yul\":16112:16126   */\n      lt\n        /* \"#utility.yul\":16092:16110   */\n      dup2\n        /* \"#utility.yul\":16089:16127   */\n      sub\n        /* \"#utility.yul\":16086:16170   */\n      tag_387\n      jumpi\n        /* \"#utility.yul\":16142:16160   */\n      tag_388\n      tag_218\n      jump\t// in\n    tag_388:\n        /* \"#utility.yul\":16086:16170   */\n    tag_387:\n        /* \"#utility.yul\":15907:16176   */\n      pop\n        /* \"#utility.yul\":15856:16176   */\n      swap2\n      swap1\n      pop\n      jump\t// out\n        /* \"#utility.yul\":16182:16323   */\n    tag_219:\n        /* \"#utility.yul\":16231:16235   */\n      0x00\n        /* \"#utility.yul\":16254:16257   */\n      dup2\n        /* \"#utility.yul\":16246:16257   */\n      swap1\n      pop\n        /* \"#utility.yul\":16277:16280   */\n      dup2\n        /* \"#utility.yul\":16274:16275   */\n      0x00\n        /* \"#utility.yul\":16267:16281   */\n      mstore\n        /* \"#utility.yul\":16311:16315   */\n      0x20\n        /* \"#utility.yul\":16308:16309   */\n      0x00\n        /* \"#utility.yul\":16298:16316   */\n      keccak256\n        /* \"#utility.yul\":16290:16316   */\n      swap1\n      pop\n        /* \"#utility.yul\":16182:16323   */\n      swap2\n      swap1\n      pop\n      jump\t// out\n        /* \"#utility.yul\":16329:16422   */\n    tag_220:\n        /* \"#utility.yul\":16366:16372   */\n      0x00\n        /* \"#utility.yul\":16413:16415   */\n      0x20\n        /* \"#utility.yul\":16408:16410   */\n      0x1f\n        /* \"#utility.yul\":16401:16406   */\n      dup4\n        /* \"#utility.yul\":16397:16411   */\n      add\n        /* \"#utility.yul\":16393:16416   */\n      div\n        /* \"#utility.yul\":16383:16416   */\n      swap1\n      pop\n        /* \"#utility.yul\":16329:16422   */\n      swap2\n      swap1\n      pop\n      jump\t// out\n        /* \"#utility.yul\":16428:16535   */\n    tag_221:\n        /* \"#utility.yul\":16472:16480   */\n      0x00\n        /* \"#utility.yul\":16522:16527   */\n      dup3\n        /* \"#utility.yul\":16516:16520   */\n      dup3\n        /* \"#utility.yul\":16512:16528   */\n      shl\n        /* \"#utility.yul\":16491:16528   */\n      swap1\n      pop\n        /* \"#utility.yul\":16428:16535   */\n      swap3\n      swap2\n      pop\n      pop\n      jump\t// out\n        /* \"#utility.yul\":16541:16934   */\n    tag_222:\n        /* \"#utility.yul\":16610:16616   */\n      0x00\n        /* \"#utility.yul\":16660:16661   */\n      0x08\n        /* \"#utility.yul\":16648:16658   */\n      dup4\n        /* \"#utility.yul\":16644:16662   */\n      mul\n        /* \"#utility.yul\":16683:16780   */\n      tag_393\n        /* \"#utility.yul\":16713:16779   */\n      0xffffffffffffffffffffffffffffffffffffffffffffffffffffffffffffffff\n        /* \"#utility.yul\":16702:16711   */\n      dup3\n        /* \"#utility.yul\":16683:16780   */\n      tag_221\n      jump\t// in\n    tag_393:\n        /* \"#utility.yul\":16801:16840   */\n      tag_394\n        /* \"#utility.yul\":16831:16839   */\n      dup7\n        /* \"#utility.yul\":16820:16829   */\n      dup4\n        /* \"#utility.yul\":16801:16840   */\n      tag_221\n      jump\t// in\n    tag_394:\n        /* \"#utility.yul\":16789:16840   */\n      swap6\n      pop\n        /* \"#utility.yul\":16873:16877   */\n      dup1\n        /* \"#utility.yul\":16869:16878   */\n      not\n        /* \"#utility.yul\":16862:16867   */\n      dup5\n        /* \"#utility.yul\":16858:16879   */\n      and\n        /* \"#utility.yul\":16849:16879   */\n      swap4\n      pop\n        /* \"#utility.yul\":16922:16926   */\n      dup1\n        /* \"#utility.yul\":16912:16920   */\n      dup7\n        /* \"#utility.yul\":16908:16927   */\n      and\n        /* \"#utility.yul\":16901:16906   */\n      dup5\n        /* \"#utility.yul\":16898:16928   */\n      or\n        /* \"#utility.yul\":16888:16928   */\n      swap3\n      pop\n        /* \"#utility.yul\":16617:16934   */\n      pop\n      pop\n        /* \"#utility.yul\":16541:16934   */\n      swap4\n      swap3\n      pop\n      pop\n      pop\n      jump\t// out\n        /* \"#utility.yul\":16940:17017   */\n    tag_223:\n        /* \"#utility.yul\":16977:16984   */\n      0x00\n        /* \"#utility.yul\":17006:17011   */\n      dup2\n        /* \"#utility.yul\":16995:17011   */\n      swap1\n      pop\n        /* \"#utility.yul\":16940:17017   */\n      swap2\n      swap1\n      pop\n      jump\t// out\n        /* \"#utility.yul\":17023:17083   */\n    tag_224:\n        /* \"#utility.yul\":17051:17054   */\n      0x00\n        /* \"#utility.yul\":17072:17077   */\n      dup2\n        /* \"#utility.yul\":17065:17077   */\n      swap1\n      pop\n        /* \"#utility.yul\":17023:17083   */\n      swap2\n      swap1\n      pop\n      jump\t// out\n        /* \"#utility.yul\":17089:17231   */\n    tag_225:\n        /* \"#utility.yul\":17139:17148   */\n      0x00\n        /* \"#utility.yul\":17172:17225   */\n      tag_398\n        /* \"#utility.yul\":17190:17224   */\n      tag_399\n        /* \"#utility.yul\":17199:17223   */\n      tag_400\n        /* \"#utility.yul\":17217:17222   */\n      dup5\n        /* \"#utility.yul\":17199:17223   */\n      tag_223\n      jump\t// in\n    tag_400:\n        /* \"#utility.yul\":17190:17224   */\n      tag_224\n      jump\t// in\n    tag_399:\n        /* \"#utility.yul\":17172:17225   */\n      tag_223\n      jump\t// in\n    tag_398:\n        /* \"#utility.yul\":17159:17225   */\n      swap1\n      pop\n        /* \"#utility.yul\":17089:17231   */\n      swap2\n      swap1\n      pop\n      jump\t// out\n        /* \"#utility.yul\":17237:17312   */\n    tag_226:\n        /* \"#utility.yul\":17280:17283   */\n      0x00\n        /* \"#utility.yul\":17301:17306   */\n      dup2\n        /* \"#utility.yul\":17294:17306   */\n      swap1\n      pop\n        /* \"#utility.yul\":17237:17312   */\n      swap2\n      swap1\n      pop\n      jump\t// out\n        /* \"#utility.yul\":17318:17587   */\n    tag_227:\n        /* \"#utility.yul\":17428:17467   */\n      tag_403\n        /* \"#utility.yul\":17459:17466   */\n      dup4\n        /* \"#utility.yul\":17428:17467   */\n      tag_225\n      jump\t// in\n    tag_403:\n        /* \"#utility.yul\":17489:17580   */\n      tag_404\n        /* \"#utility.yul\":17538:17579   */\n      tag_405\n        /* \"#utility.yul\":17562:17578   */\n      dup3\n        /* \"#utility.yul\":17538:17579   */\n      tag_226\n      jump\t// in\n    tag_405:\n        /* \"#utility.yul\":17530:17536   */\n      dup5\n        /* \"#utility.yul\":17523:17527   */\n      dup5\n        /* \"#utility.yul\":17517:17528   */\n      sload\n        /* \"#utility.yul\":17489:17580   */\n      tag_222\n      jump\t// in\n    tag_404:\n        /* \"#utility.yul\":17483:17487   */\n      dup3\n        /* \"#utility.yul\":17476:17581   */\n      sstore\n        /* \"#utility.yul\":17394:17587   */\n      pop\n        /* \"#utility.yul\":17318:17587   */\n      pop\n      pop\n      pop\n      jump\t// out\n        /* \"#utility.yul\":17593:17666   */\n    tag_228:\n        /* \"#utility.yul\":17638:17641   */\n      0x00\n        /* \"#utility.yul\":17593:17666   */\n      swap1\n      jump\t// out\n        /* \"#utility.yul\":17672:17861   */\n    tag_229:\n        /* \"#utility.yul\":17749:17781   */\n      tag_408\n      tag_228\n      jump\t// in\n    tag_408:\n        /* \"#utility.yul\":17790:17855   */\n      tag_409\n        /* \"#utility.yul\":17848:17854   */\n      dup2\n        /* \"#utility.yul\":17840:17846   */\n      dup5\n        /* \"#utility.yul\":17834:17838   */\n      dup5\n        /* \"#utility.yul\":17790:17855   */\n      tag_227\n      jump\t// in\n    tag_409:\n        /* \"#utility.yul\":17725:17861   */\n      pop\n        /* \"#utility.yul\":17672:17861   */\n      pop\n      pop\n      jump\t// out\n        /* \"#utility.yul\":17867:18053   */\n    tag_230:\n        /* \"#utility.yul\":17927:18047   */\n    tag_411:\n        /* \"#utility.yul\":17944:17947   */\n      dup2\n        /* \"#utility.yul\":17937:17942   */\n      dup2\n        /* \"#utility.yul\":17934:17948   */\n      lt\n        /* \"#utility.yul\":17927:18047   */\n      iszero\n      tag_413\n      jumpi\n        /* \"#utility.yul\":17998:18037   */\n      tag_414\n        /* \"#utility.yul\":18035:18036   */\n      0x00\n        /* \"#utility.yul\":18028:18033   */\n      dup3\n        /* \"#utility.yul\":17998:18037   */\n      tag_229\n      jump\t// in\n    tag_414:\n        /* \"#utility.yul\":17971:17972   */\n      0x01\n        /* \"#utility.yul\":17964:17969   */\n      dup2\n        /* \"#utility.yul\":17960:17973   */\n      add\n        /* \"#utility.yul\":17951:17973   */\n      swap1\n      pop\n        /* \"#utility.yul\":17927:18047   */\n      jump(tag_411)\n    tag_413:\n        /* \"#utility.yul\":17867:18053   */\n      pop\n      pop\n      jump\t// out\n        /* \"#utility.yul\":18059:18602   */\n    tag_231:\n        /* \"#utility.yul\":18160:18162   */\n      0x1f\n        /* \"#utility.yul\":18155:18158   */\n      dup3\n        /* \"#utility.yul\":18152:18163   */\n      gt\n        /* \"#utility.yul\":18149:18595   */\n      iszero\n      tag_416\n      jumpi\n        /* \"#utility.yul\":18194:18232   */\n      tag_417\n        /* \"#utility.yul\":18226:18231   */\n      dup2\n        /* \"#utility.yul\":18194:18232   */\n      tag_219\n      jump\t// in\n    tag_417:\n        /* \"#utility.yul\":18278:18307   */\n      tag_418\n        /* \"#utility.yul\":18296:18306   */\n      dup5\n        /* \"#utility.yul\":18278:18307   */\n      tag_220\n      jump\t// in\n    tag_418:\n        /* \"#utility.yul\":18268:18276   */\n      dup2\n        /* \"#utility.yul\":18264:18308   */\n      add\n        /* \"#utility.yul\":18461:18463   */\n      0x20\n        /* \"#utility.yul\":18449:18459   */\n      dup6\n        /* \"#utility.yul\":18446:18464   */\n      lt\n        /* \"#utility.yul\":18443:18492   */\n      iszero\n      tag_419\n      jumpi\n        /* \"#utility.yul\":18482:18490   */\n      dup2\n        /* \"#utility.yul\":18467:18490   */\n      swap1\n      pop\n        /* \"#utility.yul\":18443:18492   */\n    tag_419:\n        /* \"#utility.yul\":18505:18585   */\n      tag_420\n        /* \"#utility.yul\":18561:18583   */\n      tag_421\n        /* \"#utility.yul\":18579:18582   */\n      dup6\n        /* \"#utility.yul\":18561:18583   */\n      tag_220\n      jump\t// in\n    tag_421:\n        /* \"#utility.yul\":18551:18559   */\n      dup4\n        /* \"#utility.yul\":18547:18584   */\n      add\n        /* \"#utility.yul\":18534:18545   */\n      dup3\n        /* \"#utility.yul\":18505:18585   */\n      tag_230\n      jump\t// in\n    tag_420:\n        /* \"#utility.yul\":18164:18595   */\n      pop\n      pop\n        /* \"#utility.yul\":18149:18595   */\n    tag_416:\n        /* \"#utility.yul\":18059:18602   */\n      pop\n      pop\n      pop\n      jump\t// out\n        /* \"#utility.yul\":18608:18725   */\n    tag_232:\n        /* \"#utility.yul\":18662:18670   */\n      0x00\n        /* \"#utility.yul\":18712:18717   */\n      dup3\n        /* \"#utility.yul\":18706:18710   */\n      dup3\n        /* \"#utility.yul\":18702:18718   */\n      shr\n        /* \"#utility.yul\":18681:18718   */\n      swap1\n      pop\n        /* \"#utility.yul\":18608:18725   */\n      swap3\n      swap2\n      pop\n      pop\n      jump\t// out\n        /* \"#utility.yul\":18731:18900   */\n    tag_233:\n        /* \"#utility.yul\":18775:18781   */\n      0x00\n        /* \"#utility.yul\":18808:18859   */\n      tag_424\n        /* \"#utility.yul\":18856:18857   */\n      0x00\n        /* \"#utility.yul\":18852:18858   */\n      not\n        /* \"#utility.yul\":18844:18849   */\n      dup5\n        /* \"#utility.yul\":18841:18842   */\n      0x08\n        /* \"#utility.yul\":18837:18850   */\n      mul\n        /* \"#utility.yul\":18808:18859   */\n      tag_232\n      jump\t// in\n    tag_424:\n        /* \"#utility.yul\":18804:18860   */\n      not\n        /* \"#utility.yul\":18889:18893   */\n      dup1\n        /* \"#utility.yul\":18883:18887   */\n      dup4\n        /* \"#utility.yul\":18879:18894   */\n      and\n        /* \"#utility.yul\":18869:18894   */\n      swap2\n      pop\n        /* \"#utility.yul\":18782:18900   */\n      pop\n        /* \"#utility.yul\":18731:18900   */\n      swap3\n      swap2\n      pop\n      pop\n      jump\t// out\n        /* \"#utility.yul\":18905:19200   */\n    tag_234:\n        /* \"#utility.yul\":18981:18985   */\n      0x00\n        /* \"#utility.yul\":19127:19156   */\n      tag_426\n        /* \"#utility.yul\":19152:19155   */\n      dup4\n        /* \"#utility.yul\":19146:19150   */\n      dup4\n        /* \"#utility.yul\":19127:19156   */\n      tag_233\n      jump\t// in\n    tag_426:\n        /* \"#utility.yul\":19119:19156   */\n      swap2\n      pop\n        /* \"#utility.yul\":19189:19192   */\n      dup3\n        /* \"#utility.yul\":19186:19187   */\n      0x02\n        /* \"#utility.yul\":19182:19193   */\n      mul\n        /* \"#utility.yul\":19176:19180   */\n      dup3\n        /* \"#utility.yul\":19173:19194   */\n      or\n        /* \"#utility.yul\":19165:19194   */\n      swap1\n      pop\n        /* \"#utility.yul\":18905:19200   */\n      swap3\n      swap2\n      pop\n      pop\n      jump\t// out\n        /* \"#utility.yul\":19205:20600   */\n    tag_112:\n        /* \"#utility.yul\":19322:19359   */\n      tag_428\n        /* \"#utility.yul\":19355:19358   */\n      dup3\n        /* \"#utility.yul\":19322:19359   */\n      tag_186\n      jump\t// in\n    tag_428:\n        /* \"#utility.yul\":19424:19442   */\n      0xffffffffffffffff\n        /* \"#utility.yul\":19416:19422   */\n      dup2\n        /* \"#utility.yul\":19413:19443   */\n      gt\n        /* \"#utility.yul\":19410:19466   */\n      iszero\n      tag_429\n      jumpi\n        /* \"#utility.yul\":19446:19464   */\n      tag_430\n      tag_210\n      jump\t// in\n    tag_430:\n        /* \"#utility.yul\":19410:19466   */\n    tag_429:\n        /* \"#utility.yul\":19490:19528   */\n      tag_431\n        /* \"#utility.yul\":19522:19526   */\n      dup3\n        /* \"#utility.yul\":19516:19527   */\n      sload\n        /* \"#utility.yul\":19490:19528   */\n      tag_76\n      jump\t// in\n    tag_431:\n        /* \"#utility.yul\":19575:19642   */\n      tag_432\n        /* \"#utility.yul\":19635:19641   */\n      dup3\n        /* \"#utility.yul\":19627:19633   */\n      dup3\n        /* \"#utility.yul\":19621:19625   */\n      dup6\n        /* \"#utility.yul\":19575:19642   */\n      tag_231\n      jump\t// in\n    tag_432:\n        /* \"#utility.yul\":19669:19670   */\n      0x00\n        /* \"#utility.yul\":19693:19697   */\n      0x20\n        /* \"#utility.yul\":19680:19697   */\n      swap1\n      pop\n        /* \"#utility.yul\":19725:19727   */\n      0x1f\n        /* \"#utility.yul\":19717:19723   */\n      dup4\n        /* \"#utility.yul\":19714:19728   */\n      gt\n        /* \"#utility.yul\":19742:19743   */\n      0x01\n        /* \"#utility.yul\":19737:20355   */\n      dup2\n      eq\n      tag_434\n      jumpi\n        /* \"#utility.yul\":20399:20400   */\n      0x00\n        /* \"#utility.yul\":20416:20422   */\n      dup5\n        /* \"#utility.yul\":20413:20490   */\n      iszero\n      tag_435\n      jumpi\n        /* \"#utility.yul\":20465:20474   */\n      dup3\n        /* \"#utility.yul\":20460:20463   */\n      dup8\n        /* \"#utility.yul\":20456:20475   */\n      add\n        /* \"#utility.yul\":20450:20476   */\n      mload\n        /* \"#utility.yul\":20441:20476   */\n      swap1\n      pop\n        /* \"#utility.yul\":20413:20490   */\n    tag_435:\n        /* \"#utility.yul\":20516:20583   */\n      tag_436\n        /* \"#utility.yul\":20576:20582   */\n      dup6\n        /* \"#utility.yul\":20569:20574   */\n      dup3\n        /* \"#utility.yul\":20516:20583   */\n      tag_234\n      jump\t// in\n    tag_436:\n        /* \"#utility.yul\":20510:20514   */\n      dup7\n        /* \"#utility.yul\":20503:20584   */\n      sstore\n        /* \"#utility.yul\":20372:20594   */\n      pop\n        /* \"#utility.yul\":19707:20594   */\n      jump(tag_433)\n        /* \"#utility.yul\":19737:20355   */\n    tag_434:\n        /* \"#utility.yul\":19789:19793   */\n      0x1f\n        /* \"#utility.yul\":19785:19794   */\n      not\n        /* \"#utility.yul\":19777:19783   */\n      dup5\n        /* \"#utility.yul\":19773:19795   */\n      and\n        /* \"#utility.yul\":19823:19860   */\n      tag_437\n        /* \"#utility.yul\":19855:19859   */\n      dup7\n        /* \"#utility.yul\":19823:19860   */\n      tag_219\n      jump\t// in\n    tag_437:\n        /* \"#utility.yul\":19882:19883   */\n      0x00\n        /* \"#utility.yul\":19896:20104   */\n    tag_438:\n        /* \"#utility.yul\":19910:19917   */\n      dup3\n        /* \"#utility.yul\":19907:19908   */\n      dup2\n        /* \"#utility.yul\":19904:19918   */\n      lt\n        /* \"#utility.yul\":19896:20104   */\n      iszero\n      tag_440\n      jumpi\n        /* \"#utility.yul\":19989:19998   */\n      dup5\n        /* \"#utility.yul\":19984:19987   */\n      dup10\n        /* \"#utility.yul\":19980:19999   */\n      add\n        /* \"#utility.yul\":19974:20000   */\n      mload\n        /* \"#utility.yul\":19966:19972   */\n      dup3\n        /* \"#utility.yul\":19959:20001   */\n      sstore\n        /* \"#utility.yul\":20040:20041   */\n      0x01\n        /* \"#utility.yul\":20032:20038   */\n      dup3\n        /* \"#utility.yul\":20028:20042   */\n      add\n        /* \"#utility.yul\":20018:20042   */\n      swap2\n      pop\n        /* \"#utility.yul\":20087:20089   */\n      0x20\n        /* \"#utility.yul\":20076:20085   */\n      dup6\n        /* \"#utility.yul\":20072:20090   */\n      add\n        /* \"#utility.yul\":20059:20090   */\n      swap5\n      pop\n        /* \"#utility.yul\":19933:19937   */\n      0x20\n        /* \"#utility.yul\":19930:19931   */\n      dup2\n        /* \"#utility.yul\":19926:19938   */\n      add\n        /* \"#utility.yul\":19921:19938   */\n      swap1\n      pop\n        /* \"#utility.yul\":19896:20104   */\n      jump(tag_438)\n    tag_440:\n        /* \"#utility.yul\":20132:20138   */\n      dup7\n        /* \"#utility.yul\":20123:20130   */\n      dup4\n        /* \"#utility.yul\":20120:20139   */\n      lt\n        /* \"#utility.yul\":20117:20296   */\n      iszero\n      tag_441\n      jumpi\n        /* \"#utility.yul\":20190:20199   */\n      dup5\n        /* \"#utility.yul\":20185:20188   */\n      dup10\n        /* \"#utility.yul\":20181:20200   */\n      add\n        /* \"#utility.yul\":20175:20201   */\n      mload\n        /* \"#utility.yul\":20233:20281   */\n      tag_442\n        /* \"#utility.yul\":20275:20279   */\n      0x1f\n        /* \"#utility.yul\":20267:20273   */\n      dup10\n        /* \"#utility.yul\":20263:20280   */\n      and\n        /* \"#utility.yul\":20252:20261   */\n      dup3\n        /* \"#utility.yul\":20233:20281   */\n      tag_233\n      jump\t// in\n    tag_442:\n        /* \"#utility.yul\":20225:20231   */\n      dup4\n        /* \"#utility.yul\":20218:20282   */\n      sstore\n        /* \"#utility.yul\":20140:20296   */\n      pop\n        /* \"#utility.yul\":20117:20296   */\n    tag_441:\n        /* \"#utility.yul\":20342:20343   */\n      0x01\n        /* \"#utility.yul\":20338:20339   */\n      0x02\n        /* \"#utility.yul\":20330:20336   */\n      dup9\n        /* \"#utility.yul\":20326:20340   */\n      mul\n        /* \"#utility.yul\":20322:20344   */\n      add\n        /* \"#utility.yul\":20316:20320   */\n      dup9\n        /* \"#utility.yul\":20309:20345   */\n      sstore\n        /* \"#utility.yul\":19744:20355   */\n      pop\n      pop\n      pop\n        /* \"#utility.yul\":19707:20594   */\n    tag_433:\n      pop\n        /* \"#utility.yul\":19297:20600   */\n      pop\n      pop\n      pop\n        /* \"#utility.yul\":19205:20600   */\n      pop\n      pop\n      jump\t// out\n\n    auxdata: 0xa26469706673582212205b77edef2c11503b73337edf2bfda15c7feea5db6736eb83ae5741010314514a64736f6c63430008140033\n}\n",
				"bytecode": {
					"linkReferences": {},
					"object": "608060405234801561000f575f80fd5b50335f806101000a81548173ffffffffffffffffffffffffffffffffffffffff021916908373ffffffffffffffffffffffffffffffffffffffff160217905550611e1b8061005c5f395ff3fe608060405234801561000f575f80fd5b50600436106100cd575f3560e01c80637ef6a6451161008a578063a86622e011610064578063a86622e01461024b578063efe2ccc114610267578063f093cf801461029c578063f851a440146102cc576100cd565b80637ef6a645146101bb578063865bba9f146101eb5780639026dee81461021b576100cd565b80630869cfbc146100d15780630a911c7a1461010457806312ad1c371461013457806318cbdc331461015357806322fdbbab1461016f5780636529c7771461018b575b5f80fd5b6100eb60048036038101906100e6919061142a565b6102ea565b6040516100fb94939291906114df565b60405180910390f35b61011e6004803603810190610119919061142a565b61052e565b60405161012b9190611558565b60405180910390f35b61013c61054b565b60405161014a92919061172b565b60405180910390f35b61016d6004803603810190610168919061188c565b6106ad565b005b610189600480360381019061018491906118e6565b610800565b005b6101a560048036038101906101a0919061142a565b610937565b6040516101b29190611558565b60405180910390f35b6101d560048036038101906101d0919061142a565b610989565b6040516101e2919061196e565b60405180910390f35b6102056004803603810190610200919061142a565b610a58565b6040516102129190611558565b60405180910390f35b6102356004803603810190610230919061142a565b610a75565b6040516102429190611558565b60405180910390f35b6102656004803603810190610260919061198e565b610ac7565b005b610281600480360381019061027c919061142a565b610d9b565b60405161029396959493929190611a62565b60405180910390f35b6102b660048036038101906102b1919061142a565b6112fc565b6040516102c3919061196e565b60405180910390f35b6102d461139c565b6040516102e19190611afa565b60405180910390f35b6002602052805f5260405f205f91509050805f01805461030990611b40565b80601f016020809104026020016040519081016040528092919081815260200182805461033590611b40565b80156103805780601f1061035757610100808354040283529160200191610380565b820191905f5260205f20905b81548152906001019060200180831161036357829003601f168201915b50505050509080600101805461039590611b40565b80601f01602080910402602001604051908101604052809291908181526020018280546103c190611b40565b801561040c5780601f106103e35761010080835404028352916020019161040c565b820191905f5260205f20905b8154815290600101906020018083116103ef57829003601f168201915b50505050509080600201805461042190611b40565b80601f016020809104026020016040519081016040528092919081815260200182805461044d90611b40565b80156104985780601f1061046f57610100808354040283529160200191610498565b820191905f5260205f20905b81548152906001019060200180831161047b57829003601f168201915b5050505050908060030180546104ad90611b40565b80601f01602080910402602001604051908101604052809291908181526020018280546104d990611b40565b80156105245780601f106104fb57610100808354040283529160200191610524565b820191905f5260205f20905b81548152906001019060200180831161050757829003601f168201915b5050505050905084565b6001602052805f5260405f205f915054906101000a900460ff1681565b60608060046005818054806020026020016040519081016040528092919081815260200182805480156105d057602002820191905f5260205f20905b815f9054906101000a900473ffffffffffffffffffffffffffffffffffffffff1673ffffffffffffffffffffffffffffffffffffffff1681526020019060010190808311610587575b5050505050915080805480602002602001604051908101604052809291908181526020015f905b8282101561069f578382905f5260205f2001805461061490611b40565b80601f016020809104026020016040519081016040528092919081815260200182805461064090611b40565b801561068b5780601f106106625761010080835404028352916020019161068b565b820191905f5260205f20905b81548152906001019060200180831161066e57829003601f168201915b5050505050815260200190600101906105f7565b505050509050915091509091565b5f8054906101000a900473ffffffffffffffffffffffffffffffffffffffff1673ffffffffffffffffffffffffffffffffffffffff163373ffffffffffffffffffffffffffffffffffffffff1614610703575f80fd5b5f151560015f8373ffffffffffffffffffffffffffffffffffffffff1673ffffffffffffffffffffffffffffffffffffffff1681526020019081526020015f205f9054906101000a900460ff1615151461075b575f80fd5b8160065f8373ffffffffffffffffffffffffffffffffffffffff1673ffffffffffffffffffffffffffffffffffffffff1681526020019081526020015f205f0190816107a79190611d16565b506001805f8373ffffffffffffffffffffffffffffffffffffffff1673ffffffffffffffffffffffffffffffffffffffff1681526020019081526020015f205f6101000a81548160ff0219169083151502179055505050565b60015f3373ffffffffffffffffffffffffffffffffffffffff1673ffffffffffffffffffffffffffffffffffffffff1681526020019081526020015f205f9054906101000a900460ff16610852575f80fd5b60025f8473ffffffffffffffffffffffffffffffffffffffff1673ffffffffffffffffffffffffffffffffffffffff1681526020019081526020015f2060040182908060018154018082558091505060019003905f5260205f20015f9091909190915090816108c19190611d16565b5060025f8473ffffffffffffffffffffffffffffffffffffffff1673ffffffffffffffffffffffffffffffffffffffff1681526020019081526020015f2060050181908060018154018082558091505060019003905f5260205f20015f9091909190915090816109319190611d16565b50505050565b5f60035f8373ffffffffffffffffffffffffffffffffffffffff1673ffffffffffffffffffffffffffffffffffffffff1681526020019081526020015f205f9054906101000a900460ff169050919050565b606060065f8373ffffffffffffffffffffffffffffffffffffffff1673ffffffffffffffffffffffffffffffffffffffff1681526020019081526020015f205f0180546109d590611b40565b80601f0160208091040260200160405190810160405280929190818152602001828054610a0190611b40565b8015610a4c5780601f10610a2357610100808354040283529160200191610a4c565b820191905f5260205f20905b815481529060010190602001808311610a2f57829003601f168201915b50505050509050919050565b6003602052805f5260405f205f915054906101000a900460ff1681565b5f60015f8373ffffffffffffffffffffffffffffffffffffffff1673ffffffffffffffffffffffffffffffffffffffff1681526020019081526020015f205f9054906101000a900460ff169050919050565b5f151560015f3373ffffffffffffffffffffffffffffffffffffffff1673ffffffffffffffffffffffffffffffffffffffff1681526020019081526020015f205f9054906101000a900460ff16151514610b1f575f80fd5b5f151560035f3373ffffffffffffffffffffffffffffffffffffffff1673ffffffffffffffffffffffffffffffffffffffff1681526020019081526020015f205f9054906101000a900460ff16151514610b77575f80fd5b8360025f3373ffffffffffffffffffffffffffffffffffffffff1673ffffffffffffffffffffffffffffffffffffffff1681526020019081526020015f205f019081610bc39190611d16565b508260025f3373ffffffffffffffffffffffffffffffffffffffff1673ffffffffffffffffffffffffffffffffffffffff1681526020019081526020015f206001019081610c119190611d16565b508160025f3373ffffffffffffffffffffffffffffffffffffffff1673ffffffffffffffffffffffffffffffffffffffff1681526020019081526020015f206002019081610c5f9190611d16565b508060025f3373ffffffffffffffffffffffffffffffffffffffff1673ffffffffffffffffffffffffffffffffffffffff1681526020019081526020015f206003019081610cad9190611d16565b50600433908060018154018082558091505060019003905f5260205f20015f9091909190916101000a81548173ffffffffffffffffffffffffffffffffffffffff021916908373ffffffffffffffffffffffffffffffffffffffff160217905550600160035f3373ffffffffffffffffffffffffffffffffffffffff1673ffffffffffffffffffffffffffffffffffffffff1681526020019081526020015f205f6101000a81548160ff021916908315150217905550600584908060018154018082558091505060019003905f5260205f20015f909190919091509081610d949190611d16565b5050505050565b60608060608060608060025f8873ffffffffffffffffffffffffffffffffffffffff1673ffffffffffffffffffffffffffffffffffffffff1681526020019081526020015f205f0160025f8973ffffffffffffffffffffffffffffffffffffffff1673ffffffffffffffffffffffffffffffffffffffff1681526020019081526020015f2060010160025f8a73ffffffffffffffffffffffffffffffffffffffff1673ffffffffffffffffffffffffffffffffffffffff1681526020019081526020015f2060020160025f8b73ffffffffffffffffffffffffffffffffffffffff1673ffffffffffffffffffffffffffffffffffffffff1681526020019081526020015f2060030160025f8c73ffffffffffffffffffffffffffffffffffffffff1673ffffffffffffffffffffffffffffffffffffffff1681526020019081526020015f2060040160025f8d73ffffffffffffffffffffffffffffffffffffffff1673ffffffffffffffffffffffffffffffffffffffff1681526020019081526020015f20600501858054610f2f90611b40565b80601f0160208091040260200160405190810160405280929190818152602001828054610f5b90611b40565b8015610fa65780601f10610f7d57610100808354040283529160200191610fa6565b820191905f5260205f20905b815481529060010190602001808311610f8957829003601f168201915b50505050509550848054610fb990611b40565b80601f0160208091040260200160405190810160405280929190818152602001828054610fe590611b40565b80156110305780601f1061100757610100808354040283529160200191611030565b820191905f5260205f20905b81548152906001019060200180831161101357829003601f168201915b5050505050945083805461104390611b40565b80601f016020809104026020016040519081016040528092919081815260200182805461106f90611b40565b80156110ba5780601f10611091576101008083540402835291602001916110ba565b820191905f5260205f20905b81548152906001019060200180831161109d57829003601f168201915b505050505093508280546110cd90611b40565b80601f01602080910402602001604051908101604052809291908181526020018280546110f990611b40565b80156111445780601f1061111b57610100808354040283529160200191611144565b820191905f5260205f20905b81548152906001019060200180831161112757829003601f168201915b5050505050925081805480602002602001604051908101604052809291908181526020015f905b82821015611213578382905f5260205f2001805461118890611b40565b80601f01602080910402602001604051908101604052809291908181526020018280546111b490611b40565b80156111ff5780601f106111d6576101008083540402835291602001916111ff565b820191905f5260205f20905b8154815290600101906020018083116111e257829003601f168201915b50505050508152602001906001019061116b565b50505050915080805480602002602001604051908101604052809291908181526020015f905b828210156112e1578382905f5260205f2001805461125690611b40565b80601f016020809104026020016040519081016040528092919081815260200182805461128290611b40565b80156112cd5780601f106112a4576101008083540402835291602001916112cd565b820191905f5260205f20905b8154815290600101906020018083116112b057829003601f168201915b505050505081526020019060010190611239565b50505050905095509550955095509550955091939550919395565b6006602052805f5260405f205f91509050805f01805461131b90611b40565b80601f016020809104026020016040519081016040528092919081815260200182805461134790611b40565b80156113925780601f1061136957610100808354040283529160200191611392565b820191905f5260205f20905b81548152906001019060200180831161137557829003601f168201915b5050505050905081565b5f8054906101000a900473ffffffffffffffffffffffffffffffffffffffff1681565b5f604051905090565b5f80fd5b5f80fd5b5f73ffffffffffffffffffffffffffffffffffffffff82169050919050565b5f6113f9826113d0565b9050919050565b611409816113ef565b8114611413575f80fd5b50565b5f8135905061142481611400565b92915050565b5f6020828403121561143f5761143e6113c8565b5b5f61144c84828501611416565b91505092915050565b5f81519050919050565b5f82825260208201905092915050565b5f5b8381101561148c578082015181840152602081019050611471565b5f8484015250505050565b5f601f19601f8301169050919050565b5f6114b182611455565b6114bb818561145f565b93506114cb81856020860161146f565b6114d481611497565b840191505092915050565b5f6080820190508181035f8301526114f781876114a7565b9050818103602083015261150b81866114a7565b9050818103604083015261151f81856114a7565b9050818103606083015261153381846114a7565b905095945050505050565b5f8115159050919050565b6115528161153e565b82525050565b5f60208201905061156b5f830184611549565b92915050565b5f81519050919050565b5f82825260208201905092915050565b5f819050602082019050919050565b6115a3816113ef565b82525050565b5f6115b4838361159a565b60208301905092915050565b5f602082019050919050565b5f6115d682611571565b6115e0818561157b565b93506115eb8361158b565b805f5b8381101561161b57815161160288826115a9565b975061160d836115c0565b9250506001810190506115ee565b5085935050505092915050565b5f81519050919050565b5f82825260208201905092915050565b5f819050602082019050919050565b5f82825260208201905092915050565b5f61166b82611455565b6116758185611651565b935061168581856020860161146f565b61168e81611497565b840191505092915050565b5f6116a48383611661565b905092915050565b5f602082019050919050565b5f6116c282611628565b6116cc8185611632565b9350836020820285016116de85611642565b805f5b8581101561171957848403895281516116fa8582611699565b9450611705836116ac565b925060208a019950506001810190506116e1565b50829750879550505050505092915050565b5f6040820190508181035f83015261174381856115cc565b9050818103602083015261175781846116b8565b90509392505050565b5f80fd5b5f80fd5b7f4e487b71000000000000000000000000000000000000000000000000000000005f52604160045260245ffd5b61179e82611497565b810181811067ffffffffffffffff821117156117bd576117bc611768565b5b80604052505050565b5f6117cf6113bf565b90506117db8282611795565b919050565b5f67ffffffffffffffff8211156117fa576117f9611768565b5b61180382611497565b9050602081019050919050565b828183375f83830152505050565b5f61183061182b846117e0565b6117c6565b90508281526020810184848401111561184c5761184b611764565b5b611857848285611810565b509392505050565b5f82601f83011261187357611872611760565b5b813561188384826020860161181e565b91505092915050565b5f80604083850312156118a2576118a16113c8565b5b5f83013567ffffffffffffffff8111156118bf576118be6113cc565b5b6118cb8582860161185f565b92505060206118dc85828601611416565b9150509250929050565b5f805f606084860312156118fd576118fc6113c8565b5b5f61190a86828701611416565b935050602084013567ffffffffffffffff81111561192b5761192a6113cc565b5b6119378682870161185f565b925050604084013567ffffffffffffffff811115611958576119576113cc565b5b6119648682870161185f565b9150509250925092565b5f6020820190508181035f83015261198681846114a7565b905092915050565b5f805f80608085870312156119a6576119a56113c8565b5b5f85013567ffffffffffffffff8111156119c3576119c26113cc565b5b6119cf8782880161185f565b945050602085013567ffffffffffffffff8111156119f0576119ef6113cc565b5b6119fc8782880161185f565b935050604085013567ffffffffffffffff811115611a1d57611a1c6113cc565b5b611a298782880161185f565b925050606085013567ffffffffffffffff811115611a4a57611a496113cc565b5b611a568782880161185f565b91505092959194509250565b5f60c0820190508181035f830152611a7a81896114a7565b90508181036020830152611a8e81886114a7565b90508181036040830152611aa281876114a7565b90508181036060830152611ab681866114a7565b90508181036080830152611aca81856116b8565b905081810360a0830152611ade81846116b8565b9050979650505050505050565b611af4816113ef565b82525050565b5f602082019050611b0d5f830184611aeb565b92915050565b7f4e487b71000000000000000000000000000000000000000000000000000000005f52602260045260245ffd5b5f6002820490506001821680611b5757607f821691505b602082108103611b6a57611b69611b13565b5b50919050565b5f819050815f5260205f209050919050565b5f6020601f8301049050919050565b5f82821b905092915050565b5f60088302611bcc7fffffffffffffffffffffffffffffffffffffffffffffffffffffffffffffffff82611b91565b611bd68683611b91565b95508019841693508086168417925050509392505050565b5f819050919050565b5f819050919050565b5f611c1a611c15611c1084611bee565b611bf7565b611bee565b9050919050565b5f819050919050565b611c3383611c00565b611c47611c3f82611c21565b848454611b9d565b825550505050565b5f90565b611c5b611c4f565b611c66818484611c2a565b505050565b5b81811015611c8957611c7e5f82611c53565b600181019050611c6c565b5050565b601f821115611cce57611c9f81611b70565b611ca884611b82565b81016020851015611cb7578190505b611ccb611cc385611b82565b830182611c6b565b50505b505050565b5f82821c905092915050565b5f611cee5f1984600802611cd3565b1980831691505092915050565b5f611d068383611cdf565b9150826002028217905092915050565b611d1f82611455565b67ffffffffffffffff811115611d3857611d37611768565b5b611d428254611b40565b611d4d828285611c8d565b5f60209050601f831160018114611d7e575f8415611d6c578287015190505b611d768582611cfb565b865550611ddd565b601f198416611d8c86611b70565b5f5b82811015611db357848901518255600182019150602085019450602081019050611d8e565b86831015611dd05784890151611dcc601f891682611cdf565b8355505b6001600288020188555050505b50505050505056fea26469706673582212205b77edef2c11503b73337edf2bfda15c7feea5db6736eb83ae5741010314514a64736f6c63430008140033",
					"opcodes": "PUSH1 0x80 PUSH1 0x40 MSTORE CALLVALUE DUP1 ISZERO PUSH2 0xF JUMPI PUSH0 DUP1 REVERT JUMPDEST POP CALLER PUSH0 DUP1 PUSH2 0x100 EXP DUP2 SLOAD DUP2 PUSH20 0xFFFFFFFFFFFFFFFFFFFFFFFFFFFFFFFFFFFFFFFF MUL NOT AND SWAP1 DUP4 PUSH20 0xFFFFFFFFFFFFFFFFFFFFFFFFFFFFFFFFFFFFFFFF AND MUL OR SWAP1 SSTORE POP PUSH2 0x1E1B DUP1 PUSH2 0x5C PUSH0 CODECOPY PUSH0 RETURN INVALID PUSH1 0x80 PUSH1 0x40 MSTORE CALLVALUE DUP1 ISZERO PUSH2 0xF JUMPI PUSH0 DUP1 REVERT JUMPDEST POP PUSH1 0x4 CALLDATASIZE LT PUSH2 0xCD JUMPI PUSH0 CALLDATALOAD PUSH1 0xE0 SHR DUP1 PUSH4 0x7EF6A645 GT PUSH2 0x8A JUMPI DUP1 PUSH4 0xA86622E0 GT PUSH2 0x64 JUMPI DUP1 PUSH4 0xA86622E0 EQ PUSH2 0x24B JUMPI DUP1 PUSH4 0xEFE2CCC1 EQ PUSH2 0x267 JUMPI DUP1 PUSH4 0xF093CF80 EQ PUSH2 0x29C JUMPI DUP1 PUSH4 0xF851A440 EQ PUSH2 0x2CC JUMPI PUSH2 0xCD JUMP JUMPDEST DUP1 PUSH4 0x7EF6A645 EQ PUSH2 0x1BB JUMPI DUP1 PUSH4 0x865BBA9F EQ PUSH2 0x1EB JUMPI DUP1 PUSH4 0x9026DEE8 EQ PUSH2 0x21B JUMPI PUSH2 0xCD JUMP JUMPDEST DUP1 PUSH4 0x869CFBC EQ PUSH2 0xD1 JUMPI DUP1 PUSH4 0xA911C7A EQ PUSH2 0x104 JUMPI DUP1 PUSH4 0x12AD1C37 EQ PUSH2 0x134 JUMPI DUP1 PUSH4 0x18CBDC33 EQ PUSH2 0x153 JUMPI DUP1 PUSH4 0x22FDBBAB EQ PUSH2 0x16F JUMPI DUP1 PUSH4 0x6529C777 EQ PUSH2 0x18B JUMPI JUMPDEST PUSH0 DUP1 REVERT JUMPDEST PUSH2 0xEB PUSH1 0x4 DUP1 CALLDATASIZE SUB DUP2 ADD SWAP1 PUSH2 0xE6 SWAP2 SWAP1 PUSH2 0x142A JUMP JUMPDEST PUSH2 0x2EA JUMP JUMPDEST PUSH1 0x40 MLOAD PUSH2 0xFB SWAP5 SWAP4 SWAP3 SWAP2 SWAP1 PUSH2 0x14DF JUMP JUMPDEST PUSH1 0x40 MLOAD DUP1 SWAP2 SUB SWAP1 RETURN JUMPDEST PUSH2 0x11E PUSH1 0x4 DUP1 CALLDATASIZE SUB DUP2 ADD SWAP1 PUSH2 0x119 SWAP2 SWAP1 PUSH2 0x142A JUMP JUMPDEST PUSH2 0x52E JUMP JUMPDEST PUSH1 0x40 MLOAD PUSH2 0x12B SWAP2 SWAP1 PUSH2 0x1558 JUMP JUMPDEST PUSH1 0x40 MLOAD DUP1 SWAP2 SUB SWAP1 RETURN JUMPDEST PUSH2 0x13C PUSH2 0x54B JUMP JUMPDEST PUSH1 0x40 MLOAD PUSH2 0x14A SWAP3 SWAP2 SWAP1 PUSH2 0x172B JUMP JUMPDEST PUSH1 0x40 MLOAD DUP1 SWAP2 SUB SWAP1 RETURN JUMPDEST PUSH2 0x16D PUSH1 0x4 DUP1 CALLDATASIZE SUB DUP2 ADD SWAP1 PUSH2 0x168 SWAP2 SWAP1 PUSH2 0x188C JUMP JUMPDEST PUSH2 0x6AD JUMP JUMPDEST STOP JUMPDEST PUSH2 0x189 PUSH1 0x4 DUP1 CALLDATASIZE SUB DUP2 ADD SWAP1 PUSH2 0x184 SWAP2 SWAP1 PUSH2 0x18E6 JUMP JUMPDEST PUSH2 0x800 JUMP JUMPDEST STOP JUMPDEST PUSH2 0x1A5 PUSH1 0x4 DUP1 CALLDATASIZE SUB DUP2 ADD SWAP1 PUSH2 0x1A0 SWAP2 SWAP1 PUSH2 0x142A JUMP JUMPDEST PUSH2 0x937 JUMP JUMPDEST PUSH1 0x40 MLOAD PUSH2 0x1B2 SWAP2 SWAP1 PUSH2 0x1558 JUMP JUMPDEST PUSH1 0x40 MLOAD DUP1 SWAP2 SUB SWAP1 RETURN JUMPDEST PUSH2 0x1D5 PUSH1 0x4 DUP1 CALLDATASIZE SUB DUP2 ADD SWAP1 PUSH2 0x1D0 SWAP2 SWAP1 PUSH2 0x142A JUMP JUMPDEST PUSH2 0x989 JUMP JUMPDEST PUSH1 0x40 MLOAD PUSH2 0x1E2 SWAP2 SWAP1 PUSH2 0x196E JUMP JUMPDEST PUSH1 0x40 MLOAD DUP1 SWAP2 SUB SWAP1 RETURN JUMPDEST PUSH2 0x205 PUSH1 0x4 DUP1 CALLDATASIZE SUB DUP2 ADD SWAP1 PUSH2 0x200 SWAP2 SWAP1 PUSH2 0x142A JUMP JUMPDEST PUSH2 0xA58 JUMP JUMPDEST PUSH1 0x40 MLOAD PUSH2 0x212 SWAP2 SWAP1 PUSH2 0x1558 JUMP JUMPDEST PUSH1 0x40 MLOAD DUP1 SWAP2 SUB SWAP1 RETURN JUMPDEST PUSH2 0x235 PUSH1 0x4 DUP1 CALLDATASIZE SUB DUP2 ADD SWAP1 PUSH2 0x230 SWAP2 SWAP1 PUSH2 0x142A JUMP JUMPDEST PUSH2 0xA75 JUMP JUMPDEST PUSH1 0x40 MLOAD PUSH2 0x242 SWAP2 SWAP1 PUSH2 0x1558 JUMP JUMPDEST PUSH1 0x40 MLOAD DUP1 SWAP2 SUB SWAP1 RETURN JUMPDEST PUSH2 0x265 PUSH1 0x4 DUP1 CALLDATASIZE SUB DUP2 ADD SWAP1 PUSH2 0x260 SWAP2 SWAP1 PUSH2 0x198E JUMP JUMPDEST PUSH2 0xAC7 JUMP JUMPDEST STOP JUMPDEST PUSH2 0x281 PUSH1 0x4 DUP1 CALLDATASIZE SUB DUP2 ADD SWAP1 PUSH2 0x27C SWAP2 SWAP1 PUSH2 0x142A JUMP JUMPDEST PUSH2 0xD9B JUMP JUMPDEST PUSH1 0x40 MLOAD PUSH2 0x293 SWAP7 SWAP6 SWAP5 SWAP4 SWAP3 SWAP2 SWAP1 PUSH2 0x1A62 JUMP JUMPDEST PUSH1 0x40 MLOAD DUP1 SWAP2 SUB SWAP1 RETURN JUMPDEST PUSH2 0x2B6 PUSH1 0x4 DUP1 CALLDATASIZE SUB DUP2 ADD SWAP1 PUSH2 0x2B1 SWAP2 SWAP1 PUSH2 0x142A JUMP JUMPDEST PUSH2 0x12FC JUMP JUMPDEST PUSH1 0x40 MLOAD PUSH2 0x2C3 SWAP2 SWAP1 PUSH2 0x196E JUMP JUMPDEST PUSH1 0x40 MLOAD DUP1 SWAP2 SUB SWAP1 RETURN JUMPDEST PUSH2 0x2D4 PUSH2 0x139C JUMP JUMPDEST PUSH1 0x40 MLOAD PUSH2 0x2E1 SWAP2 SWAP1 PUSH2 0x1AFA JUMP JUMPDEST PUSH1 0x40 MLOAD DUP1 SWAP2 SUB SWAP1 RETURN JUMPDEST PUSH1 0x2 PUSH1 0x20 MSTORE DUP1 PUSH0 MSTORE PUSH1 0x40 PUSH0 KECCAK256 PUSH0 SWAP2 POP SWAP1 POP DUP1 PUSH0 ADD DUP1 SLOAD PUSH2 0x309 SWAP1 PUSH2 0x1B40 JUMP JUMPDEST DUP1 PUSH1 0x1F ADD PUSH1 0x20 DUP1 SWAP2 DIV MUL PUSH1 0x20 ADD PUSH1 0x40 MLOAD SWAP1 DUP2 ADD PUSH1 0x40 MSTORE DUP1 SWAP3 SWAP2 SWAP1 DUP2 DUP2 MSTORE PUSH1 0x20 ADD DUP3 DUP1 SLOAD PUSH2 0x335 SWAP1 PUSH2 0x1B40 JUMP JUMPDEST DUP1 ISZERO PUSH2 0x380 JUMPI DUP1 PUSH1 0x1F LT PUSH2 0x357 JUMPI PUSH2 0x100 DUP1 DUP4 SLOAD DIV MUL DUP4 MSTORE SWAP2 PUSH1 0x20 ADD SWAP2 PUSH2 0x380 JUMP JUMPDEST DUP3 ADD SWAP2 SWAP1 PUSH0 MSTORE PUSH1 0x20 PUSH0 KECCAK256 SWAP1 JUMPDEST DUP2 SLOAD DUP2 MSTORE SWAP1 PUSH1 0x1 ADD SWAP1 PUSH1 0x20 ADD DUP1 DUP4 GT PUSH2 0x363 JUMPI DUP3 SWAP1 SUB PUSH1 0x1F AND DUP3 ADD SWAP2 JUMPDEST POP POP POP POP POP SWAP1 DUP1 PUSH1 0x1 ADD DUP1 SLOAD PUSH2 0x395 SWAP1 PUSH2 0x1B40 JUMP JUMPDEST DUP1 PUSH1 0x1F ADD PUSH1 0x20 DUP1 SWAP2 DIV MUL PUSH1 0x20 ADD PUSH1 0x40 MLOAD SWAP1 DUP2 ADD PUSH1 0x40 MSTORE DUP1 SWAP3 SWAP2 SWAP1 DUP2 DUP2 MSTORE PUSH1 0x20 ADD DUP3 DUP1 SLOAD PUSH2 0x3C1 SWAP1 PUSH2 0x1B40 JUMP JUMPDEST DUP1 ISZERO PUSH2 0x40C JUMPI DUP1 PUSH1 0x1F LT PUSH2 0x3E3 JUMPI PUSH2 0x100 DUP1 DUP4 SLOAD DIV MUL DUP4 MSTORE SWAP2 PUSH1 0x20 ADD SWAP2 PUSH2 0x40C JUMP JUMPDEST DUP3 ADD SWAP2 SWAP1 PUSH0 MSTORE PUSH1 0x20 PUSH0 KECCAK256 SWAP1 JUMPDEST DUP2 SLOAD DUP2 MSTORE SWAP1 PUSH1 0x1 ADD SWAP1 PUSH1 0x20 ADD DUP1 DUP4 GT PUSH2 0x3EF JUMPI DUP3 SWAP1 SUB PUSH1 0x1F AND DUP3 ADD SWAP2 JUMPDEST POP POP POP POP POP SWAP1 DUP1 PUSH1 0x2 ADD DUP1 SLOAD PUSH2 0x421 SWAP1 PUSH2 0x1B40 JUMP JUMPDEST DUP1 PUSH1 0x1F ADD PUSH1 0x20 DUP1 SWAP2 DIV MUL PUSH1 0x20 ADD PUSH1 0x40 MLOAD SWAP1 DUP2 ADD PUSH1 0x40 MSTORE DUP1 SWAP3 SWAP2 SWAP1 DUP2 DUP2 MSTORE PUSH1 0x20 ADD DUP3 DUP1 SLOAD PUSH2 0x44D SWAP1 PUSH2 0x1B40 JUMP JUMPDEST DUP1 ISZERO PUSH2 0x498 JUMPI DUP1 PUSH1 0x1F LT PUSH2 0x46F JUMPI PUSH2 0x100 DUP1 DUP4 SLOAD DIV MUL DUP4 MSTORE SWAP2 PUSH1 0x20 ADD SWAP2 PUSH2 0x498 JUMP JUMPDEST DUP3 ADD SWAP2 SWAP1 PUSH0 MSTORE PUSH1 0x20 PUSH0 KECCAK256 SWAP1 JUMPDEST DUP2 SLOAD DUP2 MSTORE SWAP1 PUSH1 0x1 ADD SWAP1 PUSH1 0x20 ADD DUP1 DUP4 GT PUSH2 0x47B JUMPI DUP3 SWAP1 SUB PUSH1 0x1F AND DUP3 ADD SWAP2 JUMPDEST POP POP POP POP POP SWAP1 DUP1 PUSH1 0x3 ADD DUP1 SLOAD PUSH2 0x4AD SWAP1 PUSH2 0x1B40 JUMP JUMPDEST DUP1 PUSH1 0x1F ADD PUSH1 0x20 DUP1 SWAP2 DIV MUL PUSH1 0x20 ADD PUSH1 0x40 MLOAD SWAP1 DUP2 ADD PUSH1 0x40 MSTORE DUP1 SWAP3 SWAP2 SWAP1 DUP2 DUP2 MSTORE PUSH1 0x20 ADD DUP3 DUP1 SLOAD PUSH2 0x4D9 SWAP1 PUSH2 0x1B40 JUMP JUMPDEST DUP1 ISZERO PUSH2 0x524 JUMPI DUP1 PUSH1 0x1F LT PUSH2 0x4FB JUMPI PUSH2 0x100 DUP1 DUP4 SLOAD DIV MUL DUP4 MSTORE SWAP2 PUSH1 0x20 ADD SWAP2 PUSH2 0x524 JUMP JUMPDEST DUP3 ADD SWAP2 SWAP1 PUSH0 MSTORE PUSH1 0x20 PUSH0 KECCAK256 SWAP1 JUMPDEST DUP2 SLOAD DUP2 MSTORE SWAP1 PUSH1 0x1 ADD SWAP1 PUSH1 0x20 ADD DUP1 DUP4 GT PUSH2 0x507 JUMPI DUP3 SWAP1 SUB PUSH1 0x1F AND DUP3 ADD SWAP2 JUMPDEST POP POP POP POP POP SWAP1 POP DUP5 JUMP JUMPDEST PUSH1 0x1 PUSH1 0x20 MSTORE DUP1 PUSH0 MSTORE PUSH1 0x40 PUSH0 KECCAK256 PUSH0 SWAP2 POP SLOAD SWAP1 PUSH2 0x100 EXP SWAP1 DIV PUSH1 0xFF AND DUP2 JUMP JUMPDEST PUSH1 0x60 DUP1 PUSH1 0x4 PUSH1 0x5 DUP2 DUP1 SLOAD DUP1 PUSH1 0x20 MUL PUSH1 0x20 ADD PUSH1 0x40 MLOAD SWAP1 DUP2 ADD PUSH1 0x40 MSTORE DUP1 SWAP3 SWAP2 SWAP1 DUP2 DUP2 MSTORE PUSH1 0x20 ADD DUP3 DUP1 SLOAD DUP1 ISZERO PUSH2 0x5D0 JUMPI PUSH1 0x20 MUL DUP3 ADD SWAP2 SWAP1 PUSH0 MSTORE PUSH1 0x20 PUSH0 KECCAK256 SWAP1 JUMPDEST DUP2 PUSH0 SWAP1 SLOAD SWAP1 PUSH2 0x100 EXP SWAP1 DIV PUSH20 0xFFFFFFFFFFFFFFFFFFFFFFFFFFFFFFFFFFFFFFFF AND PUSH20 0xFFFFFFFFFFFFFFFFFFFFFFFFFFFFFFFFFFFFFFFF AND DUP2 MSTORE PUSH1 0x20 ADD SWAP1 PUSH1 0x1 ADD SWAP1 DUP1 DUP4 GT PUSH2 0x587 JUMPI JUMPDEST POP POP POP POP POP SWAP2 POP DUP1 DUP1 SLOAD DUP1 PUSH1 0x20 MUL PUSH1 0x20 ADD PUSH1 0x40 MLOAD SWAP1 DUP2 ADD PUSH1 0x40 MSTORE DUP1 SWAP3 SWAP2 SWAP1 DUP2 DUP2 MSTORE PUSH1 0x20 ADD PUSH0 SWAP1 JUMPDEST DUP3 DUP3 LT ISZERO PUSH2 0x69F JUMPI DUP4 DUP3 SWAP1 PUSH0 MSTORE PUSH1 0x20 PUSH0 KECCAK256 ADD DUP1 SLOAD PUSH2 0x614 SWAP1 PUSH2 0x1B40 JUMP JUMPDEST DUP1 PUSH1 0x1F ADD PUSH1 0x20 DUP1 SWAP2 DIV MUL PUSH1 0x20 ADD PUSH1 0x40 MLOAD SWAP1 DUP2 ADD PUSH1 0x40 MSTORE DUP1 SWAP3 SWAP2 SWAP1 DUP2 DUP2 MSTORE PUSH1 0x20 ADD DUP3 DUP1 SLOAD PUSH2 0x640 SWAP1 PUSH2 0x1B40 JUMP JUMPDEST DUP1 ISZERO PUSH2 0x68B JUMPI DUP1 PUSH1 0x1F LT PUSH2 0x662 JUMPI PUSH2 0x100 DUP1 DUP4 SLOAD DIV MUL DUP4 MSTORE SWAP2 PUSH1 0x20 ADD SWAP2 PUSH2 0x68B JUMP JUMPDEST DUP3 ADD SWAP2 SWAP1 PUSH0 MSTORE PUSH1 0x20 PUSH0 KECCAK256 SWAP1 JUMPDEST DUP2 SLOAD DUP2 MSTORE SWAP1 PUSH1 0x1 ADD SWAP1 PUSH1 0x20 ADD DUP1 DUP4 GT PUSH2 0x66E JUMPI DUP3 SWAP1 SUB PUSH1 0x1F AND DUP3 ADD SWAP2 JUMPDEST POP POP POP POP POP DUP2 MSTORE PUSH1 0x20 ADD SWAP1 PUSH1 0x1 ADD SWAP1 PUSH2 0x5F7 JUMP JUMPDEST POP POP POP POP SWAP1 POP SWAP2 POP SWAP2 POP SWAP1 SWAP2 JUMP JUMPDEST PUSH0 DUP1 SLOAD SWAP1 PUSH2 0x100 EXP SWAP1 DIV PUSH20 0xFFFFFFFFFFFFFFFFFFFFFFFFFFFFFFFFFFFFFFFF AND PUSH20 0xFFFFFFFFFFFFFFFFFFFFFFFFFFFFFFFFFFFFFFFF AND CALLER PUSH20 0xFFFFFFFFFFFFFFFFFFFFFFFFFFFFFFFFFFFFFFFF AND EQ PUSH2 0x703 JUMPI PUSH0 DUP1 REVERT JUMPDEST PUSH0 ISZERO ISZERO PUSH1 0x1 PUSH0 DUP4 PUSH20 0xFFFFFFFFFFFFFFFFFFFFFFFFFFFFFFFFFFFFFFFF AND PUSH20 0xFFFFFFFFFFFFFFFFFFFFFFFFFFFFFFFFFFFFFFFF AND DUP2 MSTORE PUSH1 0x20 ADD SWAP1 DUP2 MSTORE PUSH1 0x20 ADD PUSH0 KECCAK256 PUSH0 SWAP1 SLOAD SWAP1 PUSH2 0x100 EXP SWAP1 DIV PUSH1 0xFF AND ISZERO ISZERO EQ PUSH2 0x75B JUMPI PUSH0 DUP1 REVERT JUMPDEST DUP2 PUSH1 0x6 PUSH0 DUP4 PUSH20 0xFFFFFFFFFFFFFFFFFFFFFFFFFFFFFFFFFFFFFFFF AND PUSH20 0xFFFFFFFFFFFFFFFFFFFFFFFFFFFFFFFFFFFFFFFF AND DUP2 MSTORE PUSH1 0x20 ADD SWAP1 DUP2 MSTORE PUSH1 0x20 ADD PUSH0 KECCAK256 PUSH0 ADD SWAP1 DUP2 PUSH2 0x7A7 SWAP2 SWAP1 PUSH2 0x1D16 JUMP JUMPDEST POP PUSH1 0x1 DUP1 PUSH0 DUP4 PUSH20 0xFFFFFFFFFFFFFFFFFFFFFFFFFFFFFFFFFFFFFFFF AND PUSH20 0xFFFFFFFFFFFFFFFFFFFFFFFFFFFFFFFFFFFFFFFF AND DUP2 MSTORE PUSH1 0x20 ADD SWAP1 DUP2 MSTORE PUSH1 0x20 ADD PUSH0 KECCAK256 PUSH0 PUSH2 0x100 EXP DUP2 SLOAD DUP2 PUSH1 0xFF MUL NOT AND SWAP1 DUP4 ISZERO ISZERO MUL OR SWAP1 SSTORE POP POP POP JUMP JUMPDEST PUSH1 0x1 PUSH0 CALLER PUSH20 0xFFFFFFFFFFFFFFFFFFFFFFFFFFFFFFFFFFFFFFFF AND PUSH20 0xFFFFFFFFFFFFFFFFFFFFFFFFFFFFFFFFFFFFFFFF AND DUP2 MSTORE PUSH1 0x20 ADD SWAP1 DUP2 MSTORE PUSH1 0x20 ADD PUSH0 KECCAK256 PUSH0 SWAP1 SLOAD SWAP1 PUSH2 0x100 EXP SWAP1 DIV PUSH1 0xFF AND PUSH2 0x852 JUMPI PUSH0 DUP1 REVERT JUMPDEST PUSH1 0x2 PUSH0 DUP5 PUSH20 0xFFFFFFFFFFFFFFFFFFFFFFFFFFFFFFFFFFFFFFFF AND PUSH20 0xFFFFFFFFFFFFFFFFFFFFFFFFFFFFFFFFFFFFFFFF AND DUP2 MSTORE PUSH1 0x20 ADD SWAP1 DUP2 MSTORE PUSH1 0x20 ADD PUSH0 KECCAK256 PUSH1 0x4 ADD DUP3 SWAP1 DUP1 PUSH1 0x1 DUP2 SLOAD ADD DUP1 DUP3 SSTORE DUP1 SWAP2 POP POP PUSH1 0x1 SWAP1 SUB SWAP1 PUSH0 MSTORE PUSH1 0x20 PUSH0 KECCAK256 ADD PUSH0 SWAP1 SWAP2 SWAP1 SWAP2 SWAP1 SWAP2 POP SWAP1 DUP2 PUSH2 0x8C1 SWAP2 SWAP1 PUSH2 0x1D16 JUMP JUMPDEST POP PUSH1 0x2 PUSH0 DUP5 PUSH20 0xFFFFFFFFFFFFFFFFFFFFFFFFFFFFFFFFFFFFFFFF AND PUSH20 0xFFFFFFFFFFFFFFFFFFFFFFFFFFFFFFFFFFFFFFFF AND DUP2 MSTORE PUSH1 0x20 ADD SWAP1 DUP2 MSTORE PUSH1 0x20 ADD PUSH0 KECCAK256 PUSH1 0x5 ADD DUP2 SWAP1 DUP1 PUSH1 0x1 DUP2 SLOAD ADD DUP1 DUP3 SSTORE DUP1 SWAP2 POP POP PUSH1 0x1 SWAP1 SUB SWAP1 PUSH0 MSTORE PUSH1 0x20 PUSH0 KECCAK256 ADD PUSH0 SWAP1 SWAP2 SWAP1 SWAP2 SWAP1 SWAP2 POP SWAP1 DUP2 PUSH2 0x931 SWAP2 SWAP1 PUSH2 0x1D16 JUMP JUMPDEST POP POP POP POP JUMP JUMPDEST PUSH0 PUSH1 0x3 PUSH0 DUP4 PUSH20 0xFFFFFFFFFFFFFFFFFFFFFFFFFFFFFFFFFFFFFFFF AND PUSH20 0xFFFFFFFFFFFFFFFFFFFFFFFFFFFFFFFFFFFFFFFF AND DUP2 MSTORE PUSH1 0x20 ADD SWAP1 DUP2 MSTORE PUSH1 0x20 ADD PUSH0 KECCAK256 PUSH0 SWAP1 SLOAD SWAP1 PUSH2 0x100 EXP SWAP1 DIV PUSH1 0xFF AND SWAP1 POP SWAP2 SWAP1 POP JUMP JUMPDEST PUSH1 0x60 PUSH1 0x6 PUSH0 DUP4 PUSH20 0xFFFFFFFFFFFFFFFFFFFFFFFFFFFFFFFFFFFFFFFF AND PUSH20 0xFFFFFFFFFFFFFFFFFFFFFFFFFFFFFFFFFFFFFFFF AND DUP2 MSTORE PUSH1 0x20 ADD SWAP1 DUP2 MSTORE PUSH1 0x20 ADD PUSH0 KECCAK256 PUSH0 ADD DUP1 SLOAD PUSH2 0x9D5 SWAP1 PUSH2 0x1B40 JUMP JUMPDEST DUP1 PUSH1 0x1F ADD PUSH1 0x20 DUP1 SWAP2 DIV MUL PUSH1 0x20 ADD PUSH1 0x40 MLOAD SWAP1 DUP2 ADD PUSH1 0x40 MSTORE DUP1 SWAP3 SWAP2 SWAP1 DUP2 DUP2 MSTORE PUSH1 0x20 ADD DUP3 DUP1 SLOAD PUSH2 0xA01 SWAP1 PUSH2 0x1B40 JUMP JUMPDEST DUP1 ISZERO PUSH2 0xA4C JUMPI DUP1 PUSH1 0x1F LT PUSH2 0xA23 JUMPI PUSH2 0x100 DUP1 DUP4 SLOAD DIV MUL DUP4 MSTORE SWAP2 PUSH1 0x20 ADD SWAP2 PUSH2 0xA4C JUMP JUMPDEST DUP3 ADD SWAP2 SWAP1 PUSH0 MSTORE PUSH1 0x20 PUSH0 KECCAK256 SWAP1 JUMPDEST DUP2 SLOAD DUP2 MSTORE SWAP1 PUSH1 0x1 ADD SWAP1 PUSH1 0x20 ADD DUP1 DUP4 GT PUSH2 0xA2F JUMPI DUP3 SWAP1 SUB PUSH1 0x1F AND DUP3 ADD SWAP2 JUMPDEST POP POP POP POP POP SWAP1 POP SWAP2 SWAP1 POP JUMP JUMPDEST PUSH1 0x3 PUSH1 0x20 MSTORE DUP1 PUSH0 MSTORE PUSH1 0x40 PUSH0 KECCAK256 PUSH0 SWAP2 POP SLOAD SWAP1 PUSH2 0x100 EXP SWAP1 DIV PUSH1 0xFF AND DUP2 JUMP JUMPDEST PUSH0 PUSH1 0x1 PUSH0 DUP4 PUSH20 0xFFFFFFFFFFFFFFFFFFFFFFFFFFFFFFFFFFFFFFFF AND PUSH20 0xFFFFFFFFFFFFFFFFFFFFFFFFFFFFFFFFFFFFFFFF AND DUP2 MSTORE PUSH1 0x20 ADD SWAP1 DUP2 MSTORE PUSH1 0x20 ADD PUSH0 KECCAK256 PUSH0 SWAP1 SLOAD SWAP1 PUSH2 0x100 EXP SWAP1 DIV PUSH1 0xFF AND SWAP1 POP SWAP2 SWAP1 POP JUMP JUMPDEST PUSH0 ISZERO ISZERO PUSH1 0x1 PUSH0 CALLER PUSH20 0xFFFFFFFFFFFFFFFFFFFFFFFFFFFFFFFFFFFFFFFF AND PUSH20 0xFFFFFFFFFFFFFFFFFFFFFFFFFFFFFFFFFFFFFFFF AND DUP2 MSTORE PUSH1 0x20 ADD SWAP1 DUP2 MSTORE PUSH1 0x20 ADD PUSH0 KECCAK256 PUSH0 SWAP1 SLOAD SWAP1 PUSH2 0x100 EXP SWAP1 DIV PUSH1 0xFF AND ISZERO ISZERO EQ PUSH2 0xB1F JUMPI PUSH0 DUP1 REVERT JUMPDEST PUSH0 ISZERO ISZERO PUSH1 0x3 PUSH0 CALLER PUSH20 0xFFFFFFFFFFFFFFFFFFFFFFFFFFFFFFFFFFFFFFFF AND PUSH20 0xFFFFFFFFFFFFFFFFFFFFFFFFFFFFFFFFFFFFFFFF AND DUP2 MSTORE PUSH1 0x20 ADD SWAP1 DUP2 MSTORE PUSH1 0x20 ADD PUSH0 KECCAK256 PUSH0 SWAP1 SLOAD SWAP1 PUSH2 0x100 EXP SWAP1 DIV PUSH1 0xFF AND ISZERO ISZERO EQ PUSH2 0xB77 JUMPI PUSH0 DUP1 REVERT JUMPDEST DUP4 PUSH1 0x2 PUSH0 CALLER PUSH20 0xFFFFFFFFFFFFFFFFFFFFFFFFFFFFFFFFFFFFFFFF AND PUSH20 0xFFFFFFFFFFFFFFFFFFFFFFFFFFFFFFFFFFFFFFFF AND DUP2 MSTORE PUSH1 0x20 ADD SWAP1 DUP2 MSTORE PUSH1 0x20 ADD PUSH0 KECCAK256 PUSH0 ADD SWAP1 DUP2 PUSH2 0xBC3 SWAP2 SWAP1 PUSH2 0x1D16 JUMP JUMPDEST POP DUP3 PUSH1 0x2 PUSH0 CALLER PUSH20 0xFFFFFFFFFFFFFFFFFFFFFFFFFFFFFFFFFFFFFFFF AND PUSH20 0xFFFFFFFFFFFFFFFFFFFFFFFFFFFFFFFFFFFFFFFF AND DUP2 MSTORE PUSH1 0x20 ADD SWAP1 DUP2 MSTORE PUSH1 0x20 ADD PUSH0 KECCAK256 PUSH1 0x1 ADD SWAP1 DUP2 PUSH2 0xC11 SWAP2 SWAP1 PUSH2 0x1D16 JUMP JUMPDEST POP DUP2 PUSH1 0x2 PUSH0 CALLER PUSH20 0xFFFFFFFFFFFFFFFFFFFFFFFFFFFFFFFFFFFFFFFF AND PUSH20 0xFFFFFFFFFFFFFFFFFFFFFFFFFFFFFFFFFFFFFFFF AND DUP2 MSTORE PUSH1 0x20 ADD SWAP1 DUP2 MSTORE PUSH1 0x20 ADD PUSH0 KECCAK256 PUSH1 0x2 ADD SWAP1 DUP2 PUSH2 0xC5F SWAP2 SWAP1 PUSH2 0x1D16 JUMP JUMPDEST POP DUP1 PUSH1 0x2 PUSH0 CALLER PUSH20 0xFFFFFFFFFFFFFFFFFFFFFFFFFFFFFFFFFFFFFFFF AND PUSH20 0xFFFFFFFFFFFFFFFFFFFFFFFFFFFFFFFFFFFFFFFF AND DUP2 MSTORE PUSH1 0x20 ADD SWAP1 DUP2 MSTORE PUSH1 0x20 ADD PUSH0 KECCAK256 PUSH1 0x3 ADD SWAP1 DUP2 PUSH2 0xCAD SWAP2 SWAP1 PUSH2 0x1D16 JUMP JUMPDEST POP PUSH1 0x4 CALLER SWAP1 DUP1 PUSH1 0x1 DUP2 SLOAD ADD DUP1 DUP3 SSTORE DUP1 SWAP2 POP POP PUSH1 0x1 SWAP1 SUB SWAP1 PUSH0 MSTORE PUSH1 0x20 PUSH0 KECCAK256 ADD PUSH0 SWAP1 SWAP2 SWAP1 SWAP2 SWAP1 SWAP2 PUSH2 0x100 EXP DUP2 SLOAD DUP2 PUSH20 0xFFFFFFFFFFFFFFFFFFFFFFFFFFFFFFFFFFFFFFFF MUL NOT AND SWAP1 DUP4 PUSH20 0xFFFFFFFFFFFFFFFFFFFFFFFFFFFFFFFFFFFFFFFF AND MUL OR SWAP1 SSTORE POP PUSH1 0x1 PUSH1 0x3 PUSH0 CALLER PUSH20 0xFFFFFFFFFFFFFFFFFFFFFFFFFFFFFFFFFFFFFFFF AND PUSH20 0xFFFFFFFFFFFFFFFFFFFFFFFFFFFFFFFFFFFFFFFF AND DUP2 MSTORE PUSH1 0x20 ADD SWAP1 DUP2 MSTORE PUSH1 0x20 ADD PUSH0 KECCAK256 PUSH0 PUSH2 0x100 EXP DUP2 SLOAD DUP2 PUSH1 0xFF MUL NOT AND SWAP1 DUP4 ISZERO ISZERO MUL OR SWAP1 SSTORE POP PUSH1 0x5 DUP5 SWAP1 DUP1 PUSH1 0x1 DUP2 SLOAD ADD DUP1 DUP3 SSTORE DUP1 SWAP2 POP POP PUSH1 0x1 SWAP1 SUB SWAP1 PUSH0 MSTORE PUSH1 0x20 PUSH0 KECCAK256 ADD PUSH0 SWAP1 SWAP2 SWAP1 SWAP2 SWAP1 SWAP2 POP SWAP1 DUP2 PUSH2 0xD94 SWAP2 SWAP1 PUSH2 0x1D16 JUMP JUMPDEST POP POP POP POP POP JUMP JUMPDEST PUSH1 0x60 DUP1 PUSH1 0x60 DUP1 PUSH1 0x60 DUP1 PUSH1 0x2 PUSH0 DUP9 PUSH20 0xFFFFFFFFFFFFFFFFFFFFFFFFFFFFFFFFFFFFFFFF AND PUSH20 0xFFFFFFFFFFFFFFFFFFFFFFFFFFFFFFFFFFFFFFFF AND DUP2 MSTORE PUSH1 0x20 ADD SWAP1 DUP2 MSTORE PUSH1 0x20 ADD PUSH0 KECCAK256 PUSH0 ADD PUSH1 0x2 PUSH0 DUP10 PUSH20 0xFFFFFFFFFFFFFFFFFFFFFFFFFFFFFFFFFFFFFFFF AND PUSH20 0xFFFFFFFFFFFFFFFFFFFFFFFFFFFFFFFFFFFFFFFF AND DUP2 MSTORE PUSH1 0x20 ADD SWAP1 DUP2 MSTORE PUSH1 0x20 ADD PUSH0 KECCAK256 PUSH1 0x1 ADD PUSH1 0x2 PUSH0 DUP11 PUSH20 0xFFFFFFFFFFFFFFFFFFFFFFFFFFFFFFFFFFFFFFFF AND PUSH20 0xFFFFFFFFFFFFFFFFFFFFFFFFFFFFFFFFFFFFFFFF AND DUP2 MSTORE PUSH1 0x20 ADD SWAP1 DUP2 MSTORE PUSH1 0x20 ADD PUSH0 KECCAK256 PUSH1 0x2 ADD PUSH1 0x2 PUSH0 DUP12 PUSH20 0xFFFFFFFFFFFFFFFFFFFFFFFFFFFFFFFFFFFFFFFF AND PUSH20 0xFFFFFFFFFFFFFFFFFFFFFFFFFFFFFFFFFFFFFFFF AND DUP2 MSTORE PUSH1 0x20 ADD SWAP1 DUP2 MSTORE PUSH1 0x20 ADD PUSH0 KECCAK256 PUSH1 0x3 ADD PUSH1 0x2 PUSH0 DUP13 PUSH20 0xFFFFFFFFFFFFFFFFFFFFFFFFFFFFFFFFFFFFFFFF AND PUSH20 0xFFFFFFFFFFFFFFFFFFFFFFFFFFFFFFFFFFFFFFFF AND DUP2 MSTORE PUSH1 0x20 ADD SWAP1 DUP2 MSTORE PUSH1 0x20 ADD PUSH0 KECCAK256 PUSH1 0x4 ADD PUSH1 0x2 PUSH0 DUP14 PUSH20 0xFFFFFFFFFFFFFFFFFFFFFFFFFFFFFFFFFFFFFFFF AND PUSH20 0xFFFFFFFFFFFFFFFFFFFFFFFFFFFFFFFFFFFFFFFF AND DUP2 MSTORE PUSH1 0x20 ADD SWAP1 DUP2 MSTORE PUSH1 0x20 ADD PUSH0 KECCAK256 PUSH1 0x5 ADD DUP6 DUP1 SLOAD PUSH2 0xF2F SWAP1 PUSH2 0x1B40 JUMP JUMPDEST DUP1 PUSH1 0x1F ADD PUSH1 0x20 DUP1 SWAP2 DIV MUL PUSH1 0x20 ADD PUSH1 0x40 MLOAD SWAP1 DUP2 ADD PUSH1 0x40 MSTORE DUP1 SWAP3 SWAP2 SWAP1 DUP2 DUP2 MSTORE PUSH1 0x20 ADD DUP3 DUP1 SLOAD PUSH2 0xF5B SWAP1 PUSH2 0x1B40 JUMP JUMPDEST DUP1 ISZERO PUSH2 0xFA6 JUMPI DUP1 PUSH1 0x1F LT PUSH2 0xF7D JUMPI PUSH2 0x100 DUP1 DUP4 SLOAD DIV MUL DUP4 MSTORE SWAP2 PUSH1 0x20 ADD SWAP2 PUSH2 0xFA6 JUMP JUMPDEST DUP3 ADD SWAP2 SWAP1 PUSH0 MSTORE PUSH1 0x20 PUSH0 KECCAK256 SWAP1 JUMPDEST DUP2 SLOAD DUP2 MSTORE SWAP1 PUSH1 0x1 ADD SWAP1 PUSH1 0x20 ADD DUP1 DUP4 GT PUSH2 0xF89 JUMPI DUP3 SWAP1 SUB PUSH1 0x1F AND DUP3 ADD SWAP2 JUMPDEST POP POP POP POP POP SWAP6 POP DUP5 DUP1 SLOAD PUSH2 0xFB9 SWAP1 PUSH2 0x1B40 JUMP JUMPDEST DUP1 PUSH1 0x1F ADD PUSH1 0x20 DUP1 SWAP2 DIV MUL PUSH1 0x20 ADD PUSH1 0x40 MLOAD SWAP1 DUP2 ADD PUSH1 0x40 MSTORE DUP1 SWAP3 SWAP2 SWAP1 DUP2 DUP2 MSTORE PUSH1 0x20 ADD DUP3 DUP1 SLOAD PUSH2 0xFE5 SWAP1 PUSH2 0x1B40 JUMP JUMPDEST DUP1 ISZERO PUSH2 0x1030 JUMPI DUP1 PUSH1 0x1F LT PUSH2 0x1007 JUMPI PUSH2 0x100 DUP1 DUP4 SLOAD DIV MUL DUP4 MSTORE SWAP2 PUSH1 0x20 ADD SWAP2 PUSH2 0x1030 JUMP JUMPDEST DUP3 ADD SWAP2 SWAP1 PUSH0 MSTORE PUSH1 0x20 PUSH0 KECCAK256 SWAP1 JUMPDEST DUP2 SLOAD DUP2 MSTORE SWAP1 PUSH1 0x1 ADD SWAP1 PUSH1 0x20 ADD DUP1 DUP4 GT PUSH2 0x1013 JUMPI DUP3 SWAP1 SUB PUSH1 0x1F AND DUP3 ADD SWAP2 JUMPDEST POP POP POP POP POP SWAP5 POP DUP4 DUP1 SLOAD PUSH2 0x1043 SWAP1 PUSH2 0x1B40 JUMP JUMPDEST DUP1 PUSH1 0x1F ADD PUSH1 0x20 DUP1 SWAP2 DIV MUL PUSH1 0x20 ADD PUSH1 0x40 MLOAD SWAP1 DUP2 ADD PUSH1 0x40 MSTORE DUP1 SWAP3 SWAP2 SWAP1 DUP2 DUP2 MSTORE PUSH1 0x20 ADD DUP3 DUP1 SLOAD PUSH2 0x106F SWAP1 PUSH2 0x1B40 JUMP JUMPDEST DUP1 ISZERO PUSH2 0x10BA JUMPI DUP1 PUSH1 0x1F LT PUSH2 0x1091 JUMPI PUSH2 0x100 DUP1 DUP4 SLOAD DIV MUL DUP4 MSTORE SWAP2 PUSH1 0x20 ADD SWAP2 PUSH2 0x10BA JUMP JUMPDEST DUP3 ADD SWAP2 SWAP1 PUSH0 MSTORE PUSH1 0x20 PUSH0 KECCAK256 SWAP1 JUMPDEST DUP2 SLOAD DUP2 MSTORE SWAP1 PUSH1 0x1 ADD SWAP1 PUSH1 0x20 ADD DUP1 DUP4 GT PUSH2 0x109D JUMPI DUP3 SWAP1 SUB PUSH1 0x1F AND DUP3 ADD SWAP2 JUMPDEST POP POP POP POP POP SWAP4 POP DUP3 DUP1 SLOAD PUSH2 0x10CD SWAP1 PUSH2 0x1B40 JUMP JUMPDEST DUP1 PUSH1 0x1F ADD PUSH1 0x20 DUP1 SWAP2 DIV MUL PUSH1 0x20 ADD PUSH1 0x40 MLOAD SWAP1 DUP2 ADD PUSH1 0x40 MSTORE DUP1 SWAP3 SWAP2 SWAP1 DUP2 DUP2 MSTORE PUSH1 0x20 ADD DUP3 DUP1 SLOAD PUSH2 0x10F9 SWAP1 PUSH2 0x1B40 JUMP JUMPDEST DUP1 ISZERO PUSH2 0x1144 JUMPI DUP1 PUSH1 0x1F LT PUSH2 0x111B JUMPI PUSH2 0x100 DUP1 DUP4 SLOAD DIV MUL DUP4 MSTORE SWAP2 PUSH1 0x20 ADD SWAP2 PUSH2 0x1144 JUMP JUMPDEST DUP3 ADD SWAP2 SWAP1 PUSH0 MSTORE PUSH1 0x20 PUSH0 KECCAK256 SWAP1 JUMPDEST DUP2 SLOAD DUP2 MSTORE SWAP1 PUSH1 0x1 ADD SWAP1 PUSH1 0x20 ADD DUP1 DUP4 GT PUSH2 0x1127 JUMPI DUP3 SWAP1 SUB PUSH1 0x1F AND DUP3 ADD SWAP2 JUMPDEST POP POP POP POP POP SWAP3 POP DUP2 DUP1 SLOAD DUP1 PUSH1 0x20 MUL PUSH1 0x20 ADD PUSH1 0x40 MLOAD SWAP1 DUP2 ADD PUSH1 0x40 MSTORE DUP1 SWAP3 SWAP2 SWAP1 DUP2 DUP2 MSTORE PUSH1 0x20 ADD PUSH0 SWAP1 JUMPDEST DUP3 DUP3 LT ISZERO PUSH2 0x1213 JUMPI DUP4 DUP3 SWAP1 PUSH0 MSTORE PUSH1 0x20 PUSH0 KECCAK256 ADD DUP1 SLOAD PUSH2 0x1188 SWAP1 PUSH2 0x1B40 JUMP JUMPDEST DUP1 PUSH1 0x1F ADD PUSH1 0x20 DUP1 SWAP2 DIV MUL PUSH1 0x20 ADD PUSH1 0x40 MLOAD SWAP1 DUP2 ADD PUSH1 0x40 MSTORE DUP1 SWAP3 SWAP2 SWAP1 DUP2 DUP2 MSTORE PUSH1 0x20 ADD DUP3 DUP1 SLOAD PUSH2 0x11B4 SWAP1 PUSH2 0x1B40 JUMP JUMPDEST DUP1 ISZERO PUSH2 0x11FF JUMPI DUP1 PUSH1 0x1F LT PUSH2 0x11D6 JUMPI PUSH2 0x100 DUP1 DUP4 SLOAD DIV MUL DUP4 MSTORE SWAP2 PUSH1 0x20 ADD SWAP2 PUSH2 0x11FF JUMP JUMPDEST DUP3 ADD SWAP2 SWAP1 PUSH0 MSTORE PUSH1 0x20 PUSH0 KECCAK256 SWAP1 JUMPDEST DUP2 SLOAD DUP2 MSTORE SWAP1 PUSH1 0x1 ADD SWAP1 PUSH1 0x20 ADD DUP1 DUP4 GT PUSH2 0x11E2 JUMPI DUP3 SWAP1 SUB PUSH1 0x1F AND DUP3 ADD SWAP2 JUMPDEST POP POP POP POP POP DUP2 MSTORE PUSH1 0x20 ADD SWAP1 PUSH1 0x1 ADD SWAP1 PUSH2 0x116B JUMP JUMPDEST POP POP POP POP SWAP2 POP DUP1 DUP1 SLOAD DUP1 PUSH1 0x20 MUL PUSH1 0x20 ADD PUSH1 0x40 MLOAD SWAP1 DUP2 ADD PUSH1 0x40 MSTORE DUP1 SWAP3 SWAP2 SWAP1 DUP2 DUP2 MSTORE PUSH1 0x20 ADD PUSH0 SWAP1 JUMPDEST DUP3 DUP3 LT ISZERO PUSH2 0x12E1 JUMPI DUP4 DUP3 SWAP1 PUSH0 MSTORE PUSH1 0x20 PUSH0 KECCAK256 ADD DUP1 SLOAD PUSH2 0x1256 SWAP1 PUSH2 0x1B40 JUMP JUMPDEST DUP1 PUSH1 0x1F ADD PUSH1 0x20 DUP1 SWAP2 DIV MUL PUSH1 0x20 ADD PUSH1 0x40 MLOAD SWAP1 DUP2 ADD PUSH1 0x40 MSTORE DUP1 SWAP3 SWAP2 SWAP1 DUP2 DUP2 MSTORE PUSH1 0x20 ADD DUP3 DUP1 SLOAD PUSH2 0x1282 SWAP1 PUSH2 0x1B40 JUMP JUMPDEST DUP1 ISZERO PUSH2 0x12CD JUMPI DUP1 PUSH1 0x1F LT PUSH2 0x12A4 JUMPI PUSH2 0x100 DUP1 DUP4 SLOAD DIV MUL DUP4 MSTORE SWAP2 PUSH1 0x20 ADD SWAP2 PUSH2 0x12CD JUMP JUMPDEST DUP3 ADD SWAP2 SWAP1 PUSH0 MSTORE PUSH1 0x20 PUSH0 KECCAK256 SWAP1 JUMPDEST DUP2 SLOAD DUP2 MSTORE SWAP1 PUSH1 0x1 ADD SWAP1 PUSH1 0x20 ADD DUP1 DUP4 GT PUSH2 0x12B0 JUMPI DUP3 SWAP1 SUB PUSH1 0x1F AND DUP3 ADD SWAP2 JUMPDEST POP POP POP POP POP DUP2 MSTORE PUSH1 0x20 ADD SWAP1 PUSH1 0x1 ADD SWAP1 PUSH2 0x1239 JUMP JUMPDEST POP POP POP POP SWAP1 POP SWAP6 POP SWAP6 POP SWAP6 POP SWAP6 POP SWAP6 POP SWAP6 POP SWAP2 SWAP4 SWAP6 POP SWAP2 SWAP4 SWAP6 JUMP JUMPDEST PUSH1 0x6 PUSH1 0x20 MSTORE DUP1 PUSH0 MSTORE PUSH1 0x40 PUSH0 KECCAK256 PUSH0 SWAP2 POP SWAP1 POP DUP1 PUSH0 ADD DUP1 SLOAD PUSH2 0x131B SWAP1 PUSH2 0x1B40 JUMP JUMPDEST DUP1 PUSH1 0x1F ADD PUSH1 0x20 DUP1 SWAP2 DIV MUL PUSH1 0x20 ADD PUSH1 0x40 MLOAD SWAP1 DUP2 ADD PUSH1 0x40 MSTORE DUP1 SWAP3 SWAP2 SWAP1 DUP2 DUP2 MSTORE PUSH1 0x20 ADD DUP3 DUP1 SLOAD PUSH2 0x1347 SWAP1 PUSH2 0x1B40 JUMP JUMPDEST DUP1 ISZERO PUSH2 0x1392 JUMPI DUP1 PUSH1 0x1F LT PUSH2 0x1369 JUMPI PUSH2 0x100 DUP1 DUP4 SLOAD DIV MUL DUP4 MSTORE SWAP2 PUSH1 0x20 ADD SWAP2 PUSH2 0x1392 JUMP JUMPDEST DUP3 ADD SWAP2 SWAP1 PUSH0 MSTORE PUSH1 0x20 PUSH0 KECCAK256 SWAP1 JUMPDEST DUP2 SLOAD DUP2 MSTORE SWAP1 PUSH1 0x1 ADD SWAP1 PUSH1 0x20 ADD DUP1 DUP4 GT PUSH2 0x1375 JUMPI DUP3 SWAP1 SUB PUSH1 0x1F AND DUP3 ADD SWAP2 JUMPDEST POP POP POP POP POP SWAP1 POP DUP2 JUMP JUMPDEST PUSH0 DUP1 SLOAD SWAP1 PUSH2 0x100 EXP SWAP1 DIV PUSH20 0xFFFFFFFFFFFFFFFFFFFFFFFFFFFFFFFFFFFFFFFF AND DUP2 JUMP JUMPDEST PUSH0 PUSH1 0x40 MLOAD SWAP1 POP SWAP1 JUMP JUMPDEST PUSH0 DUP1 REVERT JUMPDEST PUSH0 DUP1 REVERT JUMPDEST PUSH0 PUSH20 0xFFFFFFFFFFFFFFFFFFFFFFFFFFFFFFFFFFFFFFFF DUP3 AND SWAP1 POP SWAP2 SWAP1 POP JUMP JUMPDEST PUSH0 PUSH2 0x13F9 DUP3 PUSH2 0x13D0 JUMP JUMPDEST SWAP1 POP SWAP2 SWAP1 POP JUMP JUMPDEST PUSH2 0x1409 DUP2 PUSH2 0x13EF JUMP JUMPDEST DUP2 EQ PUSH2 0x1413 JUMPI PUSH0 DUP1 REVERT JUMPDEST POP JUMP JUMPDEST PUSH0 DUP2 CALLDATALOAD SWAP1 POP PUSH2 0x1424 DUP2 PUSH2 0x1400 JUMP JUMPDEST SWAP3 SWAP2 POP POP JUMP JUMPDEST PUSH0 PUSH1 0x20 DUP3 DUP5 SUB SLT ISZERO PUSH2 0x143F JUMPI PUSH2 0x143E PUSH2 0x13C8 JUMP JUMPDEST JUMPDEST PUSH0 PUSH2 0x144C DUP5 DUP3 DUP6 ADD PUSH2 0x1416 JUMP JUMPDEST SWAP2 POP POP SWAP3 SWAP2 POP POP JUMP JUMPDEST PUSH0 DUP2 MLOAD SWAP1 POP SWAP2 SWAP1 POP JUMP JUMPDEST PUSH0 DUP3 DUP3 MSTORE PUSH1 0x20 DUP3 ADD SWAP1 POP SWAP3 SWAP2 POP POP JUMP JUMPDEST PUSH0 JUMPDEST DUP4 DUP2 LT ISZERO PUSH2 0x148C JUMPI DUP1 DUP3 ADD MLOAD DUP2 DUP5 ADD MSTORE PUSH1 0x20 DUP2 ADD SWAP1 POP PUSH2 0x1471 JUMP JUMPDEST PUSH0 DUP5 DUP5 ADD MSTORE POP POP POP POP JUMP JUMPDEST PUSH0 PUSH1 0x1F NOT PUSH1 0x1F DUP4 ADD AND SWAP1 POP SWAP2 SWAP1 POP JUMP JUMPDEST PUSH0 PUSH2 0x14B1 DUP3 PUSH2 0x1455 JUMP JUMPDEST PUSH2 0x14BB DUP2 DUP6 PUSH2 0x145F JUMP JUMPDEST SWAP4 POP PUSH2 0x14CB DUP2 DUP6 PUSH1 0x20 DUP7 ADD PUSH2 0x146F JUMP JUMPDEST PUSH2 0x14D4 DUP2 PUSH2 0x1497 JUMP JUMPDEST DUP5 ADD SWAP2 POP POP SWAP3 SWAP2 POP POP JUMP JUMPDEST PUSH0 PUSH1 0x80 DUP3 ADD SWAP1 POP DUP2 DUP2 SUB PUSH0 DUP4 ADD MSTORE PUSH2 0x14F7 DUP2 DUP8 PUSH2 0x14A7 JUMP JUMPDEST SWAP1 POP DUP2 DUP2 SUB PUSH1 0x20 DUP4 ADD MSTORE PUSH2 0x150B DUP2 DUP7 PUSH2 0x14A7 JUMP JUMPDEST SWAP1 POP DUP2 DUP2 SUB PUSH1 0x40 DUP4 ADD MSTORE PUSH2 0x151F DUP2 DUP6 PUSH2 0x14A7 JUMP JUMPDEST SWAP1 POP DUP2 DUP2 SUB PUSH1 0x60 DUP4 ADD MSTORE PUSH2 0x1533 DUP2 DUP5 PUSH2 0x14A7 JUMP JUMPDEST SWAP1 POP SWAP6 SWAP5 POP POP POP POP POP JUMP JUMPDEST PUSH0 DUP2 ISZERO ISZERO SWAP1 POP SWAP2 SWAP1 POP JUMP JUMPDEST PUSH2 0x1552 DUP2 PUSH2 0x153E JUMP JUMPDEST DUP3 MSTORE POP POP JUMP JUMPDEST PUSH0 PUSH1 0x20 DUP3 ADD SWAP1 POP PUSH2 0x156B PUSH0 DUP4 ADD DUP5 PUSH2 0x1549 JUMP JUMPDEST SWAP3 SWAP2 POP POP JUMP JUMPDEST PUSH0 DUP2 MLOAD SWAP1 POP SWAP2 SWAP1 POP JUMP JUMPDEST PUSH0 DUP3 DUP3 MSTORE PUSH1 0x20 DUP3 ADD SWAP1 POP SWAP3 SWAP2 POP POP JUMP JUMPDEST PUSH0 DUP2 SWAP1 POP PUSH1 0x20 DUP3 ADD SWAP1 POP SWAP2 SWAP1 POP JUMP JUMPDEST PUSH2 0x15A3 DUP2 PUSH2 0x13EF JUMP JUMPDEST DUP3 MSTORE POP POP JUMP JUMPDEST PUSH0 PUSH2 0x15B4 DUP4 DUP4 PUSH2 0x159A JUMP JUMPDEST PUSH1 0x20 DUP4 ADD SWAP1 POP SWAP3 SWAP2 POP POP JUMP JUMPDEST PUSH0 PUSH1 0x20 DUP3 ADD SWAP1 POP SWAP2 SWAP1 POP JUMP JUMPDEST PUSH0 PUSH2 0x15D6 DUP3 PUSH2 0x1571 JUMP JUMPDEST PUSH2 0x15E0 DUP2 DUP6 PUSH2 0x157B JUMP JUMPDEST SWAP4 POP PUSH2 0x15EB DUP4 PUSH2 0x158B JUMP JUMPDEST DUP1 PUSH0 JUMPDEST DUP4 DUP2 LT ISZERO PUSH2 0x161B JUMPI DUP2 MLOAD PUSH2 0x1602 DUP9 DUP3 PUSH2 0x15A9 JUMP JUMPDEST SWAP8 POP PUSH2 0x160D DUP4 PUSH2 0x15C0 JUMP JUMPDEST SWAP3 POP POP PUSH1 0x1 DUP2 ADD SWAP1 POP PUSH2 0x15EE JUMP JUMPDEST POP DUP6 SWAP4 POP POP POP POP SWAP3 SWAP2 POP POP JUMP JUMPDEST PUSH0 DUP2 MLOAD SWAP1 POP SWAP2 SWAP1 POP JUMP JUMPDEST PUSH0 DUP3 DUP3 MSTORE PUSH1 0x20 DUP3 ADD SWAP1 POP SWAP3 SWAP2 POP POP JUMP JUMPDEST PUSH0 DUP2 SWAP1 POP PUSH1 0x20 DUP3 ADD SWAP1 POP SWAP2 SWAP1 POP JUMP JUMPDEST PUSH0 DUP3 DUP3 MSTORE PUSH1 0x20 DUP3 ADD SWAP1 POP SWAP3 SWAP2 POP POP JUMP JUMPDEST PUSH0 PUSH2 0x166B DUP3 PUSH2 0x1455 JUMP JUMPDEST PUSH2 0x1675 DUP2 DUP6 PUSH2 0x1651 JUMP JUMPDEST SWAP4 POP PUSH2 0x1685 DUP2 DUP6 PUSH1 0x20 DUP7 ADD PUSH2 0x146F JUMP JUMPDEST PUSH2 0x168E DUP2 PUSH2 0x1497 JUMP JUMPDEST DUP5 ADD SWAP2 POP POP SWAP3 SWAP2 POP POP JUMP JUMPDEST PUSH0 PUSH2 0x16A4 DUP4 DUP4 PUSH2 0x1661 JUMP JUMPDEST SWAP1 POP SWAP3 SWAP2 POP POP JUMP JUMPDEST PUSH0 PUSH1 0x20 DUP3 ADD SWAP1 POP SWAP2 SWAP1 POP JUMP JUMPDEST PUSH0 PUSH2 0x16C2 DUP3 PUSH2 0x1628 JUMP JUMPDEST PUSH2 0x16CC DUP2 DUP6 PUSH2 0x1632 JUMP JUMPDEST SWAP4 POP DUP4 PUSH1 0x20 DUP3 MUL DUP6 ADD PUSH2 0x16DE DUP6 PUSH2 0x1642 JUMP JUMPDEST DUP1 PUSH0 JUMPDEST DUP6 DUP2 LT ISZERO PUSH2 0x1719 JUMPI DUP5 DUP5 SUB DUP10 MSTORE DUP2 MLOAD PUSH2 0x16FA DUP6 DUP3 PUSH2 0x1699 JUMP JUMPDEST SWAP5 POP PUSH2 0x1705 DUP4 PUSH2 0x16AC JUMP JUMPDEST SWAP3 POP PUSH1 0x20 DUP11 ADD SWAP10 POP POP PUSH1 0x1 DUP2 ADD SWAP1 POP PUSH2 0x16E1 JUMP JUMPDEST POP DUP3 SWAP8 POP DUP8 SWAP6 POP POP POP POP POP POP SWAP3 SWAP2 POP POP JUMP JUMPDEST PUSH0 PUSH1 0x40 DUP3 ADD SWAP1 POP DUP2 DUP2 SUB PUSH0 DUP4 ADD MSTORE PUSH2 0x1743 DUP2 DUP6 PUSH2 0x15CC JUMP JUMPDEST SWAP1 POP DUP2 DUP2 SUB PUSH1 0x20 DUP4 ADD MSTORE PUSH2 0x1757 DUP2 DUP5 PUSH2 0x16B8 JUMP JUMPDEST SWAP1 POP SWAP4 SWAP3 POP POP POP JUMP JUMPDEST PUSH0 DUP1 REVERT JUMPDEST PUSH0 DUP1 REVERT JUMPDEST PUSH32 0x4E487B7100000000000000000000000000000000000000000000000000000000 PUSH0 MSTORE PUSH1 0x41 PUSH1 0x4 MSTORE PUSH1 0x24 PUSH0 REVERT JUMPDEST PUSH2 0x179E DUP3 PUSH2 0x1497 JUMP JUMPDEST DUP2 ADD DUP2 DUP2 LT PUSH8 0xFFFFFFFFFFFFFFFF DUP3 GT OR ISZERO PUSH2 0x17BD JUMPI PUSH2 0x17BC PUSH2 0x1768 JUMP JUMPDEST JUMPDEST DUP1 PUSH1 0x40 MSTORE POP POP POP JUMP JUMPDEST PUSH0 PUSH2 0x17CF PUSH2 0x13BF JUMP JUMPDEST SWAP1 POP PUSH2 0x17DB DUP3 DUP3 PUSH2 0x1795 JUMP JUMPDEST SWAP2 SWAP1 POP JUMP JUMPDEST PUSH0 PUSH8 0xFFFFFFFFFFFFFFFF DUP3 GT ISZERO PUSH2 0x17FA JUMPI PUSH2 0x17F9 PUSH2 0x1768 JUMP JUMPDEST JUMPDEST PUSH2 0x1803 DUP3 PUSH2 0x1497 JUMP JUMPDEST SWAP1 POP PUSH1 0x20 DUP2 ADD SWAP1 POP SWAP2 SWAP1 POP JUMP JUMPDEST DUP3 DUP2 DUP4 CALLDATACOPY PUSH0 DUP4 DUP4 ADD MSTORE POP POP POP JUMP JUMPDEST PUSH0 PUSH2 0x1830 PUSH2 0x182B DUP5 PUSH2 0x17E0 JUMP JUMPDEST PUSH2 0x17C6 JUMP JUMPDEST SWAP1 POP DUP3 DUP2 MSTORE PUSH1 0x20 DUP2 ADD DUP5 DUP5 DUP5 ADD GT ISZERO PUSH2 0x184C JUMPI PUSH2 0x184B PUSH2 0x1764 JUMP JUMPDEST JUMPDEST PUSH2 0x1857 DUP5 DUP3 DUP6 PUSH2 0x1810 JUMP JUMPDEST POP SWAP4 SWAP3 POP POP POP JUMP JUMPDEST PUSH0 DUP3 PUSH1 0x1F DUP4 ADD SLT PUSH2 0x1873 JUMPI PUSH2 0x1872 PUSH2 0x1760 JUMP JUMPDEST JUMPDEST DUP2 CALLDATALOAD PUSH2 0x1883 DUP5 DUP3 PUSH1 0x20 DUP7 ADD PUSH2 0x181E JUMP JUMPDEST SWAP2 POP POP SWAP3 SWAP2 POP POP JUMP JUMPDEST PUSH0 DUP1 PUSH1 0x40 DUP4 DUP6 SUB SLT ISZERO PUSH2 0x18A2 JUMPI PUSH2 0x18A1 PUSH2 0x13C8 JUMP JUMPDEST JUMPDEST PUSH0 DUP4 ADD CALLDATALOAD PUSH8 0xFFFFFFFFFFFFFFFF DUP2 GT ISZERO PUSH2 0x18BF JUMPI PUSH2 0x18BE PUSH2 0x13CC JUMP JUMPDEST JUMPDEST PUSH2 0x18CB DUP6 DUP3 DUP7 ADD PUSH2 0x185F JUMP JUMPDEST SWAP3 POP POP PUSH1 0x20 PUSH2 0x18DC DUP6 DUP3 DUP7 ADD PUSH2 0x1416 JUMP JUMPDEST SWAP2 POP POP SWAP3 POP SWAP3 SWAP1 POP JUMP JUMPDEST PUSH0 DUP1 PUSH0 PUSH1 0x60 DUP5 DUP7 SUB SLT ISZERO PUSH2 0x18FD JUMPI PUSH2 0x18FC PUSH2 0x13C8 JUMP JUMPDEST JUMPDEST PUSH0 PUSH2 0x190A DUP7 DUP3 DUP8 ADD PUSH2 0x1416 JUMP JUMPDEST SWAP4 POP POP PUSH1 0x20 DUP5 ADD CALLDATALOAD PUSH8 0xFFFFFFFFFFFFFFFF DUP2 GT ISZERO PUSH2 0x192B JUMPI PUSH2 0x192A PUSH2 0x13CC JUMP JUMPDEST JUMPDEST PUSH2 0x1937 DUP7 DUP3 DUP8 ADD PUSH2 0x185F JUMP JUMPDEST SWAP3 POP POP PUSH1 0x40 DUP5 ADD CALLDATALOAD PUSH8 0xFFFFFFFFFFFFFFFF DUP2 GT ISZERO PUSH2 0x1958 JUMPI PUSH2 0x1957 PUSH2 0x13CC JUMP JUMPDEST JUMPDEST PUSH2 0x1964 DUP7 DUP3 DUP8 ADD PUSH2 0x185F JUMP JUMPDEST SWAP2 POP POP SWAP3 POP SWAP3 POP SWAP3 JUMP JUMPDEST PUSH0 PUSH1 0x20 DUP3 ADD SWAP1 POP DUP2 DUP2 SUB PUSH0 DUP4 ADD MSTORE PUSH2 0x1986 DUP2 DUP5 PUSH2 0x14A7 JUMP JUMPDEST SWAP1 POP SWAP3 SWAP2 POP POP JUMP JUMPDEST PUSH0 DUP1 PUSH0 DUP1 PUSH1 0x80 DUP6 DUP8 SUB SLT ISZERO PUSH2 0x19A6 JUMPI PUSH2 0x19A5 PUSH2 0x13C8 JUMP JUMPDEST JUMPDEST PUSH0 DUP6 ADD CALLDATALOAD PUSH8 0xFFFFFFFFFFFFFFFF DUP2 GT ISZERO PUSH2 0x19C3 JUMPI PUSH2 0x19C2 PUSH2 0x13CC JUMP JUMPDEST JUMPDEST PUSH2 0x19CF DUP8 DUP3 DUP9 ADD PUSH2 0x185F JUMP JUMPDEST SWAP5 POP POP PUSH1 0x20 DUP6 ADD CALLDATALOAD PUSH8 0xFFFFFFFFFFFFFFFF DUP2 GT ISZERO PUSH2 0x19F0 JUMPI PUSH2 0x19EF PUSH2 0x13CC JUMP JUMPDEST JUMPDEST PUSH2 0x19FC DUP8 DUP3 DUP9 ADD PUSH2 0x185F JUMP JUMPDEST SWAP4 POP POP PUSH1 0x40 DUP6 ADD CALLDATALOAD PUSH8 0xFFFFFFFFFFFFFFFF DUP2 GT ISZERO PUSH2 0x1A1D JUMPI PUSH2 0x1A1C PUSH2 0x13CC JUMP JUMPDEST JUMPDEST PUSH2 0x1A29 DUP8 DUP3 DUP9 ADD PUSH2 0x185F JUMP JUMPDEST SWAP3 POP POP PUSH1 0x60 DUP6 ADD CALLDATALOAD PUSH8 0xFFFFFFFFFFFFFFFF DUP2 GT ISZERO PUSH2 0x1A4A JUMPI PUSH2 0x1A49 PUSH2 0x13CC JUMP JUMPDEST JUMPDEST PUSH2 0x1A56 DUP8 DUP3 DUP9 ADD PUSH2 0x185F JUMP JUMPDEST SWAP2 POP POP SWAP3 SWAP6 SWAP2 SWAP5 POP SWAP3 POP JUMP JUMPDEST PUSH0 PUSH1 0xC0 DUP3 ADD SWAP1 POP DUP2 DUP2 SUB PUSH0 DUP4 ADD MSTORE PUSH2 0x1A7A DUP2 DUP10 PUSH2 0x14A7 JUMP JUMPDEST SWAP1 POP DUP2 DUP2 SUB PUSH1 0x20 DUP4 ADD MSTORE PUSH2 0x1A8E DUP2 DUP9 PUSH2 0x14A7 JUMP JUMPDEST SWAP1 POP DUP2 DUP2 SUB PUSH1 0x40 DUP4 ADD MSTORE PUSH2 0x1AA2 DUP2 DUP8 PUSH2 0x14A7 JUMP JUMPDEST SWAP1 POP DUP2 DUP2 SUB PUSH1 0x60 DUP4 ADD MSTORE PUSH2 0x1AB6 DUP2 DUP7 PUSH2 0x14A7 JUMP JUMPDEST SWAP1 POP DUP2 DUP2 SUB PUSH1 0x80 DUP4 ADD MSTORE PUSH2 0x1ACA DUP2 DUP6 PUSH2 0x16B8 JUMP JUMPDEST SWAP1 POP DUP2 DUP2 SUB PUSH1 0xA0 DUP4 ADD MSTORE PUSH2 0x1ADE DUP2 DUP5 PUSH2 0x16B8 JUMP JUMPDEST SWAP1 POP SWAP8 SWAP7 POP POP POP POP POP POP POP JUMP JUMPDEST PUSH2 0x1AF4 DUP2 PUSH2 0x13EF JUMP JUMPDEST DUP3 MSTORE POP POP JUMP JUMPDEST PUSH0 PUSH1 0x20 DUP3 ADD SWAP1 POP PUSH2 0x1B0D PUSH0 DUP4 ADD DUP5 PUSH2 0x1AEB JUMP JUMPDEST SWAP3 SWAP2 POP POP JUMP JUMPDEST PUSH32 0x4E487B7100000000000000000000000000000000000000000000000000000000 PUSH0 MSTORE PUSH1 0x22 PUSH1 0x4 MSTORE PUSH1 0x24 PUSH0 REVERT JUMPDEST PUSH0 PUSH1 0x2 DUP3 DIV SWAP1 POP PUSH1 0x1 DUP3 AND DUP1 PUSH2 0x1B57 JUMPI PUSH1 0x7F DUP3 AND SWAP2 POP JUMPDEST PUSH1 0x20 DUP3 LT DUP2 SUB PUSH2 0x1B6A JUMPI PUSH2 0x1B69 PUSH2 0x1B13 JUMP JUMPDEST JUMPDEST POP SWAP2 SWAP1 POP JUMP JUMPDEST PUSH0 DUP2 SWAP1 POP DUP2 PUSH0 MSTORE PUSH1 0x20 PUSH0 KECCAK256 SWAP1 POP SWAP2 SWAP1 POP JUMP JUMPDEST PUSH0 PUSH1 0x20 PUSH1 0x1F DUP4 ADD DIV SWAP1 POP SWAP2 SWAP1 POP JUMP JUMPDEST PUSH0 DUP3 DUP3 SHL SWAP1 POP SWAP3 SWAP2 POP POP JUMP JUMPDEST PUSH0 PUSH1 0x8 DUP4 MUL PUSH2 0x1BCC PUSH32 0xFFFFFFFFFFFFFFFFFFFFFFFFFFFFFFFFFFFFFFFFFFFFFFFFFFFFFFFFFFFFFFFF DUP3 PUSH2 0x1B91 JUMP JUMPDEST PUSH2 0x1BD6 DUP7 DUP4 PUSH2 0x1B91 JUMP JUMPDEST SWAP6 POP DUP1 NOT DUP5 AND SWAP4 POP DUP1 DUP7 AND DUP5 OR SWAP3 POP POP POP SWAP4 SWAP3 POP POP POP JUMP JUMPDEST PUSH0 DUP2 SWAP1 POP SWAP2 SWAP1 POP JUMP JUMPDEST PUSH0 DUP2 SWAP1 POP SWAP2 SWAP1 POP JUMP JUMPDEST PUSH0 PUSH2 0x1C1A PUSH2 0x1C15 PUSH2 0x1C10 DUP5 PUSH2 0x1BEE JUMP JUMPDEST PUSH2 0x1BF7 JUMP JUMPDEST PUSH2 0x1BEE JUMP JUMPDEST SWAP1 POP SWAP2 SWAP1 POP JUMP JUMPDEST PUSH0 DUP2 SWAP1 POP SWAP2 SWAP1 POP JUMP JUMPDEST PUSH2 0x1C33 DUP4 PUSH2 0x1C00 JUMP JUMPDEST PUSH2 0x1C47 PUSH2 0x1C3F DUP3 PUSH2 0x1C21 JUMP JUMPDEST DUP5 DUP5 SLOAD PUSH2 0x1B9D JUMP JUMPDEST DUP3 SSTORE POP POP POP POP JUMP JUMPDEST PUSH0 SWAP1 JUMP JUMPDEST PUSH2 0x1C5B PUSH2 0x1C4F JUMP JUMPDEST PUSH2 0x1C66 DUP2 DUP5 DUP5 PUSH2 0x1C2A JUMP JUMPDEST POP POP POP JUMP JUMPDEST JUMPDEST DUP2 DUP2 LT ISZERO PUSH2 0x1C89 JUMPI PUSH2 0x1C7E PUSH0 DUP3 PUSH2 0x1C53 JUMP JUMPDEST PUSH1 0x1 DUP2 ADD SWAP1 POP PUSH2 0x1C6C JUMP JUMPDEST POP POP JUMP JUMPDEST PUSH1 0x1F DUP3 GT ISZERO PUSH2 0x1CCE JUMPI PUSH2 0x1C9F DUP2 PUSH2 0x1B70 JUMP JUMPDEST PUSH2 0x1CA8 DUP5 PUSH2 0x1B82 JUMP JUMPDEST DUP2 ADD PUSH1 0x20 DUP6 LT ISZERO PUSH2 0x1CB7 JUMPI DUP2 SWAP1 POP JUMPDEST PUSH2 0x1CCB PUSH2 0x1CC3 DUP6 PUSH2 0x1B82 JUMP JUMPDEST DUP4 ADD DUP3 PUSH2 0x1C6B JUMP JUMPDEST POP POP JUMPDEST POP POP POP JUMP JUMPDEST PUSH0 DUP3 DUP3 SHR SWAP1 POP SWAP3 SWAP2 POP POP JUMP JUMPDEST PUSH0 PUSH2 0x1CEE PUSH0 NOT DUP5 PUSH1 0x8 MUL PUSH2 0x1CD3 JUMP JUMPDEST NOT DUP1 DUP4 AND SWAP2 POP POP SWAP3 SWAP2 POP POP JUMP JUMPDEST PUSH0 PUSH2 0x1D06 DUP4 DUP4 PUSH2 0x1CDF JUMP JUMPDEST SWAP2 POP DUP3 PUSH1 0x2 MUL DUP3 OR SWAP1 POP SWAP3 SWAP2 POP POP JUMP JUMPDEST PUSH2 0x1D1F DUP3 PUSH2 0x1455 JUMP JUMPDEST PUSH8 0xFFFFFFFFFFFFFFFF DUP2 GT ISZERO PUSH2 0x1D38 JUMPI PUSH2 0x1D37 PUSH2 0x1768 JUMP JUMPDEST JUMPDEST PUSH2 0x1D42 DUP3 SLOAD PUSH2 0x1B40 JUMP JUMPDEST PUSH2 0x1D4D DUP3 DUP3 DUP6 PUSH2 0x1C8D JUMP JUMPDEST PUSH0 PUSH1 0x20 SWAP1 POP PUSH1 0x1F DUP4 GT PUSH1 0x1 DUP2 EQ PUSH2 0x1D7E JUMPI PUSH0 DUP5 ISZERO PUSH2 0x1D6C JUMPI DUP3 DUP8 ADD MLOAD SWAP1 POP JUMPDEST PUSH2 0x1D76 DUP6 DUP3 PUSH2 0x1CFB JUMP JUMPDEST DUP7 SSTORE POP PUSH2 0x1DDD JUMP JUMPDEST PUSH1 0x1F NOT DUP5 AND PUSH2 0x1D8C DUP7 PUSH2 0x1B70 JUMP JUMPDEST PUSH0 JUMPDEST DUP3 DUP2 LT ISZERO PUSH2 0x1DB3 JUMPI DUP5 DUP10 ADD MLOAD DUP3 SSTORE PUSH1 0x1 DUP3 ADD SWAP2 POP PUSH1 0x20 DUP6 ADD SWAP5 POP PUSH1 0x20 DUP2 ADD SWAP1 POP PUSH2 0x1D8E JUMP JUMPDEST DUP7 DUP4 LT ISZERO PUSH2 0x1DD0 JUMPI DUP5 DUP10 ADD MLOAD PUSH2 0x1DCC PUSH1 0x1F DUP10 AND DUP3 PUSH2 0x1CDF JUMP JUMPDEST DUP4 SSTORE POP JUMPDEST PUSH1 0x1 PUSH1 0x2 DUP9 MUL ADD DUP9 SSTORE POP POP POP JUMPDEST POP POP POP POP POP POP JUMP INVALID LOG2 PUSH5 0x6970667358 0x22 SLT KECCAK256 JUMPDEST PUSH24 0xEDEF2C11503B73337EDF2BFDA15C7FEEA5DB6736EB83AE57 COINBASE ADD SUB EQ MLOAD 0x4A PUSH5 0x736F6C6343 STOP ADDMOD EQ STOP CALLER "
				},
				"gasEstimates": {
					"creation": {
						"codeDepositCost": "1541400",
						"executionCost": "25873",
						"totalCost": "1567273"
					},
					"external": {
						"admin()": "2593",
						"checkAdmin(address)": "2937",
						"checkPatient(address)": "2981",
						"getHosDetails(address)": "infinite",
						"getPatientDetails(address)": "infinite",
						"getPatients()": "infinite",
						"hosAdmin(address)": "2856",
						"hospitals(address)": "infinite",
						"newHospital(string,address)": "infinite",
						"newPatient(string,string,string,string)": "infinite",
						"patientexist(address)": "2878",
						"patients(address)": "infinite",
						"upDoc(address,string,string)": "infinite"
					}
				},
				"methodIdentifiers": {
					"admin()": "f851a440",
					"checkAdmin(address)": "9026dee8",
					"checkPatient(address)": "6529c777",
					"getHosDetails(address)": "7ef6a645",
					"getPatientDetails(address)": "efe2ccc1",
					"getPatients()": "12ad1c37",
					"hosAdmin(address)": "0a911c7a",
					"hospitals(address)": "f093cf80",
					"newHospital(string,address)": "18cbdc33",
					"newPatient(string,string,string,string)": "a86622e0",
					"patientexist(address)": "865bba9f",
					"patients(address)": "0869cfbc",
					"upDoc(address,string,string)": "22fdbbab"
				}
			},
			"storageLayout": {
				"storage": [
					{
						"astId": 3,
						"contract": "contracts/medic.sol:superadmin",
						"label": "admin",
						"offset": 0,
						"slot": "0",
						"type": "t_address"
					},
					{
						"astId": 7,
						"contract": "contracts/medic.sol:superadmin",
						"label": "hosAdmin",
						"offset": 0,
						"slot": "1",
						"type": "t_mapping(t_address,t_bool)"
					},
					{
						"astId": 36,
						"contract": "contracts/medic.sol:superadmin",
						"label": "patients",
						"offset": 0,
						"slot": "2",
						"type": "t_mapping(t_address,t_struct(Patient)31_storage)"
					},
					{
						"astId": 40,
						"contract": "contracts/medic.sol:superadmin",
						"label": "patientexist",
						"offset": 0,
						"slot": "3",
						"type": "t_mapping(t_address,t_bool)"
					},
					{
						"astId": 43,
						"contract": "contracts/medic.sol:superadmin",
						"label": "patList",
						"offset": 0,
						"slot": "4",
						"type": "t_array(t_address)dyn_storage"
					},
					{
						"astId": 46,
						"contract": "contracts/medic.sol:superadmin",
						"label": "patNList",
						"offset": 0,
						"slot": "5",
						"type": "t_array(t_string_storage)dyn_storage"
					},
					{
						"astId": 54,
						"contract": "contracts/medic.sol:superadmin",
						"label": "hospitals",
						"offset": 0,
						"slot": "6",
						"type": "t_mapping(t_address,t_struct(Hospital)49_storage)"
					}
				],
				"types": {
					"t_address": {
						"encoding": "inplace",
						"label": "address",
						"numberOfBytes": "20"
					},
					"t_array(t_address)dyn_storage": {
						"base": "t_address",
						"encoding": "dynamic_array",
						"label": "address[]",
						"numberOfBytes": "32"
					},
					"t_array(t_string_storage)dyn_storage": {
						"base": "t_string_storage",
						"encoding": "dynamic_array",
						"label": "string[]",
						"numberOfBytes": "32"
					},
					"t_bool": {
						"encoding": "inplace",
						"label": "bool",
						"numberOfBytes": "1"
					},
					"t_mapping(t_address,t_bool)": {
						"encoding": "mapping",
						"key": "t_address",
						"label": "mapping(address => bool)",
						"numberOfBytes": "32",
						"value": "t_bool"
					},
					"t_mapping(t_address,t_struct(Hospital)49_storage)": {
						"encoding": "mapping",
						"key": "t_address",
						"label": "mapping(address => struct superadmin.Hospital)",
						"numberOfBytes": "32",
						"value": "t_struct(Hospital)49_storage"
					},
					"t_mapping(t_address,t_struct(Patient)31_storage)": {
						"encoding": "mapping",
						"key": "t_address",
						"label": "mapping(address => struct superadmin.Patient)",
						"numberOfBytes": "32",
						"value": "t_struct(Patient)31_storage"
					},
					"t_string_storage": {
						"encoding": "bytes",
						"label": "string",
						"numberOfBytes": "32"
					},
					"t_struct(Hospital)49_storage": {
						"encoding": "inplace",
						"label": "struct superadmin.Hospital",
						"members": [
							{
								"astId": 48,
								"contract": "contracts/medic.sol:superadmin",
								"label": "name",
								"offset": 0,
								"slot": "0",
								"type": "t_string_storage"
							}
						],
						"numberOfBytes": "32"
					},
					"t_struct(Patient)31_storage": {
						"encoding": "inplace",
						"label": "struct superadmin.Patient",
						"members": [
							{
								"astId": 18,
								"contract": "contracts/medic.sol:superadmin",
								"label": "name",
								"offset": 0,
								"slot": "0",
								"type": "t_string_storage"
							},
							{
								"astId": 20,
								"contract": "contracts/medic.sol:superadmin",
								"label": "aadhar",
								"offset": 0,
								"slot": "1",
								"type": "t_string_storage"
							},
							{
								"astId": 22,
								"contract": "contracts/medic.sol:superadmin",
								"label": "dob",
								"offset": 0,
								"slot": "2",
								"type": "t_string_storage"
							},
							{
								"astId": 24,
								"contract": "contracts/medic.sol:superadmin",
								"label": "sex",
								"offset": 0,
								"slot": "3",
								"type": "t_string_storage"
							},
							{
								"astId": 27,
								"contract": "contracts/medic.sol:superadmin",
								"label": "docs",
								"offset": 0,
								"slot": "4",
								"type": "t_array(t_string_storage)dyn_storage"
							},
							{
								"astId": 30,
								"contract": "contracts/medic.sol:superadmin",
								"label": "docsD",
								"offset": 0,
								"slot": "5",
								"type": "t_array(t_string_storage)dyn_storage"
							}
						],
						"numberOfBytes": "192"
					}
				}
			},
			"userdoc": {
				"kind": "user",
				"methods": {},
				"version": 1
			}
		}
	}
}